S01C0000776973756E5F6E6F64655F6D6F6E69746F72696E672E733337F8
S3150800600008140020091201081BDA0508DDC805086E
S315080060101BDA05081BDA05081BDA05081BDA05086A
S315080060201BDA05081BDA05081BDA05081BDA05085A
S315080060301BDA0508F0E80708E57601081BDA050803
S315080060401BDA05081BDA05081BDA05081BDA05083A
S315080060501BDA05081BDA05081BDA05081BDA05082A
S315080060601BDA05081BDA05081BDA05081BDA05081A
S315080060701BDA050805D600088BC905081BDA0508CA
S315080060801BDA05081BDA05081BDA05081BDA0508FA
S315080060901BDA05081BDA05081BDA05081BDA0508EA
S315080060A01BDA05081BDA05081BDA05081BDA0508DA
S315080060B0712101081BDA05081BDA05081BDA050831
S315080060C0C51C0108A51C01081BDA05081BDA05080A
S315080060D099E302083DEF0208716206086D62060838
S315080060E079E6020887620608756206080DEF020857
S315080060F079620608A1EF0208A5F002081BDA05086E
S315080061001BDA05081BDA05081BDA05081BDA050879
S315080061101BDA05081BDA05081BDA05081BDA050869
S315080061201BDA05081BDA05081BDA05081BDA050859
S315080061301BDA05081BDA05081BDA05081BDA050849
S315080061401BDA05081BDA05081BDA05081BDA050839
S315080061501BDA05081BDA05081BDA05081BDA050829
S315080061601BDA05081BDA05080D7D01081BDA050888
S315080061701BDA0508657007089DC4020861620608EF
S31508006180676206081BDA05081BDA05081BDA050824
S315080061901BDA05081BDA05081BDA05081BDA0508E9
S30D080061A08B6206081BDA0508EC
S315080061A8F0B5114A114C124E00F00105E3695F0774
S315080061B813D40DB9334213D103EA00078F4207D126
S315080061C80B4A1A40002A0CBF00206FF00100F0BDE8
S315080061D8013AEBD16FF00200F9E74FF0FF30F6E726
S315080061E86FF00100F3E700BF80969800000003509F
S315080061F80200010070B50B4BD96911F480310DD135
S3150800620801244FF48072084E084DF46020462C6429
S315080062181A61FFF7C5FF3464EC6070BD6FF00100C2
S31508006228FBE700BF0000035000100350002003508E
S3150800623870B5C0F30C03054623B140F21A2111487C
S3150800624800F0A2F84FF480320F4B104C9A66E669B4
S3150800625841F6713316400122E3630D4B0021DA60DB
S315080062680223656121202361FFF79AFF10B92120CF
S31508006278FFF796FF0122074BDA600EB10023E363A6
S3150800628870BD00BFB9EC0708009000500000035025
S31508006298001003500020035070B5134C6061E36981
S315080062A85B071ED40E4656F8043B8D18A361AE420A
S315080062B80BD10423002121202361FFF771FF58B968
S315080062C8BDE870402120FFF76BBF08210846FFF795
S315080062D867FF10B10423236170BD56F8043BA36118
S315080062E8E5E74FF0FF30F7E7000003502DE9F843DC
S315080062F8154682070F46064604D040F266211E4810
S3150800630800F042F8AB0704D04FF41A711A4800F0A7
S315080063183BF84FF48032194BDFF868909A6603F514
S315080063281C33DA6902F4803841F67132DA630122DD
S3150800633803F58053DA6065B928460122104BDA60FE
S31508006348B8F1000F03D00022A3F50053DA63BDE8BD
S31508006358F88306F5005404EA0904A41BAC4228BFCE
S315080063682C46394622463046FFF796FF0028E4D1E0
S31508006378264427442D1BDEE7B9EC07080090005091
S315080063880020035000E0FFFF5FF800F049D300083B
S31508006400013800D0FCE770472DE9F0410023154616
S31508006410C2E900014FF47A7280460F4655F03AFAFF
S3150800642018A3D3E9002304460E464046394655F0DC
S3150800643031FA134B80B228815843241A66F10006B4
S315080064404FF4616200232046314655F023FA4FF493
S315080064506163C0B2A8725843241A20464FF03C0222
S315080064604FF0000366F1000155F014FAC0B2E87265
S31508006470C0EB0010A4EB80042C73BDE8F08100BFCC
S3150800648080510100005C26050000000000000000A5
S315080064902DE9F843161E81460D461F460ADBF317FB
S315080064A031186B414FF0000228BF01224AB1212062
S315080064B0BDE8F88330466DF0D5FFC3174845AB41B4
S315080064C0F5D23D4B4B454FF04903AB41EFD316EBA5
S315080064D0090945EBE67529463C220023484655F04E
S315080064E0D9F900233A703C2255F0D4F900237A7082
S315080064F0182255F0CFF904460130BA7088464FF095
S31508006500070241F10001002355F0C4F929463A7201
S31508006510484627A3D3E9002355F0BCF985B2042DD4
S315080065203DD905F26C75A9B240F26C7059F021FF9D
S31508006530201A4FF0000368F1000140F26D1255F081
S31508006540A9F985B205F26C7189B240F26C7059F0FE
S3150800655010FF01462846FD8059F01BFF40F26D13D7
S31508006560641A4FF00C014FF0000203FB05F568F1C1
S315080065700008641B04F101037B81104B68F10008D5
S3150800658001FB0030D3B2C35C511C9C4278F1000574
S3150800659007D2013400203A71FC70FE6088E70021BA
S315080065A0D8E7E31A1C460A4668F10008EAE700BF7E
S315080065B08033E101000000007FBD6879FC07080808
S315080065C02DE9F04F93B0CDE90A32DDE91C530E935D
S315080065D053EC102BCDE90801104619468DED060B34
S315080065E01E9E54F02FFF80B1DDE906014FF0FF3201
S315080065F0C54B54F04FFF40B9DDE906014FF0FF32B5
S315080066006FF4801354F028FF70B1DDE908019DEDA1
S31508006610060B0E9B1E96CDE91C53DDE90A3213B014
S31508006620BDE8F04F00F088B90022DDE90601002335
S3150800663054F012FF002800F03381DDE906A303F1C8
S31508006640004BCBF30A5016F48063A0F2FF3008BF64
S3150800665006250F9354F024FC9BA3D3E9002354F09A
S3150800666089FC9BA3D3E9002354F0CEFACBF3130499
S31508006670894644F07F5180460022A44B504641F497
S31508006680401154F0BFFA94A3D3E9002354F072FCE6
S3150800669002460B464046494654F0B6FA54F004FF03
S315080066A0044654F0FDFB8EA3D3E9002380468946B1
S315080066B054F060FC0022964B54F0A6FA54F0F4FE0F
S315080066C089A3D3E9002307464946404654F052FCBD
S315080066D080463846894654F0E3FB85A3D3E9002370
S315080066E054F048FC02460B464046494654F08AFA9E
S315080066F002460B46CDE90C2354F03CFCDDE90C239D
S31508006700804689461046194654F07EFA0022CDE99D
S315080067101001804B4046494654F056FD00227E4BF8
S3150800672054F072FA02460B464046494654F04CFD70
S3150800673000227A4B54F068FA02460B464046494610
S3150800674054F042FDDDE90C238046894600204FF0CF
S31508006750804154F057FA02460B464046494654F0E3
S3150800676053FA02460B46DDE9100154F02DFD07F2F7
S31508006770FF3700226A4B54F047FA00223B0554F0D3
S31508006780F9FB52465B468046894654F083FE00284C
S3150800679040F08980CDE90C8904F16303C72B34BF27
S315080067A00427052731051BD553A3D3E900235046F3
S315080067B0594654F065FE00287FD051A3D3E900233B
S315080067C05046594654F048FE002876D00027A54280
S315080067D0C6BF2C1B04F1FF3500253C4646F48066EF
S315080067E00E9B9F422CBF4FF00008A3EB070816F03C
S315080067F0020903D0002F18BF4FF000083CB1DDE9AD
S315080068000C235046594654F0DFFC82468B46DDE998
S3150800681006010022002354F01FFE10B10BF10043BD
S315080068209B46DDE9080126F40063CDE90183DDE92D
S315080068300A324BEC10AB009500F07EF802465FB3C7
S31508006840DDE9091316F0200F00F10105089E0CBFBB
S3150800685065204520B047DDE9080105230022059398
S315080068600A23002CCDE9023207F1FF374FEAD47329
S31508006870B8BF64422A46019304970A9B00945EF0C7
S3150800688010FF0246B9F1000F06D00B9BC41A0B9BEA
S315080068901A190E9BA34245D8104613B0BDE8F08FCF
S315080068A0DDE906ABCDE60022404649461A4B54F0D0
S315080068B08BFC013CCDE90C016EE7002D90D00F9BB7
S315080068C0002B8DD0013D8BE7FB799F501344D33FB6
S315080068D0B3C8608B288AC63F61436F63A787D23FD8
S315080068E071A379094F930A401655B5BBB16B02409F
S315080068F0EF39FAFE422EE63F2D431CEBE2361A3FED
S315080069000000000080842E41FFFFEF7F0000F83F63
S315080069100000E03F00002C40000024400000184022
S315080069200000F03F2020DDE90913089DA84701343F
S31508006930ADE700BF000000002DE9F04F97B05BEC13
S3150800694010ABDDE92057CDE90501CDE9072350460F
S3150800695052465B465946229E54F074FD70B903238D
S31508006960CDE902760193B04B0093DDE90501DDE937
S3150800697007235EF0B6FD17B0BDE8F08F4FF0FF3283
S315080069806FF480135046594654F066FD28B1042327
S31508006990CDE902760193A54BE6E74FF0FF32504664
S315080069A05946A34B54F076FD68B1A24A06F0040393
S315080069B0002B08BF0322A04B1CBF13460422CDE9B7
S315080069C002760192D0E7504693A3D3E900235946AD
S315080069D054F060FD38B992A3D3E9002350465946CE
S315080069E054F03AFD68B1DDE90723DDE905014BEC12
S315080069F010ABCDE92176209517B0BDE8F04FFFF72B
S31508006A00DFBD002200235046594654F025FD0028D4
S31508006A1000F09A805B4652460020002154F0F2F8B6
S31508006A20012382468B46099316F4806400F08E8013
S31508006A30092D40F28E80002430210EABA5F1090203
S31508006A400134202C03F8011BA5EB040901D094425C
S31508006A50F6D15946504654F027FD784B054603EBC8
S31508006A60C90393ED007B8DED0A7B54F019FA0246B3
S31508006A700B465046594654F0C5F8DDE90A2354F04A
S31508006A8079FA02460B46CDE90C2354F035FD8046CB
S31508006A9054F0F6F902460B46DDE90C0154F0B2F85B
S31508006AA002460B46CDE90C230022654B54F0F2FC56
S31508006AB0002851D008F10108404654F0E1F9024691
S31508006AC00B46DDE90A0154F0D1FC10B14FF000087D
S31508006AD00135B9F1000F50D1284654F0E1F90246C4
S31508006AE00B465046594654F08DF80022544B8046C2
S31508006AF0894654F0B1FC30B1002240464946504B15
S31508006B0054F0C8FC10B1E80700D501350A210EABD0
S31508006B101A19202C0AD095FBF1F001FB10553035D7
S31508006B2002F8015B013405460028F2D106F003029B
S31508006B30012A57D1002F55D0099A12B916F00C0F11
S31508006B4000D0013F302245E009906DE74FF0060975
S31508006B507FE7A94600247CE70022DDE90C01384BD3
S31508006B6054F07AFC0028B4D1B8F1000F02D018F01E
S31508006B70010FAED008F10108ABE70A210EAB23449A
S31508006B80202C0ED0B8FBF1F001FB1082B8F1090FEA
S31508006B9002F1300209F1FF3904F1010403F8012B6F
S31508006BA011D83021A1440EAA202CAFD0A14504F15A
S31508006BB001030AD11C4609F158030DEB03092E23DC
S31508006BC009F8203CA2E78046DAE7A1541C46EBE721
S31508006BD01A550134A74205D9202CF9D1CDE90276F8
S31508006BE00194C1E6202CF9D0099A3AB12D2104F175
S31508006BF058026A4402F8201C0134EFE7710704D5ED
S31508006C0004F158022B216A44F4E73207E6D504F169
S31508006C10580220216A44EDE70000000065CDCD4109
S31508006C200000000065CDCDC103190808071908083A
S31508006C30FFFFEF7FFA180808FF1808081019080858
S31508006C400000E03F00000000F0B5934C9FB022889A
S31508006C50A3780021ADF80C2013A82C228DF80E304D
S31508006C606DF038FC4FF00233159340F20B130AAD62
S31508006C700434ADF874300FCC0FC50FCC0FC523689C
S31508006C80864A2B60864B874D06930023CDE907334A
S31508006C9009934FF0FF33284683492B6028F01AFBE7
S31508006CA00446002853D12868431C06D140F2A44163
S31508006CB07E4B7F4A7F4806F02FFB03A928F048FB46
S31508006CC00446002843D128685EF01AFF7A4E7B4FA7
S31508006CD0307028685EF016FF387028685EF014FF7A
S31508006CE0774B78491870286828F0F8FB044600287E
S31508006CF02DD13378744E4BB974482CF0A7FD30600B
S31508006D00D0B940F2DC41724B694AD3E771482CF09E
S31508006D109DFD30600028EFD0C18928681FF018FE55
S31508006D203368214658682CF0CBFD044678B9674885
S31508006D302CF08CFD306090B1C18928681FF008FEE0
S31508006D403368042158682CF0BBFD044638B1234645
S31508006D5022210220604A5FF0EEFC1FB0F0BD0FF062
S31508006D60F1FB5E4BCDE9040104AAA3F1080112F870
S31508006D70010B03F8010D9942F9D13B78002B46D156
S31508006D80574928685EF073FE04460028DFD1554946
S31508006D9028685EF056FE04460028D8D1524928686D
S31508006DA01FF07EFC04460028D1D139A3D3E900237D
S31508006DB0CDE9002328685EF05CFE04460028C6D1AB
S31508006DC04A4A4B4928685FF015FB04460028BED19D
S31508006DD0484A494928685FF011FB04460028B6D19D
S31508006DE00121286828F0D2FA04460028AFD1A0234A
S31508006DF0424A06A8D380424A13600FF077FC414BFB
S31508006E00186088B940F225513F4B294A52E71C229F
S31508006E10002116A86DF05EFB286813A928F034FD3A
S31508006E2004460028ACD092E72246012108200FF03C
S31508006E30B7FD364B186020B94FF4A561344B1C4A90
S31508006E4038E72246012108200FF0AAFD314B1860C9
S31508006E5020B940F22B51304B154A2BE72F4A3049BF
S31508006E6030482EF023FB2F4848F080FF00212E489B
S31508006E700AAA0FF0EFFC2D4B186000287FF46DAFBF
S31508006E8040F237512A4B0A4A14E700BFAFF3008095
S31508006E90C88D01C103400000A89D0908AD35030847
S31508006EA0C3920908348E002048160120D892090892
S31508006EB0A99C090892900908D7040120D604012044
S31508006EC0D504012007001100F07D0020517C06083A
S31508006ED0FF9209083B7C06088A930908E00401200A
S31508006EE0A69D0908A49D0908388E0020D6170120FA
S31508006EF000190020D81701202C7E002088160120B2
S31508006F00A08E0020B48E002017930908B08E0020AA
S31508006F1033930908AC8E002050930908709309082A
S31508006F20693A0308548E0020D14B0308B88E002016
S31508006F3079930908000000002DE9F34705465A4CE5
S31508006F4022211020594A5FF0F6FB142229462046D2
S31508006F506DF067FBA27B564BDFF8A0A11A70637C25
S31508006F6000228AF800300023CDE90023DFF890815B
S31508006F7000224FF40073D8F800005EF07AFD06464A
S31508006F8020B10126304602B0BDE8F087494B4A4F8A
S31508006F901B787BB949482CF059FC04463C60FCB97F
S31508006FA0474A222102205FF0C6FB0122454B2126D3
S31508006FB01A70E7E7444B454C1A88454BD8F8000049
S31508006FC053F82210434A8B6821603B601FF052FB3E
S31508006FD02268414B946824221B8802FB0344DDE7A0
S31508006FE03E4B1C60394BD3F80090B9F1000F07D01F
S31508006FF000232420D9F80C108B4208D100251AE06A
S3150800700040F2ED71364B374A374806F085F9D9F81C
S31508007010085000FB0355EA695278120912F00E0F60
S315080070202BD0052A29D8314B0021EA89B3F900006B
S315080070303D602CF07DFC1AA3D3E90023CDE900239B
S31508007040D8F800005EF015FDD9F80820AA4207D046
S31508007050274B3A600421D289B3F900002CF068FC6A
S31508007060244BE2893C601A80234B1B783BB92DF0F0
S3150800707067FC01202DF0F2F884E70133BCE79AF8A3
S3150800708000301B0913F00E0FF1D101220721D8F8A1
S3150800709000005FF07DFA0028E9D072E7AFF30080C0
S315080070A0C88D01C103420000F47D00205F970908DE
S315080070B0CC040120D0040120F07D0020A939030862
S315080070C07B970908CE04012090970020E47D0020D4
S315080070D0CC100120B93503088E970020EC7D0020DE
S315080070E0B7970908679B090892900908DA170120DB
S315080070F0DC170120D0170120D6040120CB0401207B
S31508007100348E0020000000002DE9F84390F8E8616D
S31508007110054644683EB902202721414A5FF00BFB29
S315080071203046BDE8F88394F90130002B1ADA731E4D
S315080071305BB2637000EB431393F825302370A068A5
S3150800714053F0C0FE32A3D3E900238046894694F95A
S31508007150017054F09FF9F8B1002F1DDD013F00239F
S31508007160677024E09E42227805DD00EB431393F80E
S3150800717025309342E3D0002305F1250163705801B9
S31508007180085C904208BF637001339E42F7D8731EAD
S31508007190637000232371D2E740461FA3D3E9002377
S315080071A0494654F077F9F0B12379E3B1013B2371ED
S315080071B094F9013005F5F57005EB431393F825307E
S315080071C0237085F8EA31052395F8022285F8EC3113
S315080071D085F8F02100230E2285F8EB3185F8F22197
S315080071E085F8F1319DE740460BA3D3E900234946CC
S315080071F054F032F90028DBD023790133DBB2092BAE
S315080072002371D5D9013EBE42D2DD0137A7E700BFBB
S31508007210666666666666E63F9A9999999999B93F48
S31508007220225F0A08000000002DE9F8432DED028BC5
S3150800723087680546384616460C4653F043FE28A38B
S31508007240D3E900238046894654F024F988BB26A34F
S31508007250D3E900234046494654F0FEF860BBF7EEF2
S31508007260007A07EE107A87EE878A6B7F607F0122A5
S31508007270834224D0002149F013FA012204463146FC
S31508007280687F49F00DFA044404F2D5702860D8B135
S3150800729007EE900AF8EE677A9FED0D7A67EE887A20
S315080072A087EE270ABDEC028B10EE103AEB60BDE8BC
S315080072B0F8839FED088AD8E79FED078AD5E7314618
S315080072C0184649F0EDF9E1E79FED040AEAE700BF41
S315080072D000007A44E4388E3F00401C460000000057
S315080072E0CDCCCCCCCCCCEC3F9A9999999999B93F0D
S315080072F02DE9F74F064690F8E8010D469146A0B3EA
S315080073007468A3690133A361A37D06EB43131A7F4F
S3150800731002441A77D4E90732C3EB520207EE902AE1
S315080073204000B8EE677A07EE900AF8EEE76AF4EEE0
S31508007330C76AF1EE10FA0BD507EE903A37EE667A81
S31508007340F8EE677A77EE877AFCEEE77AC4ED077A85
S315080073504FF0000BD9450BD842F21073A2699A4236
S3150800736082BF0023C4E90633236203B0BDE8F08F69
S31508007370B5F802A02F79BAF1000F2ED0384653F08F
S315080073808FFDCDE90001504653F08AFD02460B46B3
S31508007390DDE9000153F018FF02460B4600204C4970
S315080073A053F030FC54F0C8F807EE100A96F803328A
S315080073B0AAEB0700034486F8033294F8243033B363
S315080073C094F825305B4522D1BAF1000F08D1C4F8EC
S315080073D020A00BF1010B0635BCE7B7EE007AE5E70E
S315080073E0E3690133E3612A78002AF2D0002398463C
S315080073F096F8E8C106F108019C450FD8B8F1000FC8
S3150800740014D127210220334A5FF095F9E1E72A785B
S31508007410002ADED0BAF1000FDBD0E7E791F81DE0CD
S315080074200133964508BF88462031E5E7002288F8EB
S315080074301420B8F81020D8F8043017440133BAB22B
S31508007440C8F80430A8F810701AB198F81D2086F804
S315080074501422F7EE007A012B77EEC77A8CBFB3EECB
S31508007460097A9FED1D7AB8F8122088BF67EE877AE9
S315080074700244A8F81220D8F808208CBF9FED177A86
S3150800748067EE877A06EE102ADFED156AE6EE077ACA
S3150800749087EEA67A17EE103A17EE100AC8F80830E3
S315080074A053F010FD08A3D3E9002353F0D5FF18B114
S315080074B0FF2388F815308CE798F91530013388D101
S315080074C00423F6E7AFF30080666666666666EE3FF7
S315080074D00000F03F425F0A0800004842000096425A
S315080074E00000C842000000002DE9F04F2DED028B88
S315080074F0054600274FF0200A4FF0080B0B460820D8
S315080075004D4A87B0884627215FF015F995F8E83186
S3150800751027210820494A5FF00EF96C6805F108062C
S31508007520E37D23716371637595F8E891B9450DDCC0
S315080075303FA7D7E900674FF00008AA46C346C145EA
S3150800754046D807B0BDEC028BBDE8F08FE17D424618
S315080075501AFB01B130462944FFF766FE96F81D90DE
S315080075600495F06853F0AEFCCDE90201B06853F01B
S31508007570A9FC4B46CDE90001314A272108205FF0D6
S31508007580DAF82379D6ED037A05EB431292ED057AFC
S31508007590F4EEC77AF1EE10FA02DB327F22710EE0C2
S315080075A017B995F82420F9E7637905EB431393EDAA
S315080075B0057AF4EEC77AF1EE10FA04DB337F6371CD
S315080075C001372036B0E7012FFAD195F84430F6E7AF
S315080075D0E37D434515D09AED048A18EE100A53F058
S315080075E071FC32463B4653F04BFF10B9BBF1000F16
S315080075F00CD19AF8243022799A4202D062799A42BA
S3150800760011D108F101080AF1200A98E7637D05EB14
S315080076104313D3ED047AB4EEE78AF1EE10FAE8DA0A
S315080076204FF0010BEDE76375FAE700BFAFF3008093
S31508007630666666666666EE3F5A5F0A087C5F0A08F3
S315080076408B5F0A08000000002DE9F047D0F8048097
S3150800765000EB411393F8245098F817300446AB42D0
S315080076602DD098F81530AB4229D000EB411ADAF83C
S3150800767010004FEA411953F025FC13A3D3E9002360
S3150800768006460F4653F0F2FE10B99AF91D00A0B14E
S3150800769098F80430AB4212D098F80530AB420ED0B9
S315080076A009A3D3E900233046394653F0F3FE18B14F
S315080076B04C44637F013B63770120BDE8F0870020D7
S315080076C0FBE700BFAFF30080666666666666EE3F58
S315080076D02DE9F34704460E46456827210820804AC7
S315080076E05FF029F820463146FFF7FEFE28466BF084
S315080076F0E4FE002800F0BA8020466BF0F1FE061E74
S31508007700C0F2B48094F8E8319E4280F2AF8004EB70
S315080077104617334627210820724A5FF00CF82721BE
S31508007720082097F82530704A5FF005F8012295F889
S3150800773004C085F8242004EB4C13386A196A884279
S3150800774097F8250002D8397F322977D9012284F89B
S31508007750EC21002284F8EA0184F8EB21A97D29703E
S3150800776093F8251084F8F01193F8263084F8F1215F
S3150800777084F8F231697D85F801C004EB411393F86A
S315080077802500012684F8F60193F8263084F8F831A6
S31508007790002384F8F731A97085F82520A04605F15D
S315080077A0FF3904F1120A19F8013F5F1C002E00F098
S315080077B0898004EB4313186953F084FB02460B4691
S315080077C0CDE9002342A3D3E9002353F063FE40B971
S315080077D041A3D3E90023DDE9000153F03DFE00286B
S315080077E070D004EB4717BB79042B8EBF02230133F5
S315080077F0C3F3460388F8EC3108F10608C245D2D12E
S31508007800EA7D04F5F57004EB421393F8253084F805
S31508007810FC31002384F8FD31EA7085F8243094F8A9
S31508007820F22194F8EC31134494F8F821C3F11303C8
S315080078309B1A84F8FE3102B0BDE8F08793F82570EC
S31508007840697D84F8EA7193F8263084F8EC310023D0
S3150800785084F8EB3185F800C084F8F13184F8F0013A
S3150800786084F8F22104EB41136E7088E700262A7922
S3150800787004EB421393F8251084F8EA1193F826309E
S3150800788084F8EB6184F8EC312A706A7904EB4213C8
S3150800789093F8251084F8F01193F8263084F8F161EE
S315080078A084F8F2316A706A7D04EB421393F8251066
S315080078B084F8F61193F8263084F8F76184F8F831DD
S315080078C0AA706BE704EB4717BB7993E7AFF3008021
S315080078D0666666666666EE3F9A9999999999B93F7A
S315080078E0AF5F0A08BD5F0A08CD5F0A0800000000FE
S315080078F02DE9F8432DED028B87680546384616466E
S315080079000C4653F0DFFA2EA3D3E9002380468946B6
S3150800791053F0C0FD00283DD12BA3D3E900234046F0
S31508007920494653F099FDC0BBF7EE007A07EE107A88
S31508007930AB7F87EE878A07EE903AB8EEE77AB4EE21
S31508007940C87AF1EE10FA01D5B8EE678A6B7F607FC8
S315080079500122834224D0002148F0A2FE01220446D7
S315080079603146687F48F09CFE044404F2D5702860CE
S31508007970D8B107EE900AF8EE677A9FED0D7A67EEB2
S31508007980887A87EE270ABDEC028B10EE103AEB6078
S31508007990BDE8F8839FED078AD8E79FED078AD5E704
S315080079A03146184648F07CFEE1E79FED040AEAE70F
S315080079B000007A44E4388E3F00401C460000000070
S315080079C0CDCCCCCCCCCCEC3F9A9999999999B93F26
S315080079D02DE9F04F2DED028B90F8E83105460E465D
S315080079E0934689B0002B00F0238127210820964A68
S315080079F05EF0A1FE00226C68A1690131A16195F8CB
S31508007A00E80190423DD8D4E907230A277943642739
S31508007A10B1FBF7F1C2EB53030B4407EE903A430070
S31508007A2006EE903AF8EE677AF8EEE66AF4EEE76A5A
S31508007A30F1EE10FA0BD507EE102A77EEE67AB8EED5
S31508007A40477A77EE277AFCEEE77AC4ED077A0027BD
S31508007A50B846BB451DD8B8F1010F00F0E680B8F16D
S31508007A60130F40F2B9800023A3612721082095F857
S31508007A700332764A09B0BDEC028BBDE8F04F5EF0E2
S31508007A805ABEA37D013205EB43131F7F01371F77CB
S31508007A90B7E7B6F8029096F804A0B9F1000F41D0FE
S31508007AA0504653F0FDF9CDE90601484653F0F8F97A
S31508007AB002460B46DDE9060153F086FB02460B46F5
S31508007AC00020634953F09EF853F036FD08EE100A7D
S31508007AD0337818EE100A0693049553F0F3F9069BCB
S31508007AE0CDE902015B4A27210820CDE9009A5EF01C
S31508007AF022FE7288337995F80312D31A0B4485F857
S31508007B00033294F82430C3B194F82530BB4214D11B
S31508007B105AB92262272108204F4A5EF00CFE013727
S31508007B20063696E7B7EE008AD2E7E36927210133DE
S31508007B3008204A4AE3615EF0FEFDB6F802A0BAF1F3
S31508007B40000FECD00023E25D05EB4211C8680B7705
S31508007B500130C86096F804C00B8B4FEA421963449B
S31508007B609BB20B831BB191F8253085F81432F7EEDA
S31508007B70007A05EB0902538B01285344A3EB0C0347
S31508007B8077EEC87A53830DD9B2EE0E7AD2ED046A2F
S31508007B9027EE877ADFED327AA6EEA77ADFED316A2D
S31508007BA0C7EE267AA944C9ED047A17EE900A53F06F
S31508007BB089F923A3D3E9002353F04EFC30B1FF2300
S31508007BC089F81D30C2441FFA8AF8A8E799F91D30CA
S31508007BD00133F7D10423F3E7B8F1020FD4ED0B7A9A
S31508007BE0B1EE047A15D977EE877AB3EE047AF4EE15
S31508007BF0477AF1EE10FA77FE277A42F21073A269F5
S31508007C00C4ED0B7A9A4282BF0023C4E90633236285
S31508007C102BE7F2EE046A77EEE67AF4EE477AF1EEAF
S31508007C2010FA48BFF0EE477AE7E7DFED0F7AE4E7A8
S31508007C3009B0BDEC028BBDE8F08F00BFAFF3008042
S31508007C40666666666666EE3F12600A0878600A0827
S31508007C500000F03F28600A0859600A0868600A08A8
S31508007C600000AA420000C842000000000000000010
S31508007C702DE9F84F2DED028B0546884600274FF073
S31508007C8020094FF0080B446800F10806E37D2371CC
S31508007C906371637595F8E8A1BA450CDC0FF2D00953
S31508007CA0D9E9008900262F46B346B24532D8BDEC3D
S31508007CB0028BBDE8F88FE17D424619FB01B13046DB
S31508007CC02944FFF715FE2379D6ED037A05EB43120F
S31508007CD092ED057AF4EEC77AF1EE10FA02DB327FFE
S31508007CE022710EE017B995F82420F9E7637905EBB8
S31508007CF0431393ED057AF4EEC77AF1EE10FA04DB36
S31508007D00337F637101372036C4E7012FFAD195F81E
S31508007D104430F6E7E37DB34215D097ED048A18EEB2
S31508007D20100A53F0CFF842464B4653F0A9FB10B958
S31508007D30BBF1000F0AD197F8243022799A4202D073
S31508007D4062799A420FD101362037AEE7637D05EB9B
S31508007D504313D3ED047AB4EEE78AF1EE10FAEADAC1
S31508007D604FF0010BEFE76375FAE700BFAFF300804A
S31508007D70666666666666EE3F2DE9F047456890F8E2
S31508007D80E821AB690446B3EB420F2ED900EB411349
S31508007D9093F82480EB7D43452AD06B7D434527D055
S31508007DA000EB411ADAF810004FEA411953F08AF845
S31508007DB011A3D3E9002306460F4653F057FB10B923
S31508007DC09AF91D0090B12B79434511D06B7943453B
S31508007DD00ED009A3D3E900233046394653F05AFB9F
S31508007DE018B14C44637F013B63770120BDE8F087F7
S31508007DF00020FBE7AFF30080666666666666EE3FC0
S31508007E000348044B834202D0034B03B1184770471B
S31508007E101C2401201C24012000000000064B0749F1
S31508007E20C91A891048BF0131491003D0044B0BB158
S31508007E3001481847704700BF1C2401201C24012054
S31508007E400000000010B5064C237843B9FFF7D8FFA9
S31508007E50044B13B10448AFF300800123237010BD0F
S31508007E60A09700200000000024780A0808B5054BF2
S31508007E701BB105490548AFF30080BDE80840FFF788
S31508007E80CDBF00BF00000000E022002024780A08C9
S31508007E90A3F5803A704700BF174B002B08BF134B5A
S31508007EA09D46FFF7F5FF00218B460F461348144AF7
S31508007EB0121A6CF00FFB0E4B002B00D098470D4B97
S31508007EC0002B00D098470020002104000D000D4823
S31508007ED0002802D00C48AFF3008054F0E5F92000E2
S31508007EE0290058F004FA53F065FE00BF00000800A8
S31508007EF000000000000000000814002008140020FC
S31508007F00D80D0120000000000000000008B504F0AC
S31508007F109BFC0022084BC3E90001084BC3E900019A
S31508007F20074B08491A8000220023C1E900230649A5
S31508007F30C1E9002308BD00BF881400208014002072
S31508007F407E97002078140020701400202DE9F04F49
S31508007F509BB000AF00233149314A04460D4692468C
S31508007F6018460133DBB2082B01F8010B02F8010BA6
S31508007F70F7D107F10B005EF092FD18B181B22948DE
S31508007F801EF08EF86A46FB7A07F10B00A2EBC303D4
S31508007F909D4669466E465EF097FD18B181B2224845
S31508007FA01EF07EF84FF00008FA7A5FFA88FB5A4509
S31508007FB008D820462B686C3723606B686360BD461B
S31508007FC0BDE8F08F06EBCB094FEACB0307F10C01AE
S31508007FD048467B605EF091FDF96A49B913494846FF
S31508007FE05EF08BFD56F83B102960D9F804106960DD
S31508007FF0F96A01290ED148460D495EF07EFD7B6877
S315080080003344994656F83B30CAF80030D9F804305C
S31508008010CAF8043008F10108C6E700BF59A00020D5
S3150800802051A00020C870070801710708B4A90020EC
S315080080305BA9002013B56846FFF788FF084C094A74
S315080080402146D379084892791EF03EF82146074A18
S315080080500748D379927902B0BDE810401EF034B8CB
S315080080603571070859A0002040A9002051A000201A
S3150800807038A900202DE9F043A7B02E4C21AE2046A2
S315080080805EF09AFD54F017FC2B49024630461EF066
S315080080901BF8FFF7CFFF294B2088D3E900120131DF
S315080080A042F10002C3E90012254B264D5F89264B93
S315080080B01E93264BD3E90A89CDE91C89D3E9088999
S315080080C0CDE91A89D3E90689CDE91889D3E904895E
S315080080D0CDE91689D3E90289CDE91489A378CDE9D2
S315080080E00F07CDE91173CDE90C12194B0E900A96BC
S315080080F093F844204FF48061099293F84520284666
S315080081000892B3F840200792DA8F06929B8F114A9D
S315080081100593114B0493114B0393114B0293114B87
S315080081200193114B0093114B1DF0E2FF284627B02F
S31508008130BDE8F0830DAA0020C0A70908681400202E
S31508008140EC23002069A40020D4A8002008140020ED
S31508008150B4A900204C71070840A9002011AA0020E4
S315080081606BA80020A672070848A9002019A00020BD
S315080081702DE9F04FF9B0239054F09DFBDFF8989263
S3150800818002468E4925A81DF09FFFFFF753FF484674
S315080081905EF036FC8A485EF00FFD8A4C3EA9042044
S315080081A05EF0E4FB01205BA95EF0E0FBD4E9003257
S315080081B0013342F10002C4E9003299F80030DFF8D1
S315080081C05CA2052B2AAD2FAE34AF40F0A58004F093
S315080081D03BFB7D4ADFF848B2D2E90032B0EB030830
S315080081E061EB02094946404604F008FB734902461A
S315080081F028461DF069FF754930461DF065FFDAE926
S31508008200000118EB000049EB010104F0F7FA6B498D
S31508008210024638461DF058FFDBE9000104F0EEFA85
S315080082206649024639A81DF04FFFDAE90001DBE985
S31508008230003218EB000049EB010110EB030A41EB91
S31508008240020B5AEA0B0340F0A4806148614B1B6895
S315080082502193614B1B682093499B1F93459B1E9353
S315080082609DF8B4311D935C9B1C93639B1B935D9B8C
S315080082701A93669B1993524B9B78189339ABCDE9A1
S31508008280167352F01FFECDE91401544B1B88139345
S31508008290534B1B881095CDE91163524D686852F00F
S315080082A0EFFD64230646E8680F46B0FBF3F052F08C
S315080082B0E7FD02460B463046394652F085FFCDE9C2
S315080082C00E01D4E90023CDE90C2325AB0B93464BCD
S315080082D04FF4806193F8442044480A9293F8452065
S315080082E00992B3F840200892DA8F07929B8F404A8A
S315080082F00693404B0593404B0493404B0393404BE6
S315080083000293404B0193404B0093239B1DF0F0FED4
S31508008310364879B0BDE8F08F04F096FA3B4AD2E9C0
S315080083200032B0EB030861EB020B284699F80020EF
S3150800833037491DF0C9FE5946404604F05FFA1F4901
S31508008340024630461DF0C0FEDAE9000104F056FA8E
S31508008350DFF8CC900246194938461DF0B5FED9E932
S31508008360000118EB00004BEB010104F047FA134932
S31508008370024639A81DF0A8FEDAE90001D9E900325B
S3150800838010EB030A41EB02031AEB080A4BEB030B4B
S3150800839057E752F0B9FD00221E4B52F0EBFD80461E
S315080083A089465046594652F0AFFD02460B464046AE
S315080083B0494652F009FF53F0BFF847E7C0A7090836
S315080083C00DAA00206814002088140020AB72070844
S315080083D00000C84244230020402300207C97002048
S315080083E07E97002048230020B4A9002069A4002015
S315080083F0C272070840A9002011AA00206BA8002015
S31508008400A672070848A9002019A000208014002099
S31508008410AE7207080000594069A8002078140020A9
S315080084207014002037B5604901205EF027FA05462A
S315080084305E495D4808F020FC5D4C002D00F09C80EC
S315080084404FF480615B4A20681DF052FE54F033FAFF
S3150800845023680246584900205DF043FA54F02BFA87
S315080084602268014654481DF01BFE4FF48061534AAA
S31508008470ABB220681DF03CFE002021685DF031FAA1
S3150800848020681DF00DFE4FF480614D4B4D4A206863
S315080084901DF02EFE54F00FFA2368024646490020C6
S315080084A05DF01FFA54F007FA2268014642481DF0AB
S315080084B0F7FD43486CF0C2F8434A0146404855F078
S315080084C0FAF84249404808F0D7FB40F2D5430093F2
S315080084D04FF480613D4B3E4A20681DF009FE54F07A
S315080084E0EAF923680246344900205DF0FAF954F0A7
S315080084F0E2F92268014630481DF0D2FD4FF480614A
S31508008500344B354A20681DF0F3FD54F0D4F923683E
S315080085100246294900205DF0E4F954F0CCF92268B6
S31508008520014625481DF0BCFD2A486CF087F82B4A01
S315080085300146284855F0BFF82949284808F09CFB09
S3150800854041F2356300934FF48061254B254A206834
S315080085501DF0CEFD54F0AFF92368024616490020F7
S315080085605DF0BFF954F0A7F92268014612481DF0DC
S3150800857097FD284603B030BD4FF480610B4B1A4A6D
S3150800858020681DF0B5FD54F096F9236802460A499D
S3150800859028465DF0A6F954F08EF922680146064889
S315080085A01DF07EFD6FE700BF41A0002019A0002046
S315080085B0A0240020641008085D750708657507087B
S315080085C0C5750708D77507082C230020C99F002002
S315080085D0F2750708197607082B7607080C2300207A
S315080085E0A19F002047760708A2750708F8B5FFF788
S315080085F019FF03220221002027F030FE514A411CB0
S315080086000346514C106023D14FF480614F4A2068CD
S315080086101DF06EFD54F04FF9236802464C490020C0
S315080086205DF05FF954F047F92268014648481DF0A5
S3150800863037FD484A4FF4806120681DF059FD2168CE
S3150800864000205DF04EF920681DF02AFD0120F8BDD6
S315080086504FF48061404A20681DF04AFD54F02BF91A
S31508008660236802463A4900205DF03BF954F023F9A5
S31508008670002501462268394E35481DF011FD40F2A5
S31508008680D54035605EF064F80322B08002212846A2
S3150800869027F0E4FD324E421C0346306016D14FF4F3
S315080086A080612A4A20681DF023FD54F004F92368E6
S315080086B00246274928465DF014F954F0FCF822686A
S315080086C0014623481DF0ECFC264AB3E74FF48061C7
S315080086D0254A20681DF00CFD54F0EDF82368024683
S315080086E01B4928465DF0FDF854F0E5F81F4F014692
S315080086F0226817481E4C1DF0D3FC41F235602560F0
S315080087005EF026F833683E46A08046F8043B0FCC58
S315080087100FC694E80F0086E80F0041F20303FB84B6
S315080087203223BB6242F22A3312484FF48061BB857A
S31508008730B86355F009FA7D63F88587F8245028460A
S315080087403D6484E7FC220020A02400206410080869
S315080087505D7507086E760708A476070820230020AB
S31508008760F8220020D47607080B7707085C1001204A
S31508008770002300203B77070873B53C4D4FF4806112
S31508008780E86355F0E1F9288605F1240054F0D0FD98
S31508008790064654F0B6FD0446E8B9354D009640F253
S315080087A00F534FF48061334A28681DF0A1FC54F03A
S315080087B082F82B680246304920465DF092F854F05C
S315080087C07AF82A6801462C481DF06AFC40F21155D1
S315080087D0284602B070BD05F1240154F0ABFD00280F
S315080087E01CDA234D40F214534FF48061234A28685B
S315080087F01DF07EFC54F05FF81F4902462B680020E6
S315080088005DF06FF854F057F82A6801461A481DF0CB
S3150800881047FC0025204654F080FDD9E72023019324
S31508008820174B3246009321460023286827F086FD19
S315080088300130EED12B680E4E00934FF4806140F262
S315080088401D53104A30681DF053FC54F034F8336851
S315080088500246094900205DF044F854F02CF83268C5
S31508008860014605481DF01CFC3125D3E75C100120A4
S31508008870A02400204E7707085D7507088E7707083D
S3150800888000230020C87707082DE9F04385B0054680
S315080088901C469DF830609DF83470002A00F08B80E5
S315080088A0002974D054F007F801466E481DF0F8FB0D
S315080088B028461DF0F5FB002C40F095800124002E7B
S315080088C03BD02B464FF48061674A68481DF010FC80
S315080088D020230193664BDFF8C491009386B20023E8
S315080088E032466249D9F8000027F028FD01307ED1CA
S315080088F040F2D54302935F4B03960193D9F80030B3
S31508008900DFF8808100934FF4806140F244535A4A5D
S31508008910D8F800001DF0ECFB53F0CDFF574902468E
S31508008920D8F8003000205CF0DCFF53F0C4FFD8F81C
S315080089300020014651481DF0B3FB27B32B464FF4E0
S315080089408061494A4E481DF0D3FB83B2B3F5806F68
S3150800895050D94FF480614B4D019100934A4A40F239
S315080089604D5328681DF0C4FB53F0A5FF4349024642
S315080089702B6800205CF0B5FF53F09DFF2A6801467E
S315080089803E481DF08DFB204605B0BDE8F0831DF07E
S3150800899087FB002C92D00124DFF8E8802A464FF4A2
S315080089A08061D8F800001DF0A3FBD8F8001000205D
S315080089B05CF097FF15E0002B81D0B1B11446DFF8C3
S315080089C0C4802A464FF48061D8F800001DF090FB59
S315080089D053F071FFD8F800300246284900205CF0B1
S315080089E080FF01346BE70124E9E70C46D4E701343C
S315080089F0E4B2A2E72248FFF7BFFE064610B90134E3
S31508008A00E4B2C0E71F4D4FF48061204A28681DF084
S31508008A106FFB53F050FF2B680246184900205CF0A4
S31508008A2060FF53F048FF2A68014614481DF038FBDA
S31508008A3041F235630293164BB6B20193154B039672
S31508008A401B68154A00934FF4806140F25153286819
S31508008A501DF04EFB296800205CF043FF28681DF0D6
S31508008A601FFB90E7F6770708C0A70908A19B002017
S31508008A7020230020C99F0020FC7707085D7507089A
S31508008A80A1970020A02400205A7807086410080837
S31508008A90A19F0020F8220020C6780708FC220020A3
S31508008AA02DE9F04F8DB003F031FEC44B4021186814
S31508008AB054F09CFFC24C0546002800F0D98283B2C8
S31508008AC04FF48061BF4A20681DF012FB53F0F3FE95
S31508008AD0024600202368BC495CF003FF53F0EBFE16
S31508008AE022680146B8481DF0DBFA02F0F9FE782341
S31508008AF0B64D2B8104F09CFCB5486BF09FFDD0B1B8
S31508008B00EB880133EB8002F0A9FE4FF48061B04B8D
S31508008B10B04A20681DF0ECFA53F0CDFEAA49024689
S31508008B20236800205CF0DDFE53F0C5FE226801468E
S31508008B30A5481DF0B5FA4FF47A706DF064FDA64E9F
S31508008B40A6481DF0ADFAA64FA64AA749A7481DF0A4
S31508008B50BBFA64213046A64BA34A1DF0C9FA4FF466
S31508008B608061A24BA34A0196206800971DF0C0FABF
S31508008B7053F0A1FE23680246934900205CF0B1FE3B
S31508008B8053F099FE226801468F481DF089FA9A4BE0
S31508008B9050219A4A00939A489A4B1DF0A9FA4FF425
S31508008BA08061924B984A20681DF0A2FA53F083FE22
S31508008BB023680246844900205CF093FE53F07BFE4E
S31508008BC02268014680481DF06BFA3B464FF48061E7
S31508008BD08D4A20681DF08CFA53F06DFE2368024614
S31508008BE0794900205CF07DFE53F065FE2268014657
S31508008BF075481DF055FA33464FF48061824A20685D
S31508008C001DF076FA53F057FE236802466E49002097
S31508008C105CF067FE53F04FFE226801466A481DF075
S31508008C203FFA4FF48061764B774A20681DF060FA68
S31508008C3053F041FE23680246634900205CF051FE6A
S31508008C4053F039FE226801465F481DF029FA4FF4B1
S31508008C5080616E4B6E4A20681DF04AFA53F02BFE6F
S31508008C6023680246584900205CF03BFE53F023FE79
S31508008C702268014654481DF013FA0120266808F0B8
S31508008C808FF84FF480610346624A30461DF030FA89
S31508008C9053F011FE236802464B4900205CF021FE82
S31508008CA053F009FE2268014647481DF0F9F90223E8
S31508008CB04FF48061584A20681DF01AFA53F0FBFDFC
S31508008CC023680246404900205CF00BFE53F0F3FD92
S31508008CD0226801463C481DF0E3F90121032003F010
S31508008CE0CDFA012203211A2003F0F0FA0122042109
S31508008CF0102003F0EBFA01222220114603F0E6FACF
S31508008D00012204210B2003F0E1FA01222520114655
S31508008D1003F0DCFA01221D20114603F0D7FA0122DE
S31508008D200221002003F0D2FA01220221282003F0B2
S31508008D30CDFA3A4B4FF480612B4A39481DF0D8F9E1
S31508008D404FF48061374A20681DF0D2F953F0B3FD1D
S31508008D50236802461C4900205CF0C3FD53F0ABFDB6
S31508008D602268014618481DF09BF94FF480612E4A87
S31508008D7020681DF0BDF953F09EFD2368024612498E
S31508008D8000205CF0AEFD53F096FD226801460E48C1
S31508008D901DF086F94FF48061244B254A20681DF0A2
S31508008DA0A7F953F088FD23680246074900205CF0BE
S31508008DB098FD53F080FD226801463BE0FC10012037
S31508008DC0A0240020307907085D750708EC230020E9
S31508008DD03AD6002091790708D4A80020641008081C
S31508008DE0D5790708A6720708C0A7090850A9002060
S31508008DF0AD790708CB790708FF790708EA790708E4
S31508008E0084A80020DE790708C1750708087A0708CC
S31508008E10177A0708237A0708347A07082C0C0808F3
S31508008E2069A000204A7A0708617A07087B7A07084A
S31508008E308B7A070899481DF033F94FF48061984BEF
S31508008E40984A20681DF054F953F035FD2368024608
S31508008E50924900205CF045FD53F02DFD226801463D
S31508008E608E481DF01DF94FF480618F4A20681DF069
S31508008E703FF953F020FD23680246884900205CF03C
S31508008E8030FD53F018FD894E0146226883481DF0CF
S31508008E9007F930465DF0D9FD304608F075F8844983
S31508008EA0024684481DF010F9F379B279824983485D
S31508008EB01DF00AF94FF480617E4B814A20681DF047
S31508008EC017F953F0F8FC23680246744900205CF051
S31508008ED008FD53F0F0FC2268014670481DF0E0F8E2
S31508008EE04FF48061754B774A20681DF001F953F0FD
S31508008EF0E2FC23680246694900205CF0F2FC53F064
S31508008F00DAFC2268014665481DF0CAF86E496F48C2
S31508008F101DF0DAF84FF480616C4B6D4A20681DF03D
S31508008F20E7F853F0C8FC236802465C4900205CF069
S31508008F30D8FC53F0C0FC2268014658481DF0B0F82A
S31508008F402B7B53B96349942006F040FA9520614972
S31508008F5006F03CFA012002F09DF85F498B2006F0E6
S31508008F6035FA02F0FDFA6B7BE3B12E7B002E40F05A
S31508008F708C8001205DF063FE4FF480616B7B574A5D
S31508008F8020681DF0B5F853F096FC4449024623685C
S31508008F9000205CF0A6FC53F08EFC226801463F4890
S31508008FA01DF07EF84FF480612B894D4A20681DF02C
S31508008FB09FF853F080FC23680246384900205CF08D
S31508008FC090FC53F078FC2268014634481DF068F896
S31508008FD068895DF089FE4FF480616B89414A206893
S31508008FE01DF086F853F067FC236802462B490020DB
S31508008FF05CF077FC53F05FFC2268014627481DF0B9
S315080090004FF803F0C7F903F049FC03F01DFC364B93
S31508009010DFF8D8B0C3E9000104F080FDDFF8DC8092
S31508009020DFF8DC9003F010FC074630480E465DF08A
S31508009030E7FC9BF80030052B64D03C220023384619
S31508009040314652F027FC1A430BD153F034FC014643
S3150800905040461DF025F849469BF8002024481DF097
S315080090601FF803F0EDFC4FF47A706DF0CCFAD9E7EF
S315080090704FF480611F4A20681DF03AF853F01BFC34
S31508009080236802460549284626E54FF480611A4AB0
S31508009090206800961DF02CF875E700BF5D75070877
S315080090A0A37A0708B37A0708CB7A070861A00020D5
S315080090B0C0A7090811AA00203571070848A9002089
S315080090C0E47A0708F37A0708027B07086BA80020EA
S315080090D01A7B0708E9B10008C99300082A7B070824
S315080090E06A7B07088B7B07089014002069A8002074
S315080090F0A47B070868790708387B0708F677070806
S31508009100087A070803F0A0FBCDE906010121032030
S3150800911003F0B4F801222220114603F0D7F8012201
S315080091200B20114603F0D2F801222520114603F040
S31508009130CDF801221D20114603F0C8F801220221AC
S31508009140002003F0C3F801220221282003F0BEF80C
S31508009150FFF74CFA4523814A814982481CF0A0FF53
S3150800916008A901205DF08AFB7F481CF099FF08A832
S3150800917007F0F4FD0126002701467C481CF0A4FFF1
S3150800918041F233627A4B79497A481CF089FF7A486A
S315080091901CF086FF41F23362754B744977481CF020
S315080091A07FFF0A2176481CF07BFF41F23362754B3C
S315080091B06A4975481CF074FF74481CF071FF41F247
S315080091C03362704B654972481CF06AFF71496748FB
S315080091D000F0BAFB7048FEF74DFF3346324631467B
S315080091E0CDE90067FFF750FB6C486BF027FA38B1FA
S315080091F0334632463146CDE900676848FFF744FBF7
S3150800920001264FF0000A664813F026F9654BDFF889
S31508009210B0911E7003F018FB069BC31A0493079BB4
S3150800922061EB030305939BF80030052B2DD103F062
S31508009230F3F9012703F004FCDDE9040100232A8978
S3150800924052F028FB1A4324D099F8003033BBDDE9E5
S31508009250040100232A8952F01DFB013A1A4308BF6C
S315080092600126DDE904010522002352F013FB53EA27
S3150800927002016CD14B4F3B7823B1494813F0ECF807
S3150800928087F800A053F097FBC4E703F0D9FB002743
S31508009290D2E71EB999F80060002EE2D0DFF82481E3
S315080092A04148424A43464021006854F055FB3F4A2C
S315080092B000283ED1D2ED007AB2EE047AF8EE677A4B
S315080092C0C7EE877A17EE900A51F0FCFDCDE9020148
S315080092D0D8ED007A9FED367AF8EEE77AC7EE877A08
S315080092E017EE900A51F0EEFD324ACDE900014FF42F
S315080092F0806120681CF0FCFE53F0DDFA2368024604
S315080093002D4900205CF0EDFA53F0D5FA22680146A3
S3150800931029481CF0C5FE2048FEF72AFF0123CDE99F
S3150800932000771A461946FFF7AFFA002689F800A013
S315080093308DE74FF0FF31C2F800A0C8F8001083B2DD
S315080093404FF480611D4A20681CF0D2FED4E7013A2A
S315080093501A4302BF0122134B1A7093E7D17B070801
S31508009360DD7B0708F07B0708327C070819A0002078
S315080093704C7C0708557C0708987C0708CF7C0708AB
S31508009380067D0708377D0708477D0708957D070886
S31508009390D07D0708F19F00202C0C08083AD600203B
S315080093A04823002058A90020FC100120442300204F
S315080093B000007A44067E07085D7507082D7E0708B3
S315080093C059A90020402300202DE9FF478268CA4D8D
S315080093D0D2B2052A2A7000F2FB81C84E33889A4217
S315080093E000F0F681C64C00924FF48061C54A2068A9
S315080093F01CF07EFE53F05FFA23680246C24900203D
S315080094005CF06FFA53F057FAC04F01462268BE481F
S315080094101CF046FE95F800803B78434508F1FF337B
S3150800942088BF87F80080042B35D803F00DFADFF8DB
S31508009430ECC22B780CEBC808C8E90001581E5CF88A
S3150800944033200CEBC00E5CF830000CEBC301121A8B
S31508009450DEF804C04968AE4861EB0C0100EBC30CAA
S3150800946040F83320CCF80410CDE900214FF4806190
S31508009470A84A20681CF03CFE53F01DFAA249024691
S31508009480236800205CF02DFA53F015FA226801468D
S315080094909D481CF005FE2B78052B40F0A2809E49BE
S315080094A09E4ADFF8A492D2E90A3C0A88C9E9003C38
S315080094B0013292B20A80397803299FBF98480188F9
S315080094C0013101800521012A39702068954F40F045
S315080094D08281CDE9003C4FF48061934A1CF008FE76
S315080094E053F0E9F923680246874900205CF0F9F948
S315080094F053F0E1F92268014683481CF0D1FD0023A8
S315080095001A46DFF85082C7E9003240466BF096F8F3
S31508009510864B87B295F80090188053F0CCF9C7F5BA
S3150800952080614B46824A009008EB07001CF0E0FD7C
S31508009530276895F8008053F0BEF943464FF48061DA
S315080095407B4A009038461CF0D3FD53F0B4F92368E3
S3150800955002466D4900205CF0C4F953F0ACF9226864
S31508009560014669481CF09CFD02A8FEF7EFFC714F06
S31508009570029B71493B60039B70487B60FB79BA7913
S315080095801CF0A2FD6E4B1B684BB16E48FEF772FDD0
S3150800959001231A461946CDE90033FFF775F901216B
S315080095A0032002F06BFE01222220114602F08EFEF5
S315080095B001220B20114602F089FE012225201146C0
S315080095C002F084FE01221D20114602F07FFE0122D0
S315080095D00221002002F07AFE01220221282002F050
S315080095E075FE3388052B40F0F1804C4F4FF000098B
S315080095F0BA46B84603F028F9EAE80201287809F1DC
S3150800960001094845F6DA4FF0000CDFF804E13B465D
S31508009610BA68D9680CF1010CD3E90093B2EB0902D8
S3150800962061EB03034EF8082F604507F10807CEF8EB
S315080096300430ECDA08EBC00258F830305268DFF82C
S315080096401881414FC8E90032D7E900011B1A62EBBD
S315080096500102CDE900324FF480613C4A20681CF0D3
S3150800966047FD53F028F923680246274900205CF095
S3150800967038F953F020F92268014623481CF010FDFA
S31508009680D8E90032DFF8D4C0DFF8C880DCE9000189
S315080096901B1842EB0102D7E900105B1A62EB0002C5
S315080096A04046CCE900326AF0C9FF204B87B295F8EC
S315080096B00090188053F0FFF8C7F580614B46244A9E
S315080096C0009008EB07001CF013FD276895F800804A
S315080096D053F0F1F843464FF480611D4A009038462E
S315080096E01CF006FD53F0E7F82368024606490020F9
S315080096F05CF0F7F834E000BF69A8002078970020EE
S31508009700A02400205E7E07085D7507085AA9002078
S3150800971008140020737E07087E970020381400205E
S315080097207C970020701400209C7E07087A970020FA
S31508009730D97E070859A000203571070840A90020DE
S31508009740FC2200202C0C080888140020E47E070858
S31508009750017F070869A000208014002078140020E3
S3150800976053F0A9F822680124014630481CF098FCF9
S315080097702F4B214603201C7002F080FD2246032150
S315080097801A2002F0A3FD22460421102002F09EFDB5
S3150800979022462146222002F099FD224604210B206A
S315080097A002F094FD22462146252002F08FFD22462E
S315080097B021461D2002F08AFD22460221002002F0E1
S315080097C085FD22460221282002F080FD2B78338071
S315080097D004B0BDE8F087DFF86080D8E900125B1AAC
S315080097E06CEB0202CDE900324FF48061114A1CF09D
S315080097F07FFC53F060F8236802460C4900205CF0B1
S3150800980070F853F058F82268014608481CF048FCDE
S31508009810D7E90001D9E900321B1842EB0102D8E961
S3150800982000105B1A62EB00026BE600BF5D75070865
S315080098306AA80020BD7E07088014002084B010B5F1
S315080098408CB00EAC84E80F009DF87F30154C0B9356
S315080098509DF87C304FF48061AE3B0A939DF87D30CD
S315080098602046AE3B0993BDF876300F4A0893BDF8FB
S31508009870743007931B9B06931A9B0593199B0493B5
S31508009880189B0393179B0293169B01939DF894309C
S315080098900093269B1CF02CFC20460CB0BDE810401B
S315080098A004B0704769A400200C7F07082DE9F04131
S315080098B0AEB006460DF15B005DF0F1F818B181B265
S315080098C01C481CF0EDFB9DF85B00B04203D81A4813
S315080098D02EB0BDE8F081C00056F01CFC04460028F6
S315080098E0F5D001460DF15B005DF0EEF818B181B2D6
S315080098F012481CF0D5FB04EBC607DFF8488017AD05
S31508009900294638465DF0F9F8FB79BA790C4940469C
S315080099101CF0DAFB204656F01CFC1BA949226846B7
S31508009920CDE913686AF07DFE95E80F00FFF786FF1C
S31508009930CEE700BFC87007082C0C08080171070895
S315080099403571070839AA002070B50D4604461D4E24
S3150800995030461CF0A5FB1C481CF0A2FB41F2356200
S3150800996029461A481CF09CFB19481CF099FB21460D
S3150800997018481CF095FB18481CF092FB214617481E
S315080099801CF08EFB05F0FEF815481CF089FB1548FF
S315080099901CF086FB14481CF083FB14481CF080FB63
S315080099A013481CF07DFB13481CF07AFB12481CF088
S315080099B077FB12481CF074FB3046BDE870401CF07B
S315080099C06FBB00BF64100808E47F07081880070803
S315080099D0398007084A8007088A8007089E80070892
S315080099E0F68007084C8107089C810708F581070857
S315080099F0538207088F820708E98207084483070805
S31508009A0070B598B01C4B2A22002105460DA80C9368
S31508009A106AF060FD07A85DF0E9F80CAC60B90220B1
S31508009A2003A9BDF81C605CF029FFF0B12E21204681
S31508009A30124A1CF05DFB0AE017284FF02E0120465B
S31508009A400CBF0F4A0F4A1CF053FB4FF6FF763346FE
S31508009A500D4A4FF4FA6100940C481CF049FB29465C
S31508009A600A4852F013FF18B070BD2E23224603A9E8
S31508009A7026F0CCFBEBE700BF4E2F41009783070883
S31508009A80828307088D830708A08307083EAA00205B
S31508009A9070B588B0054606A85CF0D7FF06A807F09B
S31508009AA073FA04460D4B0E4E04930E4B0E4A03935F
S31508009AB00E4B4FF4FA6102930D4B059001930D4B33
S31508009AC0304600930C4B1CF013FB204653F081FEE6
S31508009AD02946304652F0DAFE08B070BD84A8002048
S31508009AE03EAA0020D4A80020CA8307086BA8002035
S31508009AF0D579070850A9002048A900202DE9FF417B
S31508009B000027DFF8BC8006464021D8F80000CDE9DA
S31508009B10027753F06BFF234C054670B383B24FF4BC
S31508009B208061214A20681CF0E3FA52F0C4FE02461E
S31508009B30384623681D495BF0D4FE52F0BCFE226805
S31508009B4001461A481CF0ACFA02AB4021D8F80000CE
S31508009B5003AA53F001FF0346E0B9039B4FF4FA61E9
S31508009B600093134A029B13481CF0C2FA3146114867
S31508009B7052F08CFE04B0BDE8F0814FF480610E4AC5
S31508009B8020681CF0B5FA52F096FE2368024607498B
S31508009B902846D0E74FF4FA61084A06481CF0A8FAA6
S31508009BA0E4E700BFA0240020307907085D750708A0
S31508009BB0518407083EAA00206879070885840708A3
S31508009BC0FC1001202DE9F04FADF5177D0024242265
S31508009BD02146804618A817940DF184096AF07AFC84
S31508009BE02422214622A8C9F800406AF073FC2422E0
S31508009BF021462CA82B946AF06DFC2146242236A80F
S31508009C0035946AF067FC0DF136000E948DF83640EF
S31508009C105CF045FF0146F0B190481CF041FA8DF81A
S31508009C2036409DF83630202B1A4628BF20228DF85C
S31508009C3037206BB156A90DF137005CF045FF064693
S31508009C4078B1014686481CF02BFA00238DF8373088
S31508009C504FF0FF3415E09DF8361082481CF020FAC4
S31508009C60DFE79DF8371080481CF01AFA4FF0FF34EA
S31508009C70DFF82CA2DFF82CB29DF83730F5B2AB42EC
S31508009C8005D84FF00046FF25B3462F464FE0592228
S31508009C9000213FA86AF01EFC56AB03EBC507384601
S31508009CA03FA95CF02AFF024628B129466F481CF0F6
S31508009CB0F7F90136E0E729460B906D481CF0F0F9F4
S31508009CC00B9A1546504617F8011B01351CF0E8F9A2
S31508009CD0082DF7D19DF94231584600939DF8402149
S31508009CE0BDF838319DF841111CF0DAF99DF841713B
S31508009CF09DF84031FF2F0BD1FF2B1D4640F08E807B
S31508009D004FF6FF72BDF83831934218BF1C46D0E7AC
S31508009D10FF2B1D46A7F1AE0B40F082804FF6FF726F
S31508009D20BDF838314FF00046934218BF1C460EA8BE
S31508009D305CF042FF014600287CD19DF83AA04D48C8
S31508009D4051461CF0ADF9BBF1004F79D110214A4AB2
S31508009D500FA81CF0CDF9B6F1004F78D11021464A6C
S31508009D6013A81CF0C5F9BAF1FF3F08BF4FF0000A67
S31508009D7002F06AFD02F042FD2821024617A81CF0EF
S31508009D80B7F902F061FD3D4A2BAED2E90032C01A9E
S31508009D9061EB020102F032FD2821024648461CF01A
S31508009DA0A7F9374B0DF1D40BD3E9000102F026FDD4
S31508009DB02821024630461CF09BF9324B24EAE4740B
S31508009DC0D3E9000102F01AFD2821024658461CF084
S31508009DD08FF913AB05930FABCDE903532A4B4FF419
S31508009DE0FA61CDE90093CDE9086BCDE9064A274A21
S31508009DF02748029717AB1CF07BF9B0F5FA6F05D325
S31508009E004FF4FA61234A22481CF072F94146204869
S31508009E1052F03CFD0DF5177DBDE8F08F4FF0004B75
S31508009E204FF6FF72A3F1AE06BDF83831934218BF5C
S31508009E301C467CE718481CF033F94FF0FF3A82E7D6
S31508009E405B461021154A0FA81CF052F983E73346E2
S31508009E501021124A13A81CF04BF984E7AB840708B3
S31508009E60F7840708DD840708248507085585070849
S31508009E708E850708D0850708DB6A0908881400203C
S31508009E80781400207014002040A9002019860708BD
S31508009E903EAA00200A870708E485070814860708EB
S31508009EA022C60908A585070838B501220446074BC6
S31508009EB0074D1A704FF4FA612846064A1CF018F93D
S31508009EC021462846BDE8384052F0E0BC59A9002092
S31508009ED03EAA00202387070838B50446064D4FF4E6
S31508009EE0FA612846054B064A1CF002F9214628461F
S31508009EF0BDE8384052F0CABC3EAA002048A9002056
S31508009F00C0A7090838B50446064D4FF4FA61284635
S31508009F10054B064A1CF0ECF821462846BDE83840B1
S31508009F2052F0B4BC3EAA002050A90020C0A70908D8
S31508009F3038B50446064D4FF4FA612846054B064ADD
S31508009F401CF0D6F821462846BDE8384052F09EBC9B
S31508009F503EAA0020D5790708C0A7090838B50446DF
S31508009F60064D4FF4FA612846054B064A1CF0C0F820
S31508009F7021462846BDE8384052F088BC3EAA002053
S31508009F806BA80020C0A7090870B58AB00446282225
S31508009F90002168466AF09EFAA389002B3CD0204629
S31508009FA053F0ECF90546A0B36A461D4951F028FF5F
S31508009FB00646284653F0B1F95EB3684619496AF071
S31508009FC01EFB68B95CF07BFC41F28831872003F000
S31508009FD099FD5CF029FD52F0E0FC00200AB070BD46
S31508009FE0684611496AF00BFB38B95CF068FC41F227
S31508009FF08831872003F086FDEDE76B460B4A4FF460
S3150800A000FA610B481CF074F82146094852F03EFCE8
S3150800A010E4E76B46074AF2E7074B084AEFE700BF53
S3150800A0203E870708438707084D87070857870708A5
S3150800A0303EAA00206C870708D4A80020C0A70908F4
S3150800A04038B50446064D4FF4FA612846054B064ACC
S3150800A0501CF04EF821462846BDE8384052F016BC9A
S3150800A0603EAA002084A80020C0A7090838B50446DF
S3150800A07002F0EAFB02F0C2FB064D03464FF4FA6112
S3150800A0802846054A1CF034F821462846BDE83840DB
S3150800A09052F0FCBB3EAA0020C0A7090838B5044602
S3150800A0A0074DFDF7C7FF4FF4FA612846054B064AE8
S3150800A0B01CF01EF821462846BDE8384052F0E6BB9B
S3150800A0C03EAA002040A90020C0A7090813B500230E
S3150800A0D0019383890446B3B10F49806901AA51F0F7
S3150800A0E08FFE80B19DF80400FFF7E0FB03460B4A9C
S3150800A0F04FF4FA610A481BF0FBFF2146084852F064
S3150800A100C5FB02B010BD0DF103005CF0C8FC9DF85C
S3150800A1100330044AECE700BFF6EF0908C0A70908B0
S3150800A1203EAA00208387070830B58BB00446114B3A
S3150800A130114DD3E90A01CDE90801D3E90801CDE9B2
S3150800A1400601D3E90601CDE90401D3E90401CDE905
S3150800A15002014FF4FA61D3E902232846CDE9002328
S3150800A160064A1BF0C5FF214628460BB0BDE830401D
S3150800A17052F08CBB081400203EAA002096870708D8
S3150800A18038B50446064D4FF4FA612846054B064A8B
S3150800A1901BF0AEFF21462846BDE8384052F076BB94
S3150800A1A03EAA002069A00020C0A70908F7B5002329
S3150800A1B00193838904460F4F73B153F0DFF80546C0
S3150800A1C050B10D4901AA51F01BFE0646284653F028
S3150800A1D0A4F80EB1019B3B813B89084A4FF4FA610A
S3150800A1E007481BF085FF2146054852F04FFB03B090
S3150800A1F0F0BD00BFEC230020F6EF0908E4280A08A2
S3150800A2003EAA0020F7B500230127CDE900331F4EEB
S3150800A210838905463760BBB153F0B0F8044680B170
S3150800A2206B461B4901AA51F0EBFD02281CD19DF88B
S3150800A2300010184B3A469DF80400197002F046F8CB
S3150800A2403060204653F069F83368E3B9114B124A77
S3150800A2501B784FF4FA6111481BF04AFF29460F484C
S3150800A26052F014FB03B0F0BD0D496A46204651F082
S3150800A270C7FD01280146E4D19DF80000054B18707A
S3150800A28001F0FCFFDCE7074AE3E700BFE423002010
S3150800A2900C95070860180120E4280A083EAA002041
S3150800A2A0F6EF0908B187070870B58CB00021064695
S3150800A2B0282202A801916AF00DF9B3895BB33046EA
S3150800A2C053F05CF8054678B3184901AB02AA51F079
S3150800A2D097FD022815D1019902A801F057FB0446FB
S3150800A2E0284653F01AF8BCB9019B114A4FF4FA6193
S3150800A2F010481BF0FDFE31460E4852F0C7FA0CB066
S3150800A30070BD28460C4902AA51F07AFD012806D0EC
S3150800A310284653F002F80F242346084AE6E701A91F
S3150800A32002A801F02FFCDAE71924F5E7D087070819
S3150800A330E4280A083EAA00203E870708D8870708A7
S3150800A34038B5044602F09AFD064D02464FF4FA6106
S3150800A35028461BF0CDFE21462846BDE8384052F077
S3150800A36095BA00BF3EAA002008B582890AB900201E
S3150800A37008BD054980696AF0D1F80028F7D1FDF7CC
S3150800A380C5FD0120F4E700BFE687070837B5044690
S3150800A3900A4B0B4D1B884FF4FA610093094B0A4A86
S3150800A3A01B8828461BF0A4FE2046FFF7DDFF214642
S3150800A3B0284603B0BDE8304052F068BA7C970020C2
S3150800A3C03EAA00207E970020EC87070838B5044689
S3150800A3D002F03AFA0C4A0D4DD2E90032C01A61EB86
S3150800A3E0020102F00BFA4FF4FA610346084A2846BE
S3150800A3F01BF07EFE2046FFF7B7FF21462846BDE83C
S3150800A400384052F043BA00BF881400203EAA002004
S3150800A410C0A7090870B5044602F016FA0F4E104A8E
S3150800A420D6E90056D2E900325B1B62EB0602181821
S3150800A43042EB010102F0E2F90A4D03464FF4FA61D4
S3150800A4402846094A1BF054FE2046FFF78DFF214691
S3150800A4502846BDE8704052F019BA00BF881400209B
S3150800A460781400203EAA0020C0A7090838B50B4B6F
S3150800A4700446D3E9000102F0C1F9094D03464FF439
S3150800A480FA612846074A1BF033FE2046FFF76CFFA1
S3150800A49021462846BDE8384052F0F8B97014002025
S3150800A4A03EAA0020C0A709082DE9F743064602F090
S3150800A4B0CBF9DFF89890DFF89880D9E90032D8E927
S3150800A4C000545B1B62EB0402181842EB010150F0C2
S3150800A4D01BFD00221A4B50F04DFD04460D4602F0B6
S3150800A4E0B3F9D9E90032DFF86CE0164FDEE900CEA1
S3150800A4F013EB0C0342EB0E02D8E900CEB3EB0C03C8
S3150800A50062EB0E02181842EB010150F0FDFC0B46F7
S3150800A51002462946204650F057FE0B4ACDE900016F
S3150800A5204FF4FA6138461BF0E3FD3046FFF71CFF8F
S3150800A5303146384603B0BDE8F04352F0A7B900BF2C
S3150800A540000059403EAA0020F48707087814002026
S3150800A55088140020701400202DE9F04FA7B0834618
S3150800A56002F072F9414D424CD5E90032D4E9006750
S3150800A5709B1B62EB0702181842EB010102F03EF939
S3150800A5800DF148093B4F0246282148461BF0B0FD0D
S3150800A590D7E9000102F032F90DF1700A02462821C6
S3150800A5A050461BF0A5FD02F04FF9D5E900322668A2
S3150800A5B0DFF8D8809B1B666862EB0602181842EB28
S3150800A5C0010150F0A1FC00222B4B50F0D3FCCDE941
S3150800A5D0100102F039F9D5E90032D7E900575B19BD
S3150800A5E042EB0702D4E900545B1B62EB040218181D
S3150800A5F042EB010150F088FC02460B46DDE91001EA
S3150800A60050F0E2FD50F098FF50F05CFCCDE90C9A52
S3150800A610CDE90E01194B1B880B93194B1B880A931E
S3150800A620184BD3E90A01CDE90801D3E90801CDE9B8
S3150800A6300601D3E90601CDE90401D3E90401CDE910
S3150800A64002014FF4FA61D3E902234046CDE900231B
S3150800A6500D4A1BF04DFD5846FFF786FE5946404603
S3150800A66052F014F927B0BDE8F08F00BF7814002027
S3150800A6708814002070140020000059407C970020A0
S3150800A6807E97002008140020FA8707083EAA0020B3
S3150800A69084B013B504AC84E80F00084C0346019255
S3150800A6A0009120464FF4FA61054A1BF021FD204629
S3150800A6B002B0BDE8104004B0704700BF3EAA0020B3
S3150800A6C0B888070884B010B590B012AC84E80F00BB
S3150800A6D09DF89030164C0F93219B02920E93209B67
S3150800A6E001910D931F9B4FF4FA610C931E9B204614
S3150800A6F00B931D9B0F4A0A931C9B09931B9B08935C
S3150800A7001A9B0793199B0693189B0593169B04930C
S3150800A710159B0393BDF84A300093BDF848301BF0EB
S3150800A720E7FC204610B0BDE8104004B0704700BFF3
S3150800A7303EAA00200289070884B010B586B008AC86
S3150800A74084E80F000493BDF926300B4C0293BDF83C
S3150800A750243003920193BDF822304FF4FA61009336
S3150800A7602046BDF92030054A1BF0C2FC204606B03B
S3150800A770BDE8104004B070473EAA0020C08A07080A
S3150800A78084B010B59CB01EAC84E80F00BDF8DE306E
S3150800A790214C1A93BDF8DC301993BDF8DA301893BA
S3150800A7A0BDF8D8301793359B1693349B1593339B76
S3150800A7B01493329B1393319B1293309B11932F9BC7
S3150800A7C010932E9B0F932D9B0E932C9B0D932B9BD7
S3150800A7D001920C932A9B00910B93299B4FF4FA61E3
S3150800A7E00A93289B0D4A0993279B0893269B079350
S3150800A7F0259B0693249B0593239B0493229B0393F3
S3150800A800219B0293034620461BF072FC20461CB08F
S3150800A810BDE8104004B070473EAA0020A98B07087F
S3150800A82010B58A8904460B460AB9002010BD0549A9
S3150800A830986969F073FE0028F7D120465CF01DF987
S3150800A8400120F3E7E687070830B59BB0124C0546AA
S3150800A850214600205CF08AF8104B04F110011860BC
S3150800A8606422684669F0DDFE94E80F00FFF710FFE2
S3150800A8700B4C03460B4A4FF4FA6120461BF038FC92
S3150800A88029460020FFF7CCFF294620461BB0BDE825
S3150800A890304051F0FBBF00BF70230020E4230020A6
S3150800A8A03EAA0020C0A7090830B59BB0124C054641
S3150800A8B0214601205CF05AF8104B04F1100118608B
S3150800A8C06422684669F0ADFE94E80F00FFF7FAFEC9
S3150800A8D00B4C03460B4A4FF4FA6120461BF008FC62
S3150800A8E029460120FFF79CFF294620461BB0BDE8F4
S3150800A8F0304051F0CBBF00BF70230020E423002076
S3150800A9003EAA0020C0A7090830B59BB0124C0546E0
S3150800A910214602205CF02AF8104B04F11001186059
S3150800A9206422684669F07DFE94E80F00FFF704FF8D
S3150800A9300B4C03460B4A4FF4FA6120461BF0D8FB32
S3150800A94029460220FFF76CFF294620461BB0BDE8C2
S3150800A950304051F09BBF00BF70230020E423002045
S3150800A9603EAA0020C0A7090873B5124E054631460F
S3150800A97003205BF0FBFF104B104C186033684FF454
S3150800A980FA610093736820460D4A1BF0B1FB234613
S3150800A9900C4A4FF4FA6120461BF0AAFB294603200D
S3150800A9A0FFF73EFF2946204602B0BDE8704051F049
S3150800A9B06DBF00BF70230020E42300203EAA0020BC
S3150800A9C0638B0708C0A7090830B59BB0124C05462B
S3150800A9D0214604205BF0CAFF104B04F110011860F1
S3150800A9E06422684669F01DFE94E80F00FFF7C8FE6A
S3150800A9F00B4C03460B4A4FF4FA6120461BF078FBD2
S3150800AA0029460420FFF70CFF294620461BB0BDE85F
S3150800AA10304051F03BBF00BF70230020E4230020E4
S3150800AA203EAA0020C0A7090870B5104E0546314653
S3150800AA3005205BF09BFF0E4C0E4B4FF4FA61186035
S3150800AA400D4A336820461BF053FB23464FF4FA6140
S3150800AA5020460A4A1BF04CFB29460520FFF7E0FE74
S3150800AA6029462046BDE8704051F010BF70230020EB
S3150800AA703EAA0020E4230020E38E0708C0A70908A1
S3150800AA802DE9F04389B001261422002103A869F0B4
S3150800AA9021FD974B974D984C0093984B6846019526
S3150800AAA0029404938DF80C6004F00CF830B140F26F
S3150800AAB07941934B934A944802F02EFC934B68468F
S3150800AAC0CDE90035924B029404938DF80C6003F09F
S3150800AAD0F9FF20B140F28141894B8A4AEBE78D4B59
S3150800AAE0DFF8B89200938C4B6846CDE9019404933D
S3150800AAF08DF80C6003F0E6FF20B140F28941804BE7
S3150800AB00804AD8E7854B6846CDE90039844B0294DC
S3150800AB1004938DF80C6003F0D5FF20B140F2914103
S3150800AB20774B784AC7E77F4B684600937E4B8DF88C
S3150800AB300C60CDE901347D4B049303F0C3FF20B1CB
S3150800AB4040F299416E4B6F4AB5E7794B794F0093BE
S3150800AB50794B6846CDE9017404938DF80C6003F0CF
S3150800AB60B1FF20B140F2A141654B664AA3E7734B9A
S3150800AB706846CDE90037724B029404938DF80C6051
S3150800AB8003F0A0FF20B140F2A9415D4B5D4A92E770
S3150800AB906C4B6846CDE900376B4B029404938DF8ED
S3150800ABA00C6003F08FFF20B140F2B141544B554A77
S3150800ABB081E7664B6846CDE90035654B02940493F8
S3150800ABC08DF80C6003F07EFF20B140F2B9414C4B82
S3150800ABD04C4A70E75F4B6846CDE900355E4B8DF809
S3150800ABE00C6002935D4B049303F06CFF20B140F2B6
S3150800ABF0C241434B434A5EE70126594B6846CDE9B5
S3150800AC000037584B029404938DF80C6003F05AFFF2
S3150800AC1020B140F2CA413A4B3A4A4CE7524BDFF868
S3150800AC2080810093514B6846CDE9018404938DF8E1
S3150800AC300C6003F047FF20B140F2D241304B314A55
S3150800AC4039E74B4B6846CDE900394A4B02940493E1
S3150800AC508DF80C6003F036FF20B140F2DA41284B3C
S3150800AC60284A28E7444B6846CDE90035434B029409
S3150800AC7004938DF80C6003F025FF20B140F2E24101
S3150800AC801F4B204A17E73E4B6846CDE900383D4B37
S3150800AC90029404938DF80C6003F014FF20B140F27F
S3150800ACA0EB41174B174A06E7374B68460093374B75
S3150800ACB08DF80C60CDE90134354B049303F002FF9F
S3150800ACC020B140F2F3410E4B0E4AF4E6314B68468A
S3150800ACD0CDE90038304B029404938DF80C6003F0EC
S3150800ACE0F1FE00285ED040F2FB41054B054AE2E63C
S3150800ACF0068F07081C8F0708218F0708019A000886
S3150800AD00268F070875920708668F0708748F070845
S3150800AD10919A00087E8F0708D99E00088F8F07082A
S3150800AD20059F00089A8F0708A68F0708319F000815
S3150800AD30AA8F0708065E0A085D9F0008BC8F0708E9
S3150800AD40899F0008CE8F070841A00008DC8F0708F6
S3150800AD50C59B0008E88F0708F78F0708FD9A0008C3
S3150800AD60FE8F0708A99E00080B9007086DA000082B
S3150800AD70209007089DA000082F900708CDA000087E
S3150800AD8040900708CDA3000852900708729007085C
S3150800AD9029A10008789007086DA400088B8F07087A
S3150800ADA01B9007088D4BDFF8E89200938C4B68469A
S3150800ADB0CDE9019404938DF80C6003F083FE20B16D
S3150800ADC040F20351874B884A75E6884B6846CDE9B9
S3150800ADD00038874B029404938DF80C6003F072FEDA
S3150800ADE020B140F20B517F4B7F4A64E6814B68469F
S3150800ADF00093814B8DF80C60CDE901347F4B0493A9
S3150800AE0003F060FE20B140F21351764B764A52E6C3
S3150800AE1001267B4B6846CDE900377A4B02940493AA
S3150800AE208DF80C6003F04EFE20B140F227516D4BB1
S3150800AE306D4A40E6744B6846CDE90035734B02947B
S3150800AE4004938DF80C6003F03DFE20B140F23251B8
S3150800AE50644B654A2FE66E4B6846CDE900356D4B67
S3150800AE608DF80C6002936C4B049303F02BFE20B113
S3150800AE7040F23B515B4B5C4A1DE6684B6846CDE9A0
S3150800AE800035674B8DF80C600293664B049303F00C
S3150800AE9019FE20B140F24351524B534A0BE6624B1E
S3150800AEA06846CDE90035614B8DF80C600293604B1E
S3150800AEB0049303F007FE20B140F24B51494B4A4A2E
S3150800AEC0F9E55C4B6846CDE900355B4B8DF80C60BF
S3150800AED002935A4B049303F0F5FD20B140F2535107
S3150800AEE0404B414AE7E5564B6846CDE90035554B98
S3150800AEF08DF80C600293544B049303F0E3FD20B1E4
S3150800AF0040F25B51374B384AD5E5504B6846CDE998
S3150800AF1000354F4B8DF80C6002934E4B049303F0AB
S3150800AF20D1FD20B140F263512E4B2F4AC3E54A4B5F
S3150800AF304A4C00934A4B684601934A4B0294049341
S3150800AF408DF80C6003F0BEFD20B140F26C51254B24
S3150800AF50254AB0E5444B68460093444B8DF80C608F
S3150800AF60CDE90134424B049303F0ACFD20B140F225
S3150800AF7074511C4B1C4A9EE5029401243D4B6846BD
S3150800AF80CDE900393C4B8DF80C40049303F09AFD4B
S3150800AF9020B140F27C51134B134A8CE5374B684677
S3150800AFA0CDE90037364B8DF80C400293354B0493A8
S3150800AFB003F088FD20B14FF4B4610A4B0A4A7AE5DA
S3150800AFC0009931481BF06CF8322220212F481BF0DB
S3150800AFD067F8202009B0BDE8F08300BF9B900708FA
S3150800AFE08DA30008268F070875920708BB900708E7
S3150800AFF015A40008DB900708F8900708A9A400081C
S3150800B000FE90070881A100080791070859A50008BE
S3150800B0101B9107080C99090849A8000831910708E7
S3150800B02043910708A9A800084791070859910708F6
S3150800B03009A900085E9107087091070869A9000820
S3150800B040769107083D340A08C9A9000890910708AF
S3150800B0506FD2090829AA0008AD910708C191070807
S3150800B0608AAD0708ADA10008CA910708F9BA090808
S3150800B07005A20008E0910708A9A20008F4910708AC
S3150800B0800A92070841A30008189207083E92070883
S3150800B090B7900708F0B589B007461822002102A81C
S3150800B0A069F018FA454D002F59D00BF037FA0026EB
S3150800B0B0431F5842424C58410002039020680796A5
S3150800B0C008B114F06FFF4FF4A05304934FF488535C
S3150800B0D0ADF808303B4B202205933B49384B02A874
S3150800B0E0266057F005FF0646E0B103464FF4806137
S3150800B0F0364A28681AF0FCFF51F0DDFB2B68024639
S3150800B100334900205AF0EDFB51F0D5FB2A68014679
S3150800B1102F481AF0C5FF012402A858F0E6FE20467B
S3150800B12009B0F0BD20685BF0CDFD0446002833D099
S3150800B13033464FF48061274A28681AF0D9FF51F040
S3150800B140BAFB2B680246224900205AF0CAFB51F086
S3150800B150B2FB2A6801461E481AF0A2FFDCE7384609
S3150800B1605BF080FD0446F8B928681B4B4FF48061F4
S3150800B1701A4A1AF0BDFF51F09EFB2B680246144985
S3150800B18000205AF0AEFB51F096FB2A68014610489B
S3150800B1901AF086FF0024BFE701205BF063FD044632
S3150800B1A010B928680E4BE1E700943B464FF48061DE
S3150800B1B00C4A28681AF09CFFC1E700BFA0240020AB
S3150800B1C0E823002005008003611801208D920708F6
S3150800B1D05D750708B6920708F9A2090825930708B6
S3150800B1E0E3A20908F0920708F0B58DB08378044603
S3150800B1F0942B1AD0952B5AD0604C4FF48061604A34
S3150800B20020681AF075FF51F056FB236802465D491F
S3150800B21000205AF066FB51F04EFB01462268594859
S3150800B2200DB0BDE8F0401AF03BBF544D043402AEF1
S3150800B2303146204605F020FD33464FF48061524AD8
S3150800B24028681AF055FF51F036FB2B6802464D491F
S3150800B25000205AF046FB51F02EFB2A680146494861
S3150800B2601AF01EFF20465BF010FDB8B933464FF4BE
S3150800B2708061464A28681AF03BFF51F01CFB414999
S3150800B28002462B6800205AF02CFB51F014FB0146AD
S3150800B2902A683C481AF004FF0DB0F0BD0096034634
S3150800B2A04FF480613A4A28681AF022FFE5E702ADB2
S3150800B2B02946043005F0E0FC6669012E35D0022ED9
S3150800B2C03CD0002EE8D1334F2C4C2846324A3968F8
S3150800B2D000F05AFF2B464FF48061304A20681AF076
S3150800B2E007FF51F0E8FA23680246264930465AF025
S3150800B2F0F8FA51F0E0FA2268014622481AF0D0FE20
S3150800B30000954FF480613B68254A20681AF0F0FEE4
S3150800B31051F0D1FA1B490246236800205AF0E1FA97
S3150800B32051F0C9FA22680146B3E7144C2B464FF48C
S3150800B33080611C4A20681AF0DBFEE9E70F4C00F032
S3150800B34097FF2B464FF48061174A20681AF0D0FE03
S3150800B35051F0B1FA236802460A4900205AF0C1FAA8
S3150800B36051F0A9FA2268014606481AF099FE4FF4E8
S3150800B37080610E4A20681AF0BBFEC9E7A0240020A7
S3150800B3807F9407085D7507083993070861930708CE
S3150800B39089930708A0100120020C0808C99307081A
S3150800B3A0F193070819940708399407086094070861
S3150800B3B01FB5002304464FF48061CDE90233314AB4
S3150800B3C0034631481AF094FE2046304902AB03AAD8
S3150800B3D050F016FD022812D101229DF808109DF89A
S3150800B3E00C0000F073FF029B4FF480610093284A1B
S3150800B3F0039B25481AF07CFE234804B010BD20465E
S3150800B400244902AA50F0FCFC012818D1029B01210C
S3150800B410032B0393C4BF032302939DF8080000F08F
S3150800B4202DFFDDE90223934218BF13464FF48061CE
S3150800B43014BF194A194A14481AF05AFEDCE720467E
S3150800B440174969F0DCF830B9164A4FF480610E489E
S3150800B4501AF04EFED0E72046134969F0D0F808B92D
S3150800B460124AF2E72046124969F0C9F80028C3D102
S3150800B470104869F0E3F801460F4B0E48002908BF4B
S3150800B4801846BAE7D29407080EB20020F6940708C1
S3150800B490129507083895070851950708C3950708B0
S3150800B4A0EB950708FF9507081B96070830960708C7
S3150800B4B04C9607083AD60020BB94070800B58BB00F
S3150800B4C001F0A4FF1B481AF0EBFD02F017F8194823
S3150800B4D01AF0E6FD184B4021186852F087FA014623
S3150800B4E008B316481AF0DCFDFFF7CAFA2022002135
S3150800B4F002A868F0EFFF124B182201934FF420536D
S3150800B5001049CDE906321048104A1AF0C9FD002143
S3150800B5100F4801AA0BF09EF948B97E210D4B0E4A39
S3150800B520084801F0F9FE0D481AF0BAFDDCE70BB041
S3150800B5305DF804FB81960708FC100120A096070811
S3150800B540FD960708069707081497070865970708DA
S3150800B550A18A0008499707085C970708D496070840
