:020000040800F2
:1000000000100020B10A0008AD0A020875190208A4
:10001000AD0A0208AD0A0208AD0A0208AD0A0208DC
:10002000AD0A0208AD0A0208AD0A02085104000830
:10003000AD0A0208AD0A0208E10300089919020896
:10004000AD0A0208AD0A0208AD0A0208AD0A0208AC
:10005000AD0A0208AD0A0208AD0A0208AD0A02089C
:10006000AD0A0208AD0A0208AD0A020811620008D2
:10007000AD0A0208AD0A0208AD0A0208AD0A02087C
:10008000AD0A0208AD0A0208AD0A0208AD0A02086C
:10009000AD0A0208AD0A0208910E0008AD0A020876
:1000A000AD0A0208AD0A0208AD0A0208AD0A02084C
:1000B000AD0A0208AD0A02088D2701083132010895
:1000C000A15702089D570208C9290108AD57020827
:1000D000A557020805320108A95702087132010824
:1000E0005D330108AD0A0208AD0A0208AD0A020834
:1000F000AD0A0208AD0A0208AD0A0208AD0A0208FC
:10010000AD0A0208AD0A0208AD0A0208AD0A0208EB
:10011000AD0A0208AD0A0208AD0A0208AD0A0208DB
:10012000AD0A0208AD0A0208AD0A0208AD0A0208CB
:10013000AD0A0208AD0A0208AD0A0208AD0A0208BB
:10014000AD0A0208AD0A0208AD0A0208D53200085D
:10015000AD0A0208AD0A0208FF180208A90C01083E
:10016000AD0A0208AD0A0208915702089757020823
:0C017000AD0A0208AD0A0208AD0A020840
:10017C00F0B5114A114C124E00F00105E3695F070E
:10018C0013D40DB9334213D103EA00078F4207D1C0
:10019C000B4A1A40002A0CBF00206FF00100F0BD82
:1001AC00013AEBD16FF00200F9E74FF0FF30F6E7C0
:1001BC006FF00100F3E700BF809698000000035039
:1001CC00020001000B4B70B5D96911F480310DD1CF
:1001DC0001244FF48072084E084DF46020462C64C4
:1001EC001A61FFF7C5FF3464EC6070BD6FF001005D
:1001FC00FBE700BF00000350001003500020035029
:10020C00C0F30C0370B5054623B140F21A21114816
:10021C0000F0A2F84FF480320F4B104C9A66E6694E
:10022C0041F6713316400122E3630D4B0021DA6075
:10023C000223656121202361FFF79AFF10B9212069
:10024C00FFF796FF0122074BDA600EB10023E36340
:10025C0070BD00BF83BB030800900050000003502A
:10026C00001003500020035070B5134C6061E3691B
:10027C005B071ED40E4656F8043B8D18A361AE42A4
:10028C000BD10423002121202361FFF771FF58B902
:10029C00BDE870402120FFF76BBF08210846FFF72F
:1002AC0067FF10B10423236170BD56F8043BA361B2
:1002BC00E5E74FF0FF30F7E7000003502DE9F84376
:1002CC00154682070F46064604D040F266211E48AA
:1002DC0000F042F8AB0704D04FF41A711A4800F042
:1002EC003BF84FF48032194BDFF868909A6603F5AF
:1002FC001C33DA6902F4803841F67132DA63012278
:10030C0003F58053DA6065B928460122104BDA6098
:10031C00B8F1000F03D00022A3F50053DA63BDE857
:10032C00F88306F5005404EA0904A41BAC4228BF68
:10033C002C46394622463046FFF796FF0028E4D17A
:10034C00264427442D1BDEE783BB03080090005096
:10035C000020035000E0FFFF5FF800F0D9600008B8
:100370000B4A1168086806C881F30B88022181F3D3
:100380001488203080F30988BFF36F8F4FF000008E
:1003900080F31188104700BFAFF30080AFF30080F7
:1003A000A44A00200000000000000000000000003F
:1003B00007480068006880F3088862B661B6BFF33A
:1003C0004F8FBFF36F8F02DF00BF00BFAFF300801E
:1003D00008ED00E000000000000000000000000048
:1003E000EFF309801EF0100F08BF20ED108AEFF325
:1003F0000B82734620E9FC0F114A116808604FF028
:10040000300080F31188BFF34F8FBFF36F8F07F079
:10041000DBFD4FF0000080F31188094A116808687D
:10042000B0E8FC0F13F0100F08BFB0EC108A82F395
:100430000B8880F309881847AFF30080AFF3008082
:10044000A44A00200000000000000000000000009E
:100450001EF0040F0CBFEFF30880EFF3098004498E
:10046000084700BFAFF30080AFF30080AFF3008018
:10047000818900080000000070B5A8B02C2200217E
:100480001DA825F040FF4FF002331F9340F20B13DD
:100490007B4D14ACADF89C300FCD0FC40FCD0FC405
:1004A0002B6878492360784B784807930023CDE97F
:1004B00008330A9313F064F8754D286000284FD074
:1004C000012125F080F920B140F22641714805F064
:1004D00003FE286824F0FBFD6F4E3070286824F07E
:1004E000F8FD6E4B6E491870286813F097FB0446B0
:1004F00000282FD133786B4E5BB96B481DF01AFC86
:100500003060E0B940F25741684B694A614820F0D9
:1005100041FA68481DF00EFC30600028EDD0C1891A
:10052000286813F003FB3368214658681DF0A4FBCC
:10053000044678B95C481DF0FDFB306090B1C1897C
:10054000286813F0F3FA3368042158681DF094FB0F
:10055000044638B1234622210220574A25F068FC80
:1005600028B070BD02F0BAFB544A04ABCDE90401D7
:100570000393A2F1080113F8010B02F8010D914257
:10058000F9D10622FF210BA825F0BDFE0622FF218E
:100590000DF1320025F0B7FE182200210EA825F03B
:1005A000B2FE08220EA903A825F0D3FE41F234239F
:1005B0001C22002120A8ADF82C3025F0A4FE2868CC
:1005C0001DA913F017FD04460028C3D13C49286833
:1005D00025F0B8F904460028BCD13A49286825F02E
:1005E0009BF904460028B5D13749286813F0A6F8CE
:1005F00004460028AED120A3D3E90023CDE900238F
:10060000286825F0A1F904460028A3D12F4A3049D3
:10061000286825F0D9F9044600289BD1012012F062
:10062000FBFF00289CD0A0232A4A07A8D3802A4A8F
:10063000136006F073FA294B186020B94FF49461E7
:10064000274B1B4A62E7274A2749284813F010FE28
:1006500026481CF0F5FE2146254814AA06F0F4F9B8
:10066000244B186000287FF47BAF40F2AC41224B52
:100670000F4A4BE7AFF30080488D01C103400000F3
:100680004850040861DB0108F04604080C8400208F
:10069000C4610020A6410408FF740020FE740020FD
:1006A000070011007C5100205B8B020805470408FD
:1006B000C44F0408458B02085347040808750020FE
:1006C0004350040841500408C861002020850020E0
:1006D000BC5100202C840020306200203C620020AD
:1006E0001D4704083947040801DF0108E4610020C0
:1006F000C9EA0108446200204247040800000000E3
:100700002DE9F7430546564C22211020554A25F085
:100710008FFB18222946204625F01BFEA27B524B58
:10072000DFF890911A70E37C002289F800300023F2
:100730004E4FCDE90023386800224FF4007325F0B6
:1007400003F918B1012003B0BDE8F083484B494ECE
:100750001B787BB948481DF0EDFA04463460F4B9C3
:100760000220464A222125F063FB0122444B21202E
:100770001A70E8E7434B444C1A88444B386853F8E6
:100780002210434A8B682160336013F0B9F9226864
:10079000404B946824221B8802FB0344DEE73E4B57
:1007A0001C60394BD3F80080B8F1000F07D000234C
:1007B0002420D8F80C108B4208D100251AE040F212
:1007C000FE61364B364A374820F0E4F8D8F8085036
:1007D00000FB0355EA695278120912F00E0F2ED071
:1007E000052A2CD8304B0021EA89B3F90000356086
:1007F0001DF07AFA18A3D3E90023CDE90023386865
:1008000025F0A2F8D8F80820AA4207D0274B32607A
:100810000421D289B3F900001DF066FA244BE28965
:1008200034601A8099F800301B0913F00E0F08D0BD
:100830001DF044FF01201DF01BFD002083E7013364
:10084000B9E701220721386825F071F90028EFD0B7
:1008500078E700BFAFF30080488D01C1034200007C
:1008600080510020DB490408F6740020C461002098
:10087000FA7400207C510020D5DD0108F7490408F6
:10088000F7740020D463002070510020007F002006
:1008900045DE0108D263002078510020334A040865
:1008A000724E0408A64104082285002024850020F9
:1008B0001A850020F57400200348044B834202D0BF
:1008C000034B03B1184770479C9000209C90002078
:1008D00000000000064B0749C91A891048BF0131C2
:1008E000491003D0044B0BB101481847704700BFB3
:1008F0009C9000209C9000200000000010B5064C49
:10090000237843B9FFF7D8FF044B13B10448AFF382
:1009100000800123237010BDD6630020000000007A
:10092000605A040808B5054B1BB105490548AFF3EB
:100930000080BDE80840FFF7CDBF00BF0000000009
:1009400058350020605A0408A3F5803A704700BF6C
:10095000174B002B08BF134B9D46FFF7F5FF0021F7
:100960008B460F461348144A121A25F0CCFC0E4B46
:10097000002B00D098470D4B002B00D0984700204B
:10098000002104000D000D48002802D00C48AFF3F0
:10099000008018F08DF92000290020F0EDFF17F0FD
:1009A00015FF00BF0000080000000000000000006C
:1009B00000100020001000200C7D0020000000002E
:1009C0000000000010B5284C01F09EF801F0D0FAAC
:1009D000236F012023F0070343F00303236720F074
:1009E000E9F8224B00209B6ADB015EBF4FF48032A6
:1009F0001F4B9A62D4F8203123F0070343F002031F
:100A0000C4F82031D4F8283123F0070343F002035F
:100A1000C4F82831D4F8403123F0030343F0020333
:100A2000C4F84031D4F8603123F0030343F00203EB
:100A3000C4F86031D4F8403223F0030343F00203DA
:100A4000C4F84032D4F8003223F0070343F0020325
:100A5000C4F80032D4F8083223F0070343F002034D
:100A6000C4F8083210BD00BF008000500040005A9A
:100A70000060005A08B5034820F0E2FDBDE80840D8
:100A80001FF0D7BFB8C10308014820F0D9BD00BF8F
:100A9000B8C103080348044A0449121A921020F00E
:100AA00006B800BF7C0100086C030008107D002020
:100AB00008B500F02FF8FFF7EDFF124B12498B42FB
:100AC00012D30020114B12498B4218D3FFF740FF7D
:100AD000186850F82240586840F82240013298685F
:100AE0008242F5D30C33EAE70022F8E71C6844F8A9
:100AF000220001325C68A242F8D30833E4E7002206
:100B0000F8E700BF685A0408745A0408745A0408C5
:100B1000745A04084FF48041124B134A70B59A601E
:100B2000D3F88820114D42F47002C3F88820104A8F
:100B300005F5005491664FF0FF3222660D4A626659
:100B40000222C3F8D020BFF34F8FBFF36F8F4FF453
:100B50004036002004F008F80020E66003F0EAFFC9
:100B60002E6170BD00ED00E0000000080080004430
:100B7000009000507FFF7F03014B1868704700BF53
:100B800050820020084B1B6F03F00703022B04D098
:100B9000032B05D0012B05D0FEE7044B18687047E6
:100BA000034BFBE703487047008000505082002051
:100BB00058820020002D310108B5FFF7E3FF054BF7
:100BC0001B6FC3F303330133B0FBF3F0024B186028
:100BD00008BD00BF008000504C82002000487047D4
:100BE00000B4C404014B1868704700BF588200204D
:100BF000054B1860054B1B6F03F00703032B01D156
:100C0000FFF7DABF704700BF588200200080005015
:100C100000487047002D31014FF0B4439868C0F38D
:100C200004400C280AD8DFE800F00B09090909097B
:100C3000072119091B1D1F000F487047002070472E
:100C40009B6803F04073B3F1807F11D0B3F1007F54
:100C500010D00A4A002B08BF10467047084870475A
:100C60000848704708487047084870470848704768
:100C70000848704708487047405DC60000093D00BD
:100C8000C0EA210180BA8C010048E801005A6202E2
:100C90000024F40080841E0040420F00014B1868BD
:100CA000704700BF54820020034B5868C0F308000F
:100CB000003818BF0120704700ED00E038B5044649
:100CC0000D4601B118B93721034805F005FA23682C
:100CD0002B60256038BD00BFA2B8030840B1054AAB
:100CE0001378012B04D80370013300201370704770
:100CF00001207047D763002038B5124B05461B789A
:100D0000DBB1E0B11FF0EEFE0F4A00231146147B69
:100D100054B92B6001251A0101EB03131D738C508C
:100D20001FF0E6FE204638BD0133082B02F1100209
:100D3000EDD11FF0DDFE0548F5E70548F3E705486E
:100D4000F1E700BFD863002070360020048000F077
:100D5000028000F0018000F0154B13B518680023E5
:100D600001908DF804301FF0BDFE124B1C7824B1A9
:100D70001FF0BEFE104802B010BD01221A701FF015
:100D8000B7FE0E4B01A81C731C7783F82C4083F828
:100D90003C4083F84C4083F85C4083F86C4083F817
:100DA0007C4008238DF8073001F066FD2046E2E71D
:100DB000FAB80308D8630020038000F070360020E2
:100DC000F8B50D4D2D7885B1072810DC0B4D0601C7
:100DD00005EB0014277B67B1AB510025069BA5608E
:100DE000636001F091FD2846F8BD0548FCE7054821
:100DF000FAE70548F8E700BFD86300207036002006
:100E0000028000F0018000F0078000F00A4A08B577
:100E1000127852B107280AD8084A02EB00131B7B4C
:100E20003BB101F0F7FD002008BD0548FCE705488F
:100E3000FAE70548F8E700BFD863002070360020C5
:100E4000028000F0018000F0078000F00B4A10B52E
:100E500012780C4662B107280CD859B1084A02EB47
:100E600000131B7B43B101F0F1FD2060002010BD99
:100E70000448FCE70448FAE70448F8E7D863002090
:100E800070360020028000F0018000F0078000F042
:100E9000184B2DE9F0411F6D5B6D1F4000D5FEE73B
:100EA00001260025144CDFF85880374218D02368FB
:100EB000C8F85060A3B1A168284601316268A160FA
:100EC0009847637B012B0BD150B90C4B03EB4513B7
:100ED0001A7B60F341021A731A7F60F341021A779A
:100EE0000135082D4FEA460604F11004DDD1BDE8B6
:100EF000F08100BF000004507036002070350020E3
:100F000000200450024B1968024B18680AF02ABFEF
:100F10005C8200207C82002070B594002246054649
:100F20000E4628F02DF8431C0AD058B92246314607
:100F3000284625F0BEF90028034808BF002070BDF0
:100F40000248FCE70248FAE710E000F021E000F078
:100F500024E000F010B5044628F00EF8431C10D031
:100F600088B901F0C1FE234620F0030020449842D6
:100F700001D1002010BD53F8042B0132F7D00348F3
:100F8000F8E70348F6E70348F4E700BF0EE000F097
:100F900021E000F024E000F008B51FF09CFD014BBB
:100FA000186008BDE03D0020014B18681FF097BD98
:100FB000E03D0020044BD3F88420D206FBD4D3F8C4
:100FC0008400C0F3811070470040005038B5124BC8
:100FD0000546D3F880300C4603F00303022B0BD0F8
:100FE000032B0DD0012B0FD1FFF7CCFD0D2305B145
:100FF000286004B1236038BDFFF70EFE0723F6E733
:10100000FFF7BAFD0623F2E7044841F2FF1105F0AD
:1010100063F800231846EAE70080005021B903086E
:1010200038B51A4B0546D3F820010C4600F00700EE
:10103000062821D8DFE800F028040C1410181C0042
:10104000FFF79AFD052305B1286004B1236038BD80
:10105000FFF7C8FD0323F6E7FFF7DEFD0723F2E7FE
:10106000FFF7D6FD0223EEE7FFF786FD0623EAE74A
:10107000FFF7B8FD0423E6E7054841F27C2105F0BF
:101080002BF800231846DEE70123DCE70080005040
:1010900021B9030838B5194B0546D3F828310C4659
:1010A00003F00703013B052B20D8DFE803F003130F
:1010B0001B0F0B17FFF760FD052305B1286004B176
:1010C000236038BDFFF758FD0623F6E7FFF7A4FDC0
:1010D0000723F2E7FFF786FD0323EEE7FFF782FD24
:1010E0000423EAE7FFF794FD0223E6E7044841F210
:1010F000840104F0F1FF00231846DEE70080005071
:1011000021B90308F7B50027144B0197D3F88041A4
:10111000064604F00304022C0D4614D0032C0DD017
:10112000012C14D1394601A8FFF77AFF0F240EB124
:10113000019B336005B12C6003B0F0BDFFF76CFD7F
:1011400007240190F3E7FFF763FD0190EFE741F219
:10115000D131034804F0C0FF3C46E8E7008000506E
:1011600021B9030838B50F4B0546D3F890320C4629
:1011700003F00303012B09D0022B0BD1FFF74CFD29
:10118000072305B1286004B1236038BDFFF740FD97
:101190000223F6E7044841F2701104F09DFF00239A
:1011A0001846EEE70080005021B90308002337B548
:1011B0000193194B0546D3F820320C4603F0070380
:1011C000042B1FD8DFE803F025030F1419000021BA
:1011D00001A8FFF75FFF11230DB1019A2A6004B146
:1011E000236003B030BDFFF717FD07230190F3E73D
:1011F0001FF06BFC0A230190EEE7FFF74FFD092378
:101200000190E9E741F24301044804F065FF00233F
:10121000E2E70123E0E700BF0080005021B90308A6
:1012200038B5104B0546D3F840310C4603F00303A4
:10123000022B0BD0032B0DD0012B0FD11FF045FC3F
:101240000A2305B1286004B1236038BDFFF726FDED
:101250000923F6E71FF03CFC0B23F2E701230020F3
:10126000EFE700BF00800050002337B50193184B13
:101270000546D3F860320C4603F00703013B032B0D
:101280001FD8DFE803F0020E1914002101A8FFF7B0
:10129000C7FE0F230DB1019A2A6004B1236003B089
:1012A00030BD002101A8FFF7BBFF1023F2E7FFF7D5
:1012B000B3FC07230190EDE7FFF7AAFC022301909E
:1012C000E8E741F2E801034804F006FF0023E1E704
:1012D0000080005021B9030873B500240F4B01941E
:1012E000D3F87032064603F00303012B0D4607D0F6
:1012F000022B11D041F24611094804F0EDFE04E042
:10130000214601A8FFF78CFF10240EB1019B33602A
:1013100005B12C6002B070BD1424F6E700800050C7
:1013200021B9030838B5164B0546D3F800020C4620
:1013300000F00700042819D8DFE800F020030B0FA5
:1013400013001FF0C2FB0A2305B1286004B123601B
:1013500038BDFFF7A3FC0923F6E71FF0B9FB0B2309
:10136000F2E7FFF729FC0E23800AEDE7054841F27A
:101370008F4104F0B1FE00231846E5E70123E3E7BF
:101380000080005021B9030838B5164B0546D3F844
:1013900008020C4600F00700042819D8DFE800F026
:1013A00020030B0F13001FF090FB0A2305B12860E8
:1013B00004B1236038BDFFF771FC0923F6E71FF085
:1013C00087FB0B23F2E7FFF7F7FB0E23800AEDE71D
:1013D000054841F2C74104F07FFE00231846E5E7C7
:1013E0000123E3E70080005021B9030838B5104B12
:1013F0000546D3F840320C4603F00303022B0BD012
:10140000032B0DD0012B0FD11FF05FFB0A2305B179
:10141000286004B1236038BDFFF740FC0923F6E7DC
:101420001FF056FB0B23F2E701230020EFE700BF7C
:101430000080005038B5124B0546D3F850320C46A8
:1014400003F00303022B0FD0032B05D0012B0FD188
:101450001FF03BFB0A2302E01FF03AFB0B2305B110
:10146000286004B1236038BDFFF718FC0923F6E7B4
:10147000044841F2B40104F02FFE00231846EEE7C1
:101480000080005021B9030838B5104B0546D3F849
:1014900060310C4603F00303022B0BD0032B0DD05D
:1014A000012B0FD11FF011FB0A2305B1286004B1F5
:1014B000236038BDFFF7F2FB0923F6E71FF008FBB6
:1014C0000B23F2E701230020EFE700BF008000506C
:1014D000B0F5207F10B52ED009D8B0F5007F24D00C
:1014E00003D868B1B0F5C07F0AD000241BE0B0F586
:1014F000607FFAD1124BD3F88040C4F3011412E09C
:101500000F4B1C6F230B13F00E0FC4F303340AD0E0
:10151000072C08D00F2C06D0032C04D040F28621D3
:10152000084804F0D9FD601C10BD054BD3F890406D
:10153000C4F30464F7E7024B1C6FC4F38024F2E7A2
:101540000080005021B903084FF4803238B5104BA9
:1015500004469A6600200D46FFF7BAFF41F6713245
:101560000C4B6043DC69DA635A6804F4803422F47B
:1015700040125DB90849884294BF0020012000054F
:1015800002435A600CB10022DA6338BD0349F2E726
:101590000090005000000350005A6202002D3101FB
:1015A00038B5430904460D460ED140F233310D489B
:1015B00004F092FD002304F01F0485B103F580536D
:1015C0000122A2401A6038BD012B04D0022B04D0A6
:1015D00040F24131EBE7044BEDE7044BEBE703F559
:1015E0000053EDE721B90308648000506880005083
:1015F000002130B5B0F5807F85B00446CDE90011FB
:1016000000F006816BD8002800F0DB80A0F12004F8
:10161000602C75D8602C73D8DFE814F0D300E0009C
:10162000D300E000F000F000F000F000F000E00077
:10163000F5007E000B019E007E00E000E000E0006F
:1016400072007200720072007200720072000B0170
:10165000E000E000E00023011001E00072007200F1
:1016600072007200720072007200720072007200EA
:10167000720072001501F000D300D300D300B10056
:101680007E007E00B9001A019300C800C8007200F5
:10169000720072007200D300720072007200720059
:1016A00072007200720072007200720072007200AA
:1016B000720072007200720072007200720072009A
:1016C000720072007200720072007200720072008A
:1016D000720072007200720072007200CD00B0F5EC
:1016E000E06F00F0AB803CD8B0F5607F00F0818007
:1016F0001DD8B0F5007F67D008D8B0F5C07F60D0A6
:101700004FF49361594804F0E7FC57E0B0F5207FAF
:1017100064D0B0F5407FF3D1FFF74EFA04464FF4A2
:101720002070FFF7D5FEB4FBF0F464085FE0B0F57D
:10173000B06F68D00AD8B0F5806F5FD0B0F5A06FF9
:10174000DED100216846FFF731FD37E0B0F5C06F0C
:101750006FD0B0F5D06FD3D100216846FFF7E2FD1E
:101760002CE0B0F5286F73D016D8B0F5186F6AD09A
:101770000AD8B0F5F06F74D0B0F5106FC0D1002169
:101780006846FFF701FE19E0B0F5206FB8D10021DF
:101790006846FFF769FD11E0B0F5306F5DD0AFD35B
:1017A000B0F5386F45D0B0F5406FA9D1002168463B
:1017B000FFF770FC02E0FFF7E5F90090009805B034
:1017C00030BDFFF7F9F9F8E7FFF7DCF905462046E9
:1017D000FFF77EFEB5FBF0F50095EFE7FFF7ECF9BC
:1017E00004464FF42070FFF773FEB4FBF0F400944E
:1017F000E4E701A8FFF7EAFB019DE8E7002168465E
:10180000FFF70EFCDAE700216846FFF77BFCD5E71F
:101810004FF0E02302911B695B0705D5FFF7CCF978
:101820000290029B0093C9E703A902A8FFF7F8FC06
:10183000F7E700216846FFF7F3FCBFE700216846A1
:10184000FFF7D4FDBAE700216846FFF7F3FDB5E7DF
:1018500000216846FFF740FDB0E76846FFF782FCCD
:10186000ACE700216846FFF70FFEA7E721B90308A0
:1018700008B58020FFF7BCFE034B98429EBF4FF493
:101880008032024B1A6708BD005A620200A0005065
:101890001FB503460020B3F5607F019000F00E8174
:1018A0007BD8582B68D8382B05D8243B092B49D92D
:1018B00040F27D51CEE0393B1F2BF9D801A252F8FE
:1018C00023F000BF771A0008B1180008B11800080B
:1018D000B1180008811A0008CF1A0008B1180008D2
:1018E000B1180008B1180008B1180008B1180008B4
:1018F000B1180008B1180008B1180008B1180008A4
:10190000B1180008B1180008B1180008B118000893
:10191000D91A0008C1190008B1180008B118000848
:10192000B1180008051A0008B1180008B11800081D
:10193000E31A0008ED1A0008C51A0008271A000863
:10194000271A0008092BB3D801A252F823F000BFD0
:10195000C1190008C1190008C1190008C1190008FF
:10196000C1190008B11800085D1A0008B118000874
:10197000771A0008DF190008802B59D0B3F5807F53
:1019800096D14FF0E02302901B695B076ED5FFF7FD
:1019900013F90C230393039B56E0B3F5086F74D03F
:1019A00022D8B3F5C06F66D00FD8B3F5A06F00F0A2
:1019B0008980B3F5B06F51D0B3F5806F7FF478AF05
:1019C000002001A9FFF72CFB4CE0B3F5E06F7ED0BF
:1019D000B3F5F06F54D0B3F5D06F7FF469AF00204A
:1019E00001A9FFF79FFC3DE0B3F5286F7ED00ED82C
:1019F000B3F5186F70D0B3F5206F72D0B3F5106FD8
:101A00007FF456AF002001A9FFF7BEFC2AE0B3F532
:101A1000306F70D0FFF44CAFB3F5386F2BD0B3F507
:101A2000406F7FF445AF002001A9FFF733FB19E0B9
:101A3000334B1B6F03F00703013B032B08D8DFE890
:101A400003F005023139052301930BE00223FBE784
:101A500040F2CA412B4804F03FFB03E0002001A9FB
:101A6000FFF750FB019805B05DF804FB03A902A83D
:101A7000FFF7D6FB8FE7002001A9FFF7D1FBF1E7C5
:101A8000002001A9FFF700FDECE71D4BD3F8003162
:101A900003F00303022B07D0032B09D0012B0BD13A
:101AA000FFF7A0F80323CFE7FFF7F8F80923CBE708
:101AB0001FF009F80823C7E70123C5E701A9FFF7CD
:101AC00085FACFE7002001A9FFF770FBCAE70020E5
:101AD00001A9FFF78BFCC5E7002001A9FFF7AAFCCD
:101AE000C0E7002001A9FFF7BFFBBBE7002001A969
:101AF000FFF7F2FBB6E701A9FFF734FBB2E700BF3F
:101B00000080005021B903084FF48012034B5A663D
:101B10004FF48032024B9A62704700BF0090005031
:101B20000050005AF8B5036804460F2B04D940F65C
:101B30007731804804F0D0FA63680F2B04D940F65F
:101B40007A317C4804F0C8FAA3680F2B04D940F618
:101B50007D31784804F0C0FA237B0F2B04D94FF471
:101B60003861744804F0B8FA637B0F2B04D940F64F
:101B70008331704804F0B0FAA37B3F2B04D940F6C0
:101B800086316C4804F0A8FAE37B3F2B04D940F679
:101B90008931684804F0A0FA2369032B04D940F680
:101BA0008C31644804F098FA6369032B04D940F639
:101BB0008F31604804F090FAE369032B04D940F6B2
:101BC00092315C4804F088FA8020FFF761FE032818
:101BD00000F08A804FF48012574B584D5A6645F6F4
:101BE0000E034FF0A062C5F88030554B9A624FF457
:101BF000803203F580539A62AB6DDA03FCD4AE6D8C
:101C000016F08046FBD1D4E900231B0543EA0263AA
:101C1000E27B4C481343227B4B4F43EA0243627BF7
:101C200043EA0233A27B43EA82132B61AA69D4E917
:101C300004131B0643EA816302F000421343A27EB1
:101C40004FF440611343227E43EA0243627E43EA3B
:101C50000223AB614FF400621EF08AFF2B6AE17E23
:101C6000E26923F00F0343EA8103002A3DD12B628E
:101C700094F8243094F82010AA6ADB0043EA411358
:101C80003A40134394F82120304943EA021343F4C5
:101C900080332A4AAB62936D31EA0303FBD14FF0E4
:101CA0008071274881621369A56823F4700343EAB1
:101CB000055313614FF00043836194F822300BB950
:101CC000234B996294F823303BB94FF48032204B78
:101CD0009A621A4A936D5B00FCD494F825301BB1CC
:101CE000164B1C4AC3F88020F8BD134343F0080389
:101CF000022A2B6208D12E614FF408524FF47F4123
:101D00001548AE611EF034FF0C4994F822308A6AFF
:101D100094F820001B063A4043EA4013134394F81A
:101D2000242043EAC20394F8232043EA02438B624F
:101D3000D3E700BF21B90308009000500040005ACB
:101D40000050005A3840005AC7FFFEFE0300010051
:101D50000060005AF1A7FFFF3440005A014B93F98D
:101D60000000704728850020436810B5072B044603
:101D700004D940F6D3512A4804F0AEF9A368032BE6
:101D800004D940F6D551264804F0A6F92378032B50
:101D900004D940F6D751224804F09EF994F9013055
:101DA000002B04DA40F6D9511D4804F095F94FF4A0
:101DB00000011C4A637851664FF4D151022002F5AC
:101DC000B832516218494F2B48604FF0010028BFCC
:101DD0004F2301F5805148601169C903FCD4217873
:101DE00043EA01235361D4E901131B0143EA0123B0
:101DF000617B0B43217B43EA41039360E37BA17B3F
:101E00001B0143EA4113617C0B43217C43EA4103FC
:101E10005360A37C13B16FF4D153536210BD00BF64
:101E200021B903080090005000100250014B1880A7
:101E3000704700BF56840020014B1880704700BFD8
:101E400054840020B0F5207F38B577D00ED8B0F597
:101E5000007F61D003D890B3B0F5C07F2FD040F29F
:101E60001631BDE838403D4804F036B9B0F5607F22
:101E7000F5D13B4A4C1ED2F8FC5015F080751EBFC0
:101E8000D2F8FC3023F08073C2F8FC30032C04D964
:101E900040F2F521314804F01FF9324AD2F880307F
:101EA00023F0300343EA0413C2F8803035B12C4AE2
:101EB000D2F8FC3043F08073C2F8FC3038BD4C1EC1
:101EC000012C0AD9102903D8274BCB40DB0704D4B7
:101ED00040F2C921214804F0FFF81EF058FE1EF020
:101EE00064FE4FF48031214B1E4A1967136F23F4AF
:101EF000704343EA04331367FEF75EFE0446FFF7C0
:101F000059F8C0F1020120461EF049FE00F040F8E9
:101F1000BDE83840FFF7ACBC4C1E1F2C04D940F282
:101F20000A310E4804F0D8F80E4AD2F8903023F067
:101F3000F85343EA0463C2F89030BFE74C1E012C0B
:101F400004D94FF44471054804F0C6F8054A136FEC
:101F500023F4806343EA84231367AFE721B90308BE
:101F600000ED00E0008000501001010000900050E2
:101F700008B50121022000F02FF81EF008FE1EF027
:101F800014FE4FF48032014B1A6708BD00900050D8
:101F900008B54FF4C070FFF72BFBBDE808400449BB
:101FA000884294BF012102214FF42070FFF74ABFFD
:101FB00080F0FA02024A536B0342FCD1704700BF23
:101FC00000400950034A0179D36E23F030030B43DC
:101FD000D366704700400050F8B50446244BD3F850
:101FE0008420D006FBD4D3F88430C3F381139C4201
:101FF0003CD0FEF7C7FD012C05460BD11D4B984286
:1020000004D940F2B7711C4804F066F80121284653
:102010001EF0C5FD1EF05FFD4FF00072174B074626
:102020005A6620461EF0DDFD4FF48063104E621E9E
:1020300093403367736E9A0103D4D6F884309B06BD
:102040000AD538461EF04BFD022C0FD12846BDE8BC
:10205000F84000211EF0A3BDD6F884309906E9D5DA
:1020600040F2C571044804F037F8E3E7F8BD00BF5B
:1020700000400050005A620276B903080060005028
:1020800010B50C4608B9FEF77DFD074B21461B78BD
:102090003BB1064B984204D80120BDE81040FFF741
:1020A0009BBF0220F9E700BFD9630020005A6202FB
:1020B0004FF0004238B5244B244C5A664AF6CD33D3
:1020C000656C014605F00105236428BB0120FFF77C
:1020D00071FF6368DB0715D51D4B586008461D4B23
:1020E000226BD2070CD4984208D1072415B1174BA4
:1020F000194A1A6423F037FC204638BD0130EFE757
:102100009842F2D00024F1E70132236B13F0080368
:1021100005D08A42F8D1E8E700220E49F5E78A4265
:10212000E3D020210A4A91620121A2F58052516038
:102130000649084A886A800603D49342D5D0013301
:10214000F8E79342DDE700BF0090005000400950DF
:102150000060095040420F003254FFFF4FF0004230
:1021600038B5164B01465A664AF6CD33144C154A1B
:10217000656C236443780B205B0043F00103D36359
:10218000FFF718FF63688A7823F4F87343EA0213B1
:102190006360CA784B7943EA0223A3600A798B799A
:1021A00043EA022323610878FFF782FFEB0744BF6D
:1021B000054B236423F0D7FB012038BD009000506D
:1021C00000400950004000503254FFFF0F2870B506
:1021D000044605D940F65261124803F07DFF0F24F2
:1021E0004FF00042104B11495D6E03F580535A6663
:1021F0004AF6CD334E6C80200B64FFF7DBFE0B6A92
:1022000023F00F0323430B62F30744BF084B0B6417
:10221000002DA2BF4FF00042064B5A6623F0A3FBED
:1022200070BD00BF76B9030800800050004009501F
:102230003254FFFF00A000504FF00042104B70B529
:102240005D6E03F580535A664AF6CD3304460D4958
:1022500080204E6C0B64FFF7ADFE0B6A23F4F8533D
:1022600043EA04230B62F30744BF074B0B64002DC2
:10227000A2BF4FF00042054B5A6623F074FB70BDBD
:1022800000800050004009503254FFFF00A0005071
:1022900010B51EF0ABFC202341F2020203610023C3
:1022A000C360836042614FF4A022074983614262A8
:1022B00000F50052C36103628362C3624363036536
:1022C000D164036310BD00BFFF3F0D0338B5194B48
:1022D000044698420D460BD0174B984208D003F5A0
:1022E0008043984204D040F26911144803F0F4FE90
:1022F00025B92046BDE838401EF078BC012204F51F
:1023000080535A6040F6FF71204605F00F021EF020
:1023100069FCA26378211EF065FC05F001036A07E1
:1023200048BF43F00203A26C02F003029A42FAD1C2
:1023300038BD00BF0000015B00000A50CBB90308A4
:10234000F8B505460C46164622B940F227216D48DD
:1023500003F0C2FE6C4B9D4202D1BCB9562411E081
:102360006A4B9D424FD003F580439D4247D040F2D7
:102370002A21644803F0B0FE44B940F27931614843
:1023800003F0AAFE2046FFF733F90446AB68D907ED
:1023900049D5B44204D24FF40D715A4803F09CFE63
:1023A000B4FBF6F46F68013CFF2C07F0010704D979
:1023B0004FF40F71534803F08FFE24066FB32821AA
:1023C00028461EF00FFCAB6C9A0720D1AB6CDB07E4
:1023D0001FD4AE6C16F002061DD140F249214948C7
:1023E00003F07AFE28461EF001FC2B69314623F0EB
:1023F0007F4323432B61BDE8F840FFF767BF002C04
:10240000C4D15824BEE7002CC0D15724BAE7052612
:10241000E8E70926E6E70626E4E72B6923F07F4391
:1024200023432B61F8BD6B68012B04D04FF4177167
:10243000344803F051FEAB6803F0E003402B42D078
:1024400009D893B1202B1AD040F29E21BDE8F84064
:102450002C4803F041BE602B42D0802BF4D106EB18
:102460004603A34247D801230DE0B6EB141F04D95D
:102470004FF42171234803F02FFE102303E0B6EB45
:10248000D40F1AD8082373436401B4FBF3F4204F2C
:10249000203CB7EBC40F4FEAC40604D240F2A92196
:1024A000184803F019FE28463E4001211EF09AFB11
:1024B0002E63BDE8F8401EF095BB40F2892111481B
:1024C00003F00AFEDEE70623B4FBF3F3B34201D3C5
:1024D0000623D8E740F28E210A4803F0FDFDF7E716
:1024E000B6EB940F01D80423CDE740F293210548C1
:1024F00003F0F2FDF7E74FF42671024803F0ECFD1C
:10250000B1E700BFCBB903080000015B00000A502F
:10251000F8FF7F00436870B504460D4616461BB1B0
:1025200040F6FF711EF05EFB2046FFF7B1FEE98921
:102530006B7B62690B43298A22F44C520B4322F0D5
:102540000F0213436361A2682B7B297E22F0804235
:1025500022F0E2020B4313436A691343A360AB68A2
:102560001BB9A36843F00043A360EB69002B72D052
:10257000987A1A7A4004A16840EA82505A4A0A407E
:1025800010439A8802F4C04210435A7840EA82000D
:102590005A7B40EAC2009A7B40EA02109A7840EAED
:1025A0008220A060D3E90421E0680A434F4901403A
:1025B0000A43997942EA8122D97942EA4122E260CA
:1025C0001A784B49012A12D1E26842F00402E26013
:1025D0008C4265D0474A944264D002F580429442CE
:1025E0000CBF02224FF0FF324349520113E0032A8D
:1025F0004ED1E26842F00402E2608C424CD03D4A87
:1026000094424BD002F5804294420CBF02224FF01C
:10261000FF323A495201114402224A605A7A04F5C3
:1026200080518A621AB1E26842F40062E260DA7AAA
:102630005AB1E26842F40042E2602D4A944233D13A
:102640001A7B2F4902F00F024A66626ADB7B22F096
:102650000302134363623EB196F8203004F58051C3
:10266000002B33D001230B6205212046FFF72EFEFD
:10267000AA681AB120466968FFF762FE20462978E9
:10268000FFF724FEA36CDB4313F4405FFAD170BD67
:10269000023A012AB1D99BE70022BAE70122B8E742
:1026A0000022A1E701229FE7124A944205D11A7B3A
:1026B000134902F00F020A67C7E7124A944201BFAA
:1026C0001A7B0F4902F00F02CA67BEE7E26996F86B
:1026D000223096F8210022F009020343134343F00D
:1026E0000103CB61C0E700BFE39BBDFFFFF9F087AB
:1026F0000000015B00000A50C0E40350C0D4035046
:102700000090035000400A5038B5154B04469842DB
:102710000D460AD0134B984207D003F580439842E8
:1027200003D07021104803F0D7FC1DB972210E4868
:1027300003F0D2FC2B7B802B03D176210A4803F0D7
:10274000CBFC6B7B032B03D97921074803F0C4FC36
:1027500029462046BDE838400022FFF7DBBE00BF17
:102760000000015B00000A50CBB90308032838B50C
:1027700004460D4605D8094B33F81030CB40DB0733
:1027800004D440F22D41064803F0A6FC3023012278
:102790005C43044BAA401A5138BD00BFD0BA0308AD
:1027A00023BA030840D00350032838B504460D4629
:1027B00005D8094B33F81030CB40DB0704D440F286
:1027C000FE31064803F088FC302301225C43044BB1
:1027D000AA401A5138BD00BFD0BA030823BA030873
:1027E00040E0035003282DE9F04104460D4617460A
:1027F000984605D81D4B33F81030CB40DB0704D486
:102800004FF4B0711A4803F067FC37B129462046EF
:10281000B8F1000F20D0FFF7A9FF0F21072D04EB1F
:10282000440688BFA5F108034FEA0616114895BF74
:10283000AB009B0004360C3607FA03F29940304493
:102840001EF0EEF97FB929462046B8F1000F06D0F8
:10285000BDE8F041FFF78ABFFFF7A6FFDDE7BDE85F
:10286000F041FFF7A1BFBDE8F08100BFD0BA030877
:1028700079BA030830C0035010B5044618B9912145
:102880001F4803F029FC23781B0613F0604F03D088
:1028900092211B4803F020FCE3780F2B03D9A321DE
:1028A000174803F019FC01212020FEF779FE0121D1
:1028B0002120FEF775FE0122124B16205A60227865
:1028C00012069A606178A27842EA01429A61FF2278
:1028D0009A6200229A631A644FF000425A654FF0E0
:1028E000FF3203F500531A6502F03EF91620E17835
:1028F00002F048F9BDE81040162002F01BB900BFF5
:10290000D8BA0308000004502DE9F0410126C3B2F3
:10291000072805460C46174606FA03F603DDEC21A8
:10292000384803F0D9FB1CB9ED21364803F0D4FB3D
:10293000236823F47C1323F00F031BB1F0213148EB
:1029400003F0CAFBA37A1B0413F47C0F04D040F2FB
:1029500009112C4803F0C0FBE37A1B0513F07E6FCE
:1029600004D040F20B11274803F0B6FB237B5B0534
:1029700013F0FE5F04D040F20D11224803F0ACFBCF
:10298000214BDFF88C801E65AB00226803F1A04369
:1029900003F588235A60302202FB0585637B27F00C
:1029A00003072B66E37AA27A1B0543EA0243227BE4
:1029B00043EA4253EB652F671EF094F8134B5E65B4
:1029C000237A23B1D8F840303343C8F84030637AD3
:1029D00023B1D8F838303343C8F838302279A37996
:1029E00043EA0243084A93616179E37943EA014388
:1029F00006498B61064B56639E64BDE8F0411EF0AC
:102A000077B800BFD8BA0308002004500010045063
:102A10000000045010B50124C3B2072804FA03F4DF
:102A200004DD40F29711074803F056FB1EF05AF8F8
:102A3000054B5A6D22EA04025A659C62BDE81040BB
:102A40001EF056B8D8BA030800000450F8B50125A6
:102A5000C3B20728044605FA03F504DD4FF4EE710E
:102A60000C4803F039FB1EF03DF830220A4B1E6D76
:102A70005F6B02FB04335C6E1EF03AF83D4206D1F8
:102A8000C4F30A1008B9354200D10130F8BD002066
:102A9000FCE700BFD8BA0308000004504FF48032AE
:102AA000054B9A6641F6713203F51C33DA63012255
:102AB00003F50053DA6070470090005041F6713220
:102AC0000121064BDA6303F50052D1600022DA637C
:102AD0004FF48032A3F518339A6670470000035014
:102AE000242808B515D820280AD8012819D00C2880
:102AF00019D018B1B6210E4803F0EEFA002007E015
:102B00002238022811D8DFE800F002080A0002206B
:102B100008BD3228EED10620FAE70420F8E70520A8
:102B2000F6E70320F4E70720F2E70120F0E700BF13
:102B3000D8BB03080C2810B50C4628D003D80128B0
:102B40001CD0204610BD242810D82028F9D9042CE8
:102B50000FD801A353F824F0432B0008432B00089F
:102B6000432B0008432B0008432B00083228EED0EB
:102B7000E7E7F6210B4803F0AFFAE2E70129E0D0DE
:102B80000229DED00029DCD040F20711F2E7022949
:102B900004D0032904D04FF48B71EBE70024D0E775
:102BA0000124CEE7D8BB030870B50546C2F306265C
:102BB00002F0070479B90B2804D94FF4FC710F48CF
:102BC00003F08AFA44EA062444F4402406350C4B08
:102BD00043F8254070BD032804D940F2FD11074891
:102BE00003F07AFA21463046FFF7A4FF0446304648
:102BF000FFF776FF123544EA0024E8E7D8BB030864
:102C00000080035010B542EA03420A4C51B90A4B06
:102C100043F82020D4F84826012383401343C4F806
:102C2000483610BD054B43F82020D4F848260C3018
:102C3000F2E700BF00C003504CC603507CC60350EF
:102C40000B2870B504460D46164604D940F2822181
:102C50000C4803F041FA0B2D04D940F283210948B6
:102C600003F03AFAA00000F1A04000F5603083695B
:102C70002D0623F0706345EA064523F470231D43B7
:102C8000856170BDD8BB03084FF48032084B5A668B
:102C900003F5E6239B69C3F3461203F00F010A43D1
:102CA0004280C3F30342C3F303334270037070479F
:102CB0000090005040F6B732064B5B689BB29342DF
:102CC0009FBF4FF47A72B3FBF2F3034AD05C88BF24
:102CD000002070470080E00F2DBC0308014B986C6A
:102CE000D96C70470080E00F0120034B9B680A33CA
:102CF00003F01F03984070470080E00F034B5A68B1
:102D0000D20702D5DA69002AF9D1704700800A504B
:102D1000054B9A689107FCD45A689207F9D4DA698E
:102D2000002AF6D1704700BF00800A5008B5FFF7AF
:102D3000E5FF0222014B1A6108BD00BF00800A5066
:102D400008B5FFF7E5FF0122024B03F580514A6009
:102D50001A6108BD00800A5008B5044B5968012962
:102D600003D1FFF7E3FF024B596008BD00800A5012
:102D700000A00A5010B5064CFFF7CAFF6368012B8C
:102D800003D1FFF7E9FFFFF7C3FF0378E36010BD4E
:102D900000800A50A8B94A680B78B2B94A7843EA69
:102DA00042038A6812B1127843EA82138A7843EAAE
:102DB0008203CA6812B1127843EA4223054A936437
:102DC00070477E21044803F087B9127843EAC203B2
:102DD000E4E700BF00800A5030BC030810B9044B80
:102DE0005964704740F21111024803F075B900BFF1
:102DF00000900A5030BC030810B9044B5964704766
:102E000040F24D11024803F067B900BF00A00A501C
:102E100030BC030810B9044B1964704740F28911A3
:102E2000024803F059B900BF00A00A5030BC0308A3
:102E300008B510B9044B186C08BD04484FF4E27192
:102E400003F04AF90020F7E700800A5030BC03087D
:102E500008B520B949B101290AD0002008BD40F2C7
:102E60007321054803F038F9F7E7044BD86CF5E710
:102E7000024B186DF2E700BF30BC030800800A5017
:102E800018B939B1012908D0704740F2113104480E
:102E900003F022B9034BDA647047024B1A6570479E
:102EA00030BC030800800A5038B50446064D22F0B5
:102EB000DCF80FCC0FC50FCC0FC594E80F0085E8E8
:102EC0000F00002038BD00BFE43D002047F6FF732F
:102ED0009A42F0B56FD009296FD8394B5B5C042B4F
:102EE0006BD8384DDF0005EBC30415F83330A178FB
:102EF000012B13D10025E078401AA84202D80844DB
:102F0000C0B2F0BD431B6668A0EB530336F91360F3
:102F10009642D4BF1D4603F1FF30EEE760680028FB
:102F2000EFD0B0F90040944204DBB0F90240944283
:102F3000B8BF144683883D44FF2B19BFC8224FF009
:102F4000280CB0F90620B0F908C0A2EB04030CBFAE
:102F50000126002693FBFCF333446E781BB29E429D
:102F600001DD002B01DA731E1BB24FF47A7C0133B2
:102F70009BB2071D5D1E2DB24FEAC50E00EBC505C5
:102F8000EA88AD689E4214FB025222EAE27202F124
:102F90005C02B2FBFCF204DD37F83350013395429A
:102FA000E8D200EB0E039888904228BF1046884272
:102FB00038BF0846A4E7FF20A3E70020A1E700BF31
:102FC00091BC0308E43D00200929F0B555D82C4BED
:102FD000585C042851D82B4C04EBC00114F8300085
:102FE0004B6801280FD1C8788C78904294BFC4EB0D
:102FF0000001C4EB0201001BCAB28242C8BF00221A
:1030000033F91200F0BD002B37D08878904202D3FC
:10301000B3F90200F6E7CC78B3F900009442F1D995
:103020004C789988013CA1F1FF06714203F1040537
:10303000E4B2714103F10C07CEB2B44216D805EBED
:10304000C1014FF47A756A43B1F902404968521AD6
:1030500004EBD47102EB610292FBF4F29042D1DBFB
:10306000B3F902009042CDDC10B2CBE737F831C0A3
:103070004E1C9445E3D33146DEE70348C2E700BF68
:1030800091BC0308E43D00200080FFFF08B5044820
:10309000FFF70AFFBDE80840012022F010B800BF8A
:1030A0009CBC0308004870475E84002000487047BD
:1030B000588400207FB50222084B0949CDE901233D
:1030C0004FF04073CDE90313052301A94FF0FF3002
:1030D000059321F0F6FF07B05DF804FB00D4300043
:1030E0000003040001282DE9F04147F60773064666
:1030F0000F4614BF062400249046114AA11D52F821
:1031000021501D4007D001340C2CF7D142210D482D
:1031100002F0E2FF10E02B46042239463046FFF76A
:1031200061FB424629462046FFF73EFD32462946CE
:103130002046FBB2FFF766FD2046BDE8F08100BFE8
:103140000080035048BE03082DE9F04103F0F8FB6E
:103150000128074624D903F027FC051E03DA0124C1
:103160002046BDE8F081204B1B78002B3AD100248B
:103170004FF050081D4E06F110033046C6E90044DA
:10318000B360C6F80C8003F081FD306680B901247D
:10319000012FE5D9284603F029FC0028E0DADEE714
:1031A000114B1B7803F0FF05002BE0D00024D7E77C
:1031B0000F4E214606F1100332460120C6E90044B5
:1031C000C6E9023803F02CFE30660028DFD0032168
:1031D000432001F0D7FC432001F0ACFC0122024B5C
:1031E0001A70D5E70024D5E7DA630020783E002086
:1031F000143E0020B0F5A02F08B50CD015D8B0F5BE
:10320000003F26D009D838B1B0F5803F23D0F42153
:10321000154802F061FF012008BDB0F5403F1CD009
:10322000B0F5802FF3D14B20F6E7B0F5202F16D064
:1032300007D8B0F5C02FEED0B0F5E02FE7D12120B0
:10324000EAE7B0F5302F0CD0B0F57F0FDFD10620C4
:10325000E2E72A20E0E74820DEE72C20DCE7102028
:10326000DAE71120D8E700BFD7BE030808B503F09E
:1032700067FB02280FD1094B4FF0FF31186E03F0A6
:103280004FFD002814BF0120002003D14FF48062BD
:10329000034B9A6608BD0020F8E700BF783E002087
:1032A000009000504FF4806208B5084B9A6603F016
:1032B00047FB022807D1064B186E03F061FD00386A
:1032C00018BF012008BD0020F9E700BF00A0005092
:1032D000783E002008B54FF098435B6CD9020ED5BC
:1032E00003F02EFB0238012809D80C4B186E03F0AE
:1032F00025FE20B140F23111094802F0EDFE4FF0F9
:1033000098435A6CD202FCD55B6D064A03F47023D5
:1033100013604320BDE8084001F026BC143E0020A5
:10332000D7BE03088082002010B5044600283BD099
:10333000FFF79CFF002838D1204600F04FFB94F89F
:10334000203043B94FF098435A6CD202FCD55C6DE3
:1033500004F4702412E04FF09844A36D43F002038C
:10336000A36503F0EDFA022810D0A36D23F0020349
:10337000A3654FF4A0220D4B1C681A60FFF792FF63
:103380009CB12046BDE81040FFF734BF084B4FF01A
:10339000FF31186E03F09CFDA36D23F00203A365BB
:1033A0000028E6D0012000E0212010BD808200200E
:1033B000143E00202DE9F04F97B0894615469A46F5
:1033C0000446209FDDF88880DDF890B0269E002816
:1033D00000F09D80002900F09A80002E40F08A8045
:1033E000002B00F09480B8F1000F0AD0219B002B35
:1033F00000F08D80002A40F09F80F10700F1878067
:1034000002E0002A40F08580FB1F062B7FD8524B3C
:103410000BEB05029A427AD80023504A4846C4E989
:103420000023A360E36113A91DF0F5FC00285ED121
:103430002046139900F0C2FA204646EA074100F000
:10344000BDFA4146204600F0B9FA2946204600F070
:10345000B5FA484601A900F04FFA002847D12046A6
:1034600001A91DF07DFE484604A91DF0D3FD0028EA
:103470003DD14FF00109204604A91DF071FE239BA8
:1034800045F000550793219BCDF8209020460995E3
:103490000DA90A9347F0005748F00053CDF82C903F
:1034A0000C93CDF834A0CDF838900F971DF058FE4E
:1034B00020460AA91DF054FE204607A91DF050FE23
:1034C000259B204610A946F00056CDF840B0CDF817
:1034D000449012951393CDF8509015961DF04AFE26
:1034E000204613A91DF046FE2046FFF71DFF17B02A
:1034F000BDE8F08F259B53B1BAF1000F07D0B8F1AA
:10350000000F01D0219B13B1B5B9022E20D121208B
:10351000EDE7239B002BFAD0BBF1000FF7D0C7F1EA
:103520000F03DBB2032B3FF668AF0122DB0002FA88
:1035300003F3AB42EBD9E8E7239B002BE7D0BBF1C9
:10354000000FE4D0C7F10F03DBB2032BDDD8ECE7AB
:10355000102E7FF652AFDAE70000042000000504C9
:103560002DE9F04F99B0884615469B460446229FA8
:10357000DDF89890289E60B159B1279B4BB1BBF103
:10358000000F06D0249B0BB1239B13B11DB9022E53
:1035900013D121239AE0259B002BFAD0B9F1000F1B
:1035A000F7D0C7F10F03DBB2032BF0D80122DB0009
:1035B00002FA03F3AB42ECD9E9E7731E0F2BE8D80C
:1035C00016F0010AE5D1FB1F062BE2D8414B09EBAF
:1035D00005029A42DDD8404B4046C4E9003AC4F89F
:1035E00008A0C4F81CA015A91DF015FC034600286E
:1035F0006CD12046159900F0E1F9204646EA0741D2
:1036000000F0DCF92046249900F0D8F9294620463C
:1036100000F0D4F9404603A900F06EF903460028F3
:1036200054D1204603A91DF09BFD404606A91DF07C
:10363000F1FC0346002849D14FF00108204606A9B5
:103640001DF08EFD259B2046099345F00053CDF8D3
:10365000288001930B93239B0FA90C93249B47F085
:10366000005743F00052CDF834800E92CDF83CB0B4
:10367000CDF8408011971DF073FD20460CA91DF078
:103680006FFD204609A91DF06BFD019B204612A984
:10369000CDF84890CDF84C8014931DF06BFD279B1E
:1036A000204615A946F000561593CDF85880179678
:1036B0001DF056FD2046FFF737FE034630B101905E
:1036C0002A465146484622F01EFE019B184619B074
:1036D000BDE8F08F00000420000006042DE9FF473C
:1036E0004FF000080E4617460446CDF8008000282B
:1036F00059D022B90025284604B0BDE8F08700293A
:1037000051D032F0030902F0030A1FD04FF0E063FA
:10371000C0E9003801230191C0F808800293C0F885
:103720001C8049F0005301A903931DF023FD494675
:10373000204600F043F92046FFF7F6FD054628B184
:103740004A464146304622F0DEFDD4E7BAF1000F8A
:10375000D0D04FF000084FF0E063C4E900380123F7
:10376000CDF804D00293114B204601A9C4F808807B
:10377000C4F81C8003931DF0FDFC0421204600F0DA
:103780001DF92046FFF7D0FD054608B13A46D8E7B7
:10379000009A4E44EB00013522FA03F3AA4506F8DD
:1037A000013BF7D1A6E72125A5E700BF04000020D3
:1037B000F0B50F4616461D46044693B010B92120B9
:1037C00013B0F0BD0029FAD0002AF8D0002BF6D0B3
:1037D000002331461A4638461DF0C2FA0028EFD1C0
:1037E000304602A91DF058FA0028E9D1EB68022BF7
:1037F0000AD039683F48029A81426B6902D018307A
:10380000814270D19A42DAD82B68002BD7D14FF081
:1038100060623846C4E90023A360E36101A91DF09A
:10382000FAFA0028CCD10199204621F4F0610191E7
:1038300000F0C4F8694628461DF0EDFA0028BFD113
:103840002046009900F0BAF8384609A900F054F86B
:103850000028B5D1204609A91DF082FC38460CA9E4
:103860001DF0D8FB0028ABD120460CA91DF078FC38
:10387000EB684BB1284606A900F03EF800289FD11E
:10388000204606A91DF06CFC304603A91DF0C2FBC2
:10389000002895D1B368DA040CD59B0427D50621FE
:1038A000F36932691B6801FB03225B0043F000539C
:1038B00003920593204603A91DF052FC28460FA948
:1038C0001DF0A8FB00287FF47BAF20460FA91DF058
:1038D00051FC03252046FFF727FD01287FF470AF38
:1038E000013DF7D16CE7B3EB420F8DD267E729209A
:1038F00066E700BF200000B090B189B101234B60A2
:10390000C368013B012B08D88269064B1AB10A60D3
:1039100000208B607047044AF9E74FF00053F7E747
:10392000212070470800002050BF030870B50C46E6
:1039300005468CB000283BD0002939D003AE2422A4
:103940000021304622F0DFFC00231A4AAB60C5E9B3
:103950000023EB61012300960193174B694628462B
:1039600002931DF007FC2846FFF7DEFC0246D0B9A3
:10397000039B04F10C00E361059B079D2362089BF8
:1039800025606360099B0A99A3601DF0B4FB0B9B43
:10399000DB070BD50B9B012B8CBF00230123C5F349
:1039A00000252376657610460CB070BD1346F6E709
:1039B0002122F8E7000001FE24000020C369032B48
:1039C00003D9F221044802F087BB00EB83020133E4
:1039D000D160C361704700BF58BF0308C369042B9F
:1039E00015D84FF09842116CC902FCD504339B00E6
:1039F00013650168103B11604168116050F8081FA1
:103A000011604FF098420344984205D170474FF43B
:103A10008271034802F060BB50F8041F1160F3E7A5
:103A200058BF03082DE9F041012905460E4690468E
:103A30001F4692B04AD8046824F04003802B02D07D
:103A4000B4F5807F45D11C2200210BA822F05BFC3D
:103A5000234A244B0121012E08BF13460A932B1D34
:103A60000193E408204B44F0005402910AA8039407
:103A7000CDF81080059106930797089101A9099345
:103A80001DF06EFB04A90AA81DF06AFB07A90AA88D
:103A90001DF070FB29680AA8C908FFF78FFF1021E5
:103AA0000AA8FFF78BFFFFF7E1FBA8B90AA8FFF709
:103AB00095FF4FF098435A6CD202FCD55C6DFFF72E
:103AC000F1FB04F4702012B0BDE8F0816FF020002B
:103AD000F9E76FF07100F6E74FF0FF30F3E700BF52
:103AE0000001000400010104100000202DE9F04154
:103AF00001290646884615461F4698B05ED811072C
:103B00005FD1046824F04003802B02D0B4F5807F9D
:103B10005AD11C22002111A822F0F5FB2D4A2E4B70
:103B2000E408B8F1010F08BF134601221093331DBA
:103B300001932A4B44F00054029203940497059297
:103B400006930797089209931E9B1F990A9345F0C5
:103B500000530B9210A80C930D9101A90E920F9394
:103B60001DF0FEFA04A910A81DF0FAFA0AA910A87F
:103B70001DF0F6FA0DA910A81DF0FCFA07A910A86F
:103B80001DF0F8FA316810A8C908FFF717FF294699
:103B900010A8FFF713FFFFF769FBC0B910A8FFF7E4
:103BA0001DFF4FF098435A6CD202FCD55C6DFFF7B5
:103BB00079FB04F4702018B0BDE8F0816FF02000AC
:103BC000F9E76FF02100F6E76FF01F00F3E74FF021
:103BD000FF30F0E70302000403020104100000209C
:103BE00008B548B1006E03F0F7F828B1BDE8084009
:103BF0008921024802F070BA08BD00BFD8BF03088F
:103C000010B5044668B150238065C365184403F0BD
:103C10003DF8206628B9BDE810407A21014802F03D
:103C20005BBA10BDD8BF030838B5FFF78DFA18B1DD
:103C30005A21164802F050FA154D164B164A1749EC
:103C4000174806F003FF2B7803F0FF04EBB902F0EE
:103C500077FE012802D902F0A7FE04462B782BB983
:103C6000104B11481B68984701232B7002F068FE27
:103C700001280AD9204602F0B9FE002805DABDE87D
:103C800038404921014802F027BA38BD57C003081F
:103C9000DB630020D7110208FD110208E13B000898
:103CA000013C0008BC820020B04D0020012300F040
:103CB0001F02A0F506200949A0F550604009934075
:103CC00051F820201A4341F82020054951F82020BE
:103CD00022EA030241F82020704700BFF03E002096
:103CE000DC3E00200121A0F506230E4AA3F5506317
:103CF0005B0900F01F00814052F82300014342F8A5
:103D000023100949D1E90030034488680344C86896
:103D1000096903445B1802BFC2E90033C2E90233F8
:103D200013617047DC3E0020F03E00202DE9F04F8B
:103D3000A9B003921D4604460822339ECDE9040132
:103D4000414021FA02F34B40980702F1080218BFE4
:103D50009B00202A1C44F4D18A23B4FBF3F203FB1A
:103D60001244734B04F506241B7804F55064002BB1
:103D70003ED1FDF7C7F8074620B16FF0910029B09A
:103D8000BDE8F08F0146402208A822F0BCFA40228C
:103D9000394618A822F0B7FADFF8B081DFF8B09101
:103DA000C3460BF10F0ACDF800A0102208A95B460C
:103DB000D9F8000020F0B8FF0022014608F11008F1
:103DC00008AF914245D1CDF800A05B461022D9F84A
:103DD000000018A920F0B1FF4FF0000A834618AF89
:103DE000D34540D1534B9845DAD10122504B1A703C
:103DF0004FF08A0A4FF00008DFF858B1A4F5062703
:103E0000A7F550635B095BF8232004F01F01CA404B
:103E1000D2073CD4484A52F82330CB40DB0729D59F
:103E2000B8F1000F08BFA0468A23A7F6FF47B7FBEB
:103E3000F3F203FB1277BAF1010A07F5062404F541
:103E40005064DBD1039BBBB1B8F1000F14D04446E2
:103E500019E057F8040BCDE90612FFF727FF079A80
:103E600006990132ADE757F8040BFFF73BFF0AF163
:103E7000010AB5E7039B13B96FF08B007FE7B8F138
:103E8000000F18BF4446349B00201C6077E7329B2C
:103E900013B10023329A13600EB100233360102354
:103EA000DFF8AC9000932A4600232146D9F80000A1
:103EB00008F07CF860BB32992A68204BC9B99A4255
:103EC00006D02146D9F8000008F008F90028D3D11F
:103ED000D5E90223DDE90410834208BF8A42A3D159
:103EE000039B002BCFD06B68012BCCD16FF08400EB
:103EF00045E7102032999A420860E2D1002EE7D0BF
:103F000033462146D9F8000018AA08F0A3F848B1B2
:103F10000B4B9842D5D00B4B9842D2D00A4B9842CB
:103F2000D6D02AE7329A336812689B1A3360CFE7FB
:103F3000DC63002000710800DC3E0020105D175E8D
:103F4000FFDF00F011E000F0FEDF00F0006D080080
:103F50007C820020F03E002038B5184D2B7803F00D
:103F6000FF04FBB902F0ECFC012802D902F01CFDB1
:103F700004462B784BB91248436D43F00103436567
:103F8000104B1B68984701232B7002F0D9FC0128C5
:103F900008D9204602F02AFD002803DA71210A48D8
:103FA00002F09AF8094B06481B68984728B1BDE80B
:103FB00038408A21044802F08FB838BDDD63002004
:103FC000043F0020BC820020D3C00308B48200203C
:103FD000034B1B781BB1034B03481B681847704702
:103FE000DD630020B0820020043F00202DE9F04F67
:103FF00087B08246894698461646DDF840B02AB119
:10400000002B53D040F26C739A4252D8BBF1010F8F
:1040100052D8002406F110073946012005941DF0FE
:104020003DFC054600284AD021463A4622F06BF96D
:10403000FFF792FF05ABCDE9014300942B46012227
:1040400050464946FFF772FE044690B110F18C0FBE
:1040500008BF6FF08D043A460021284622F053F93C
:1040600028461DF0FDFBFFF7B3FF204607B0BDE873
:10407000F08F144BC5E902A92B60C5F804B02EB12E
:104080003246414605F1100022F063F9059E0E48C4
:104090003B462A463146006807F03EFF18B93046D5
:1040A000FFF704FED7E76FF09104D4E76FF08604C2
:1040B000DBE76FF09104D8E76FF08504D5E76FF088
:1040C0008C04D2E7105D175E7C8200202DE9F0475A
:1040D0008CB08146DDE914780C4616461D466BB15E
:1040E000B8F1000F49D0002F47D0B7F1005F44D39B
:1040F000C3F1005303F580239F423ED84FF0000ADE
:104100001022002108A822F0FEF8CDE905AAFFF749
:1041100023FF07AB029305AB019306AB2146009347
:104120005246484608ABFFF701FE0446D0B9059B4E
:104130003DB1B3421CD853EA060504D06FF08604A3
:1041400010E0B342FAD3069B0D48C8F80050009522
:104150003A4607990068334407F028FF002818BF43
:104160006FF09104FFF734FF20460CB0BDE8F087F4
:104170009B1B9D4228BF1D46E5E76FF08604F3E7D1
:104180007C82002070B500260C4605468CB01022BB
:10419000002108A822F0B7F8CDE90566FFF7DCFE9C
:1041A00007AB029305AB019306AB21460093324661
:1041B000284608ABFFF7BAFD0446D8B9099B012B86
:1041C0001DD0079D114B2946186807F087FFC8B915
:1041D0000122A5F506230E49A3F550635B0905F0FE
:1041E0001F00824051F823004240284641F8232016
:1041F000FFF778FDFFF7ECFE20460CB070BD6FF0C6
:104200008404F7E76FF09104F4E700BF7C8200209C
:10421000F03E002030B5048804F4E043B3F5005FBD
:104220002ED1C4F30223042B2AD181F0AA6383F494
:10423000807333F47E132AD081F0AA6383F4007371
:1042400033F47E1323D00023144D21F47E11A942B0
:104250001AD1B4F5105F17D1418821F040008028B1
:1042600002D0B1F5807F15D1191F0C2912D8DB07B8
:1042700010D4073A072A34BF00206FF0860030BD03
:1042800042F204039C42DED16FF08500F7E7C1F3F0
:104290000543D9E76FF08600F1E700BF0001400554
:1042A0002DE9F04F9DB08146DDE92A761D468B460B
:1042B000DDF8B080DDF8C4A0099241B138B1269B89
:1042C0002BB1289B0BB9299B0BB91FB94EB16FF0CD
:1042D00086047FE02EB1B8F1000FF8D02D9B002BA3
:1042E000F5D02E9B002BF2D0BAF1000FEFD0309B0F
:1042F000002BECD02F9B002BE9D0B9F8003003F451
:10430000E042B2F5005F69D1C3F30222042A65D10D
:1043100085F0AA6383F4807333F47E1306D085F0AE
:10432000AA6383F4007333F47E1360D1C5F30543AD
:1043300029464846279ACAF80030FFF76BFF044623
:10434000002847D10146242213A821F0DCFF2022B7
:1043500021460BA821F0D7FF13A81CF08EFC0028E3
:1043600055D159464846099A0BAB00F011FA04465C
:1043700000282FD12D9B9E424CD8DAF80030309A7D
:10438000934247D8474508D2BB19984505D23946CC
:104390003246404621F09DFF4746204B25F47E15CE
:1043A0009D4226D1DAF80030324606932F9B0397C0
:1043B000CDE90483299B0BA90293289B13A80193A1
:1043C000279B0093269BFEF7F5FF212819D0D8B92B
:1043D0002E9B1E6020461DB0BDE8F08F42F2040205
:1043E000934204D185F0052383F480139BE70023D7
:1043F0009EE76FF0880400232E9A1360CAF80030FD
:10440000E8E76FF08604F6E76FF09204F3E76FF0E9
:104410009204DFE76FF08904DCE700BF000140058C
:104420002DE9F04F9BB08A46DDE928659346984612
:1044300081462C9F28B96FF0860420461BB0BDE84A
:10444000F08F0029F7D0249B002BF4D0269B13B9C2
:10445000279B002BEFD10EB9002DECD117B92D9B66
:10446000002BE8D12E9B002BE5D02A9B002BE2D01D
:1044700041464846259AFFF7CDFE04460028DCD188
:104480000146242211A821F03EFF2022214609A83E
:1044900021F039FF11A81CF0F0FB10B16FF092046D
:1044A000CBE75A465146484609AB00F071F904463D
:1044B0000028C2D12D9B9D422AD8BE4208D2731932
:1044C0009F4205D231462A46384621F002FF3E4639
:1044D000144B28F47E1898451DD12B9B2A46069331
:1044E0002A9B0396CDE90473279B09A90293269B77
:1044F00011A80193259B0093249BFFF731F82128F5
:1045000099D02C280AD00028C8D12E9B1D6094E792
:104510006FF0890491E76FF088048EE76FF09404E0
:104520008BE700BF000140052DE9F0410D46144620
:104530001E46C4B010B96FF086000DE00029FAD015
:10454000002AF8D0002BF6D0038803F44F42B2F5CE
:10455000824F04D06FF0850044B0BDE8F081DAB23C
:10456000122AF7D123F0FF03B3F5E24F27D1438896
:104570003360FBB9E3003360B3F5807FEAD10023F9
:10458000184642492E19214411F8014D16F8012D03
:104590001043121B0CBF4FF0FF340024B54203EA56
:1045A000040343EA0203EFD10028C4D0002BC2DA8F
:1045B0000020D1E7DA1DB4EBD20FDDD0BBE7B3F5B5
:1045C000824F5FD10B78042BB5D12422002119A88A
:1045D00021F099FE19A81CF050FB00284FD10027AC
:1045E0008422394623A8229721F08DFE01234FF023
:1045F000880820223946013C01A88DF88830013511
:1046000021F081FE20223946069409A8E400059590
:10461000640821F078FE22AD2022394611A80D95BC
:10462000CDF8388021F06FFEE02CCDE915583460CC
:1046300003D0B4F5807F7FF47EAF154B0734019330
:1046400009934FF4005303934FF48043E4080B9312
:1046500001AA11AB640009A919A81294FFF7A8F8E0
:1046600033680733DB085A0033B10021531E013B86
:10467000297005F10105FAD2002899D05BE76FF0A7
:10468000920069E76FF0960066E700BF4FC103082C
:1046900020000080F8B5134642880C460732072AEE
:1046A0004FEAD20101D0A1426DD146680588C768A2
:1046B00020221846002121F026FE360A034626B1A4
:1046C000012E11D06FF08B00F8BD002C5BD041F2B1
:1046D0000102954205D0B5F5885F02D0B5F5905F2F
:1046E0001BD15C600020EFE7C660002C4BD041F28C
:1046F000010295420BD15C60B90707F001021FD49B
:10470000002AEFD19A6842F080729A60EAE7B5F524
:10471000885FF0D0B5F5905FEDD0B5F5105F0AD1A8
:10472000182C03D0202C01D0102C2CD1C3E900442C
:10473000002ED7D0E0E705F44F42B2F5824F02D009
:104740006FF08500C0E7EAB2122AF9D1202CF7D128
:104750000E4A25F0FF05B5F5E24F1A600CD0B5F50D
:10476000824F10D14FF4005217F4705F09D017F444
:10477000864F04D09A60E3E74FF48042F4E742F4B6
:1047800080629A60D4E76FF086009DE72000008089
:104790002DE9F041174600221C4643688CB01B0AE5
:1047A00080460D46009204D0012B56D06FF08B004E
:1047B0008EE0008820F0FF03B3F5824F15D1B8F8E2
:1047C00002200732D20800921CF00DFE002800F0F3
:1047D000E1800B78042B05D1013FB7EB420F05F1C7
:1047E000010503D06FF0860072E00097009E22461C
:1047F00031464046FFF74EFF002869D1FA1CC4E954
:10480000030522F003026261002E00F0A480202242
:10481000002101A821F077FD3146404601AAFFF7AB
:1048200039FF002840F097802368019A9A4240F0AF
:1048300092806368029A9A4240F08D80A368039A3E
:104840009A4240F08880A369079A9A4240F0838098
:10485000E369089A9A423BD07DE0032FC2D90B78D6
:10486000012B40F09A80497800294BD0F73908296C
:104870009CD801A353F821F0E14800089D480008A6
:10488000AD470008D7480008AD470008FB480008BE
:10489000AD470008EB480008F34800084FF41056F5
:1048A000F8253F4F1C22002102A821F02CFD0323F4
:1048B0000197CDE90435039601AA09AD134603CB50
:1048C000AB42206061601A4604F10804F6D1002072
:1048D0000CB0BDE8F08110274FF08076FA25E1E7B3
:1048E00020274FF00076F725DCE7FE252C4F2D4ED4
:1048F000D8E7FF252A4F2C4ED4E74FF41056FC255D
:10490000274FCFE72B2F7FF66DAF2022204621F0D7
:10491000FAFC05F110032361AB070DD001AB05F1E3
:1049200028061A4628686968083503C2B542134646
:10493000F7D1286801AD10606B68103F2360AB6849
:1049400069466360EB682046A36001236761E3600A
:104950001CF0A2F928B120220021204621F0D3FC2E
:1049600040E7B8F80030009E03F44F42B2F5824FA2
:104970000ED1DAB2122A0BD123F0FF03B3F5824F26
:1049800006D1730062691C339A42BFF43DAFE2E77F
:104990003346F7E76FF085009AE76FF0910097E7ED
:1049A00020000080004400020044000370B50D4662
:1049B000E8B1036813F4E07F03F03F06C3F382120B
:1049C00010D0012A13D10B4C9B0603D591210A4824
:1049D00001F082FB45B104F5805401230020B3406F
:1049E000236070BD054CEFE704F50054F5E70E2099
:1049F000F7E700BF688000502EBB030864800050BA
:104A000007B5094B18689A889B7900906846ADF8FD
:104A100004208DF80630FDF7A1FB0920FDF7D6FB39
:104A2000002003B05DF804FB6FC1030813B5002438
:104A3000064A6846536F43F00103536700948DF8AC
:104A40000440FDF7BFFA204602B010BD0040005000
:104A500030B58BB06C46174D0FCD0FC40FCD0FC4C2
:104A600095E8030084E80300134BD3F84C211203AC
:104A70001CD5A3F5FE431C884FF6FF739C4208BF6C
:104A800064248DF81940FDF769F9204480F308008B
:104A90008DF818000948FCF7ABF86846FDF742F8B6
:104AA0003220FDF7C9F900200BB030BDD3F85041DA
:104AB000E4B2E6E778C103080080E00FC0175302B4
:104AC00030B5114D87B001AC0FCD0FC42B682360FA
:104AD0000E4BD3F84C21520311D54FF07E6393F85F
:104AE0009C30FF2B08BF232301A88DF80530FDF76C
:104AF0003BF93220FDF79AF9002007B030BDD3F81A
:104B0000503103F4FE03EFE7A0C103080080E00F7B
:104B1000BFF34F8F0549064BCA6802F4E0621343A6
:104B2000CB60BFF34F8F00BFFDE700BF00ED00E09B
:104B30000400FA054F2810B5044608D8012361097E
:104B4000074A04F01F04A34042F8213010BD4FF47F
:104B50008A71044801F0C0FA002CF7DBEEE700BFD1
:104B600000E100E0D8C10308002808DB0122430966
:104B7000034900F01F008240603341F82320704752
:104B800000E100E038B500F110035F2B04460D464C
:104B900004D94FF4E1710D4801F09EFA1E2D04D99D
:104BA00040F2C311094801F097FA002CACBF04F1A0
:104BB0006044074B4FEA0515EDB2ABBF04F5614405
:104BC00004F00F0484F800531D5538BDD8C1030804
:104BD00014ED00E073B504461BF07DFF05461CF0A4
:104BE000E8FE88B1134E3378FF2B8DF807300BD1D8
:104BF0000DF10700FCF772F818B165210E4801F0BD
:104C00006BFA9DF8073033700C4B28461C601BF084
:104C100066FF1CF0CEFE50B1224600209DF8071022
:104C20001BF070FF18B17021034801F055FA002005
:104C300002B070BD2985002057C20308683F0020DC
:104C400073B51BF048FF104D104B2E781C681BF0FD
:104C500046FF1CF0AEFE60B1FF2E0AD0002029787E
:104C600001AA1BF048FF18B19021094801F034FA5D
:104C7000019C2CB91BF02FFF064B1C681BF02FFF6B
:104C8000204602B070BD00BF29850020683F00208B
:104C900057C203086C3F002010B504461BF01BFFF1
:104CA000024B1C601BF01BFF002010BD6C3F00205E
:104CB00010B5002014461CF034FD022804D018B1B1
:104CC000C321024801F008FA204610BDBCC2030807
:104CD00013B5002301241A4619461846009405F01E
:104CE0008DFF002300941A461946184605F0B8FFB8
:104CF0000248FFF7D1FF002002B010BD88820020DB
:104D0000034B0222186800238068194613F03EBE48
:104D1000B483002073B50024684600F00DFB0C4BF3
:104D200000981C600B4B0C4D1C600C4E0C4B306003
:104D300018602C601CF0D0FD2046019B3268013BBE
:104D4000DB0853802B6801332B6002B070BD00BFBD
:104D5000743F0020703F0020783F0020803F0020FB
:104D60007C3F00202DE9F04F98464B1C05460E462F
:104D7000934687B032D04B1EB3F5007F28D219423C
:104D800026D134460027674B05971F70B8F1000FF6
:104D900000F0BF80C8F80070002D00F0BC801BF050
:104DA000A1FE073505AB25F0070531460093814686
:104DB0003B465A46284600F0C9FA059E074606B10A
:104DC00070B948461BF094FE192007B0BDE8F08F7B
:104DD00040F22B11544801F07FF9D2E70824D1E7C3
:104DE000DFF850A17388DAF80010DA00C0EBC303D3
:104DF0000139272BCAF8001072D9BBF1000F4DD131
:104E0000854205F1080B44D0214630461CF0E2FCF7
:104E100004460590059B9B4458461CF05DFD059992
:104E200005F10F034A88C3F3CF03D21AABF802206F
:104E3000CA88ABF8043072B3D31A9BB201EBC2023A
:104E4000ABF8063093808B88ED08A380BBF8043064
:104E50000022314658466580E38000F0EFFA23785F
:104E600043F001032370DAF800300133CAF8003050
:104E70002E4A4846136808343B4413602C4A116894
:104E80008B4288BF13601BF033FE0020C8F800403F
:104E90009BE73446BEE7ABF80620D4E7F41820467B
:104EA000029303921CF018FD029BF91DC908059896
:104EB0006180D91DC908A180C18879B1C900039A50
:104EC000CD1DAA1A3A44C2F3CF020144E2808A807F
:104ED000013BDB084380A388C380C0E7E180F7E79C
:104EE000BBF1010F19D106F10803B3FBF4F204FB87
:104EF0001233A3B1214630461CF06CFC04462378E3
:104F0000012243F0010331462046237000F096FA57
:104F1000AEE7222059E7212057E78542EAD13446FF
:104F2000EDE700BF2A85002030C30308743F00204E
:104F3000703F0020783F00202DE9F3470446684683
:104F400000F0FAF9002C00F0C2801BF0CBFD14F841
:104F5000085CEB0704D534F806ECBEF1000F05D170
:104F60001BF0C6FD012002B0BDE8F087DFF870C17C
:104F700034F8041CDCF800800EF1010208F1010392
:104F8000A4F1080692B2CCF80030002938D0A6EB84
:104F9000C10393F800A0B3F806901AF0010F5F88E0
:104FA00005F0020520D105BBA9EB0701012927D88F
:104FB0000EF102021744BAB2CCF8008034F8025C59
:104FC00005BB14F8085C511E6FF3000504F8085C7B
:104FD000002589B224F8065C5980197865F3000130
:104FE00019700021D98031E055B111448AB214F80A
:104FF000081C6FF3410104F8081C00219980DDE7CB
:105000003346DBE706EBC508DDE900710F44B84520
:10501000D7D216F83560414616F001062ED014F8A6
:10502000086C551E6FF3000604F8086C002624F87F
:10503000066C1C78ADB266F300045D801C70C3F191
:1050400007040C44C4F3CF04DC808C80214C21681D
:1050500019B1994201D8498801B923601E4C2168D1
:1050600019B1994201D3498801B923601B490B68E2
:105070009B1A0B601BF03CFD002074E7A5EB0E05AE
:10508000012DCCD8B8F80250A8F8026001352A44A6
:10509000B8F8065092B2C5B108EBC501DCF8005073
:1050A000013DCCF8005014F8085C6FF3000504F8DB
:1050B000085C002524F8065C541E5C801C7865F3AF
:1050C00000041C700029BAD18BE72946E6E72220AC
:1050D00049E700BF803F00207C3F0020743F002054
:1050E000783F00202DE9F84F04460D469146002AEE
:1050F00000F017810023136040B9002900F01381EC
:1051000001462846BDE8F84F1CF0A4BB19B9BDE81C
:10511000F84FFFF711BF1BF0E5FC34F8063C0735EC
:105120004FEAC30825F00705A8450746A4F1080083
:1051300080F0848034F8022C002A65D000EBC20A8B
:1051400010F83220D2075FD4BAF80210A8EB050697
:1051500016EBC10658D41F2E3DDDC5F3CF0304EB7B
:10516000050B24F8063C013324F8023C58461CF099
:10517000B3FB34F8023CC6F3CF06ABF80430BAF800
:105180000630ABF802601BB3BAF802209A1A164434
:10519000B6B20AEBC303ABF806609E80002251460C
:1051A000584600F04BF950461CF096FBC9F80040F9
:1051B0005E4A13682B44A3EB080313605C4A116832
:1051C0008B4200D9136038461BF092FC002625E084
:1051D000ABF80630E2E7574E0B4432689BB2013A17
:1051E00032605A1C24F8062CBAF806204AB1023361
:1051F0009BB20AEBC20224F8023C93800122514682
:10520000CFE724F8022CF9E74A46002128461CF093
:1052100021FB064628B138461BF06AFC3046BDE843
:10522000F88F42462146D9F8000021F092F8204636
:10523000FFF782FE06460028BAD0ECE76ED934F8B4
:10524000023CA8EB050B002B38D000EBC30610F88E
:105250003330DB0733D4C5F3CF0304EB050A24F85E
:10526000063C013324F8023C50461CF035FB7388A1
:1052700034F8022C03EBDB03AAF80420F2889BB27B
:10528000AAF80230BAB101339BB206EBC202AAF807
:105290000630938050460022314600F0CFF8304669
:1052A0001CF01AFB214BC9F800401A681544A5EB05
:1052B00008051D6087E7AAF80620EBE71E46BBF14C
:1052C000270FEFD9C5F3CF0304EB050A24F8063CFA
:1052D000013324F8023C50461CF0FEFA34F8022C4C
:1052E000CBF3CF03AAF80230AAF8042096B1F288D3
:1052F00082B101339BB206EBC206AAF80630B38036
:105300000C4A00211368504601331360012200F05B
:1053100095F8C7E70023AAF80630F1E7C9F800407E
:1053200051E722267AE7212678E700BF743F002064
:10533000703F0020783F00200249034A0160521A62
:1053400042607047A090002000000420F0B506469F
:105350000020059F4C1C08BF08213860BAB91F48BF
:105360000568002D38D0B5F802E0DB0003EBCE0E67
:10537000C1F1000C2878C0070BD52ABBE888B0B172
:1053800005EBC005B5F802E003EBCE0EF2E71448DA
:10539000E6E7B645F1D35AB905F10804B4FBF1F0DC
:1053A00001FB1044A0190CB17045E7D83D60F0BD79
:1053B00008290FD06C88013405EBC404A01B00EA57
:1053C0000C00201A8645F1D2A8880028EFD0A5EB62
:1053D000C005D7E73046E9E72846E8E7803F0020E8
:1053E0007C3F0020134B13B51B6804460846FBB1F5
:1053F00021B96846FFF7A0FF6CB900980378D90778
:1054000007D55CB9C3889BB100EBC3000378DA070A
:10541000F8D402B010BD084B1868EFE7012C07D193
:1054200083882BB1A0EBC3000378DB07F8D4F0E747
:105430000020EEE7783F00207C3F0020F8B5124FB7
:1054400005460C463B68114EB2B1994209D041B1B4
:105450003368994204D129460120FFF7C3FF306029
:10546000F8BD29460020FFF7BDFF33683860A3422E
:10547000F1D0002CEFD0F3E79942336808BF3860D1
:105480008B4208BF3060EBE7803F00207C3F00206C
:1054900030B50E4C416123688BB9206083600DE00C
:1054A000891A9A681D4641616AB113465A698A424F
:1054B000F6D935B1A860521A83605A6130BD002513
:1054C000F4E72060F7E798608260F7E78C3F002000
:1054D00038B500F077F90025084B094C1A682368A5
:1054E000C31A2AB123B15169994203D3C91A516130
:1054F000206038BD55615B1A9268F2E78C3F00204E
:10550000883F002038B5134D2B685B6993B1124A70
:10551000022014681C441CF0E9F9204600F05AF9F6
:1055200000230E492A680B70D088800709D5012313
:105530000B7038BD02201CF0D9F9022000F098F958
:10554000EEE79268002AF4D050690344012BEBD9AE
:10555000EFE700BF8C3F0020883F0020DF63002082
:1055600000220C490B687BB183420AD183687AB16F
:10557000936083681BB15A6941690A445A610020EB
:1055800070471A469B68EEE70028EFD0022070476C
:105590000B60EEE78C3F002070B51BF0A3FA144EB1
:1055A00005463478FCB9134B1C60134B1C60134B3D
:1055B0001C8000F0D3F801201CF098F900F060F98D
:1055C0000F4B0246186020B928461BF091FA2320A1
:1055D00070BD234640F2E7310A4812F067FF0A4BDC
:1055E00018600123337028461BF082FA0020EFE791
:1055F000E06300208C3F0020883F0020B063002043
:10560000903F002018FCFFFF843F0020C2072DE9D7
:10561000F04704460BD54D4A138801339BB21380E3
:10562000FFF756FF4A4B1B680BB1FFF76BFFA30751
:1056300040F18A801BF056FA4FF0000905464E46AD
:10564000FFF746FFC846424F3C680CB163698BB117
:105650000022404B012E1A7003D119F0020F18BF1F
:105660001E70002C6CD0FFF74DFF2846BDE8F047B8
:105670001BF03EBA23465A693AB91A792179914208
:1056800088BF1C469B68002BF5D128461BF030FADA
:105690002569DDB100F096F8A269A0EB02094FEA96
:1056A000E9734D4578EB030311DA23691344A361D1
:1056B000E368B4F80690013613B120462168984794
:1056C0001BF010FA0546FFF703FFBDE7A9461BF0E4
:1056D00009FA82462046FFF743FF50461BF008FABE
:1056E0002369002BE4D0B5EB09054FEAE97363EBBE
:1056F0004303002B04DA40F23451174800F0ECFC6D
:10570000A38B33B1E28B13449BB2B3F57A7F0FD2F4
:10571000E3831BF0E7F9814629462046FFF7B8FEF0
:10572000A369226948461344A3611BF0E1F9BFE76E
:10573000A3F57A73E383A369013D013BA361E8E725
:10574000022000F07FF890E7BDE8F087B06300200A
:105750008C3F0020DE630020A1C3030810B50123A5
:10576000002486B01548ADF80830CDE903448DF823
:1057700004408DF80A4005941BF062FF01A8FDF774
:10578000F9FA204602A98DF80840FDF703FB2046F0
:105790000F21FDF731FB0F212046FDF73BFBFDF705
:1057A000CFFAFDF7ABFA064B46209C61FFF7DCF918
:1057B0004620FFF7BFF906B010BD00BFB4C1030813
:1057C00000800A5008B5FDF799FA014B986908BDA9
:1057D00000800A50F8B504461BF07DF90746FDF736
:1057E0008DFA164B9D691CF07DF806460020FDF7EA
:1057F0001FFB830704D4731B032B01D8AE420FD1C8
:105800000021631B022B98BFEC1C0846B4F1FF3F3C
:105810002CBF2246621EFDF733FB02201CF066F807
:1058200038461BF05CF9064A137833B103498B6C98
:1058300043F001038B6400231370F8BD00800A500D
:105840002B850020830700F0010109D50122064BBA
:1058500041F002011A70054A936C23F0010393642E
:105860000020FDF7C9BA00BF2B85002000800A5038
:10587000830742BF0222014B1A64704700900A500E
:1058800007B5044B01A918791BF0D5FE019803B0A8
:105890005DF804FBC0C1030873B5144606460D4607
:1058A0001022002120F02FFD631EF560B360EDB9DA
:1058B0001F4B1B78ABB11A221E4B1F491F4813F018
:1058C0004BF81F4B187850B91E4A14683CB101229E
:1058D0001A70184B184A00931B491A23A04700BEA0
:1058E000FEE71A22134B14491848E8E723421DD05B
:1058F0000F4B1B78ABB11B22154B0F490F4813F010
:105900002BF80F4B187850B90E4A14683CB101229D
:105910001A700F4B084A00930B491B23A04700BE87
:10592000FEE71B220A4B04490848E8E702B070BDB5
:10593000B08600200AC40308F5C4030815C4030890
:10594000A9740020C04F002046C4030832C40308D5
:1059500059C40308C36813B5EBB9234B1B78ABB12B
:105960008422224B2249234812F0F6FF224B18785A
:1059700050B9224A14683CB101221A701B4B1C4AD0
:1059800000931F498423A04700BEFEE78422174BE3
:1059900017491C48E8E783685A1C1A421DD0124B6D
:1059A0001B78ABB18522184B1149124812F0D4FF75
:1059B000114B187850B9114A14683CB101221A7081
:1059C000114B0B4A00930E498523A04700BEFEE70A
:1059D00085220D4B06490B48E8E702684068131A18
:1059E0005842584102B010BDB08600200AC40308D6
:1059F000BAC4030815C40308A9740020C04F0020CE
:105A000046C4030832C4030859C40308C36813B565
:105A10000446EBB9274B1B78ABB14022264B2749F4
:105A2000274812F099FF274B187850B9264A146876
:105A30003CB101221A70204B204A00932349402395
:105A4000A04700BEFEE740221B4B1C492048E8E768
:105A500083685A1C1A421DD0164B1B78ABB14122E9
:105A60001C4B1649164812F077FF164B187850B9A0
:105A7000154A14683CB101221A70164B0F4A009364
:105A800012494123A04700BEFEE74122114B0B49BA
:105A90000F48E8E7FFF75EFF40B92368E268591C4A
:105AA0002160A1680B40D05C02B010BD4FF0FF3008
:105AB000FAE700BFB08600200AC40308E2C4030866
:105AC00015C40308A9740020C04F002046C4030871
:105AD00032C4030859C40308C36813B5EBB9324B89
