S02A0000776973756E5F6E6F64655F6D6F6E69746F72696E675F365F32304E6F766D5F4F46444D2E7333376F
S3150800600008140020ED180108FFE00508C1CF0508AF
S31508006010FFE00508FFE00508FFE00508FFE00508C2
S31508006020FFE00508FFE00508FFE00508FFE00508B2
S31508006030FFE0050818F70708C97D0108FFE005080D
S31508006040FFE00508FFE00508FFE00508FFE0050892
S31508006050FFE00508FFE00508FFE00508FFE0050882
S31508006060FFE00508FFE00508FFE00508FFE0050872
S31508006070FFE00508E9DC00086FD00508FFE0050821
S31508006080FFE00508FFE00508FFE00508FFE0050852
S31508006090FFE00508FFE00508FFE00508FFE0050842
S315080060A0FFE00508FFE00508FFE00508FFE0050832
S315080060B055280108FFE00508FFE00508FFE0050888
S315080060C0A923010889230108FFE00508FFE0050860
S315080060D07DEA020821F602088B6906088769060820
S315080060E05DED0208A16906088F690608F1F5020840
S315080060F09369060885F6020889F70208FFE005088D
S31508006100FFE00508FFE00508FFE00508FFE00508D1
S31508006110FFE00508FFE00508FFE00508FFE00508C1
S31508006120FFE00508FFE00508FFE00508FFE00508B1
S31508006130FFE00508FFE00508FFE00508FFE00508A1
S31508006140FFE00508FFE00508FFE00508FFE0050891
S31508006150FFE00508FFE00508FFE00508FFE0050881
S31508006160FFE00508FFE00508F1830108FFE00508E0
S31508006170FFE00508E177070881CB02087B69060876
S3150800618081690608FFE00508FFE00508FFE0050845
S31508006190FFE00508FFE00508FFE00508FFE0050841
S30D080061A0A5690608FFE00508E1
S315080061A8F0B5114A114C124E00F00105E3695F0774
S315080061B813D40DB9334213D103EA00078F4207D126
S315080061C80B4A1A40002A0CBF00206FF00100F0BDE8
S315080061D8013AEBD16FF00200F9E74FF0FF30F6E726
S315080061E86FF00100F3E700BF80969800000003509F
S315080061F80200010070B50B4BD96911F480310DD135
S3150800620801244FF48072084E084DF46020462C6429
S315080062181A61FFF7C5FF3464EC6070BD6FF00100C2
S31508006228FBE700BF0000035000100350002003508E
S3150800623870B5C0F30C03054623B140F21A2111487C
S3150800624800F0A2F84FF480320F4B104C9A66E669B4
S3150800625841F6713316400122E3630D4B0021DA60DB
S315080062680223656121202361FFF79AFF10B92120CF
S31508006278FFF796FF0122074BDA600EB10023E363A6
S3150800628870BD00BFFEFA07080090005000000350D2
S31508006298001003500020035070B5134C6061E36981
S315080062A85B071ED40E4656F8043B8D18A361AE420A
S315080062B80BD10423002121202361FFF771FF58B968
S315080062C8BDE870402120FFF76BBF08210846FFF795
S315080062D867FF10B10423236170BD56F8043BA36118
S315080062E8E5E74FF0FF30F7E7000003502DE9F843DC
S315080062F8154682070F46064604D040F266211E4810
S3150800630800F042F8AB0704D04FF41A711A4800F0A7
S315080063183BF84FF48032194BDFF868909A6603F514
S315080063281C33DA6902F4803841F67132DA630122DD
S3150800633803F58053DA6065B928460122104BDA60FE
S31508006348B8F1000F03D00022A3F50053DA63BDE8BD
S31508006358F88306F5005404EA0904A41BAC4228BFCE
S315080063682C46394622463046FFF796FF0028E4D1E0
S31508006378264427442D1BDEE7FEFA0708009000503E
S315080063880020035000E0FFFF5FF800F02DDA000850
S31508006400013800D0FCE770472DE9F0410023154616
S31508006410C2E900014FF47A7280460F4655F0ACFD8A
S3150800642018A3D3E9002304460E464046394655F0DC
S31508006430A3FD134B80B228815843241A66F100063F
S315080064404FF4616200232046314655F095FD4FF41E
S315080064506163C0B2A8725843241A20464FF03C0222
S315080064604FF0000366F1000155F086FDC0B2E872F0
S31508006470C0EB0010A4EB80042C73BDE8F08100BFCC
S3150800648080510100005C26050000000000000000A5
S315080064902DE9F843161E81460D461F460ADBF317FB
S315080064A031186B414FF0000228BF01224AB1212062
S315080064B0BDE8F88330466EF092FBC3174845AB41FA
S315080064C0F5D23D4B4B454FF04903AB41EFD316EBA5
S315080064D0090945EBE67529463C220023484655F04E
S315080064E04BFD00233A703C2255F046FD00237A7096
S315080064F0182255F041FD04460130BA7088464FF01F
S31508006500070241F10001002355F036FD29463A728B
S31508006510484627A3D3E9002355F02EFD85B2042D5E
S315080065203DD905F26C75A9B240F26C705AF0AEFA14
S31508006530201A4FF0000368F1000140F26D1255F081
S315080065401BFD85B205F26C7189B240F26C705AF087
S315080065509DFA01462846FD805AF0A8FA40F26D13C6
S31508006560641A4FF00C014FF0000203FB05F568F1C1
S315080065700008641B04F101037B81104B68F10008D5
S3150800658001FB0030D3B2C35C511C9C4278F1000574
S3150800659007D2013400203A71FC70FE6088E70021BA
S315080065A0D8E7E31A1C460A4668F10008EAE700BF7E
S315080065B08033E101000000007FBD68799316080862
S315080065C02DE9F04F93B0CDE90A32DDE91C530E935D
S315080065D053EC102BCDE90801104619468DED060B34
S315080065E01E9E55F0A1FA80B1DDE906014FF0FF3293
S315080065F0C54B55F0C1FA40B9DDE906014FF0FF3247
S315080066006FF4801355F09AFA70B1DDE908019DED33
S31508006610060B0E9B1E96CDE91C53DDE90A3213B014
S31508006620BDE8F04F00F088B90022DDE90601002335
S3150800663055F084FA002800F03381DDE906A303F15A
S31508006640004BCBF30A5016F48063A0F2FF3008BF64
S3150800665006250F9354F096FF9BA3D3E9002354F025
S31508006660FBFF9BA3D3E9002354F040FECBF31304AE
S31508006670894644F07F5180460022A44B504641F497
S31508006680401154F031FE94A3D3E9002354F0E4FFFB
S3150800669002460B464046494654F028FE55F076FA1F
S315080066A0044654F06FFF8EA3D3E90023804689463B
S315080066B054F0D2FF0022964B54F018FE55F066FAB5
S315080066C089A3D3E9002307464946404654F0C4FF48
S315080066D080463846894654F055FF85A3D3E90023FA
S315080066E054F0BAFF02460B464046494654F0FCFDB4
S315080066F002460B46CDE90C2354F0AEFFDDE90C2328
S31508006700804689461046194654F0F0FD0022CDE928
S315080067101001804B4046494655F0C8F800227E4B8A
S3150800672054F0E4FD02460B464046494655F0BEF88D
S3150800673000227A4B54F0DAFD02460B46404649469B
S3150800674055F0B4F8DDE90C238046894600204FF061
S31508006750804154F0C9FD02460B464046494654F06E
S31508006760C5FD02460B46DDE9100155F09FF807F214
S31508006770FF3700226A4B54F0B9FD00223B0554F05E
S315080067806BFF52465B468046894655F0F5F9002868
S3150800679040F08980CDE90C8904F16303C72B34BF27
S315080067A00427052731051BD553A3D3E900235046F3
S315080067B0594655F0D7F900287FD051A3D3E90023CD
S315080067C05046594655F0BAF9002876D00027A54212
S315080067D0C6BF2C1B04F1FF3500253C4646F48066EF
S315080067E00E9B9F422CBF4FF00008A3EB070816F03C
S315080067F0020903D0002F18BF4FF000083CB1DDE9AD
S315080068000C235046594655F051F882468B46DDE929
S3150800681006010022002355F091F910B10BF100434F
S315080068209B46DDE9080126F40063CDE90183DDE92D
S315080068300A324BEC10AB009500F07EF802465FB3C7
S31508006840DDE9091316F0200F00F10105089E0CBFBB
S3150800685065204520B047DDE9080105230022059398
S315080068600A23002CCDE9023207F1FF374FEAD47329
S31508006870B8BF64422A46019304970A9B00945FF0C6
S315080068809DFA0246B9F1000F06D00B9BC41A0B9B62
S315080068901A190E9BA34245D8104613B0BDE8F08FCF
S315080068A0DDE906ABCDE60022404649461A4B54F0D0
S315080068B0FDFF013CCDE90C016EE7002D90D00F9B42
S315080068C0002B8DD0013D8BE7FB799F501344D33FB6
S315080068D0B3C8608B288AC63F61436F63A787D23FD8
S315080068E071A379094F930A401655B5BBB16B02409F
S315080068F0EF39FAFE422EE63F2D431CEBE2361A3FED
S315080069000000000080842E41FFFFEF7F0000F83F63
S315080069100000E03F00002C40000024400000184022
S315080069200000F03F2020DDE90913089DA84701343F
S31508006930ADE700BF000000002DE9F04F97B05BEC13
S3150800694010ABDDE92057CDE90501CDE9072350460F
S3150800695052465B465946229E55F0E6F870B903231F
S31508006960CDE902760193B04B0093DDE90501DDE937
S3150800697007235FF043F917B0BDE8F08F4FF0FF32F9
S315080069806FF480135046594655F0D8F828B10423B9
S31508006990CDE902760193A54BE6E74FF0FF32504664
S315080069A05946A34B55F0E8F868B1A24A06F0040325
S315080069B0002B08BF0322A04B1CBF13460422CDE9B7
S315080069C002760192D0E7504693A3D3E900235946AD
S315080069D055F0D2F838B992A3D3E900235046594660
S315080069E055F0ACF868B1DDE90723DDE905014BECA4
S315080069F010ABCDE92176209517B0BDE8F04FFFF72B
S31508006A00DFBD002200235046594655F097F8002866
S31508006A1000F09A805B4652460020002154F064FC40
S31508006A20012382468B46099316F4806400F08E8013
S31508006A30092D40F28E80002430210EABA5F1090203
S31508006A400134202C03F8011BA5EB040901D094425C
S31508006A50F6D15946504655F099F8784B054603EB5A
S31508006A60C90393ED007B8DED0A7B54F08BFD02463E
S31508006A700B465046594654F037FCDDE90A2354F0D4
S31508006A80EBFD02460B46CDE90C2355F0A7F88046E8
S31508006A9054F068FD02460B46DDE90C0154F024FC6F
S31508006AA002460B46CDE90C230022654B55F064F8E7
S31508006AB0002851D008F10108404654F053FD02461B
S31508006AC00B46DDE90A0155F043F810B14FF000080E
S31508006AD00135B9F1000F50D1284654F053FD02464E
S31508006AE00B465046594654F0FFFB0022544B80464D
S31508006AF0894655F023F830B1002240464946504BA6
S31508006B0055F03AF810B1E80700D501350A210EAB61
S31508006B101A19202C0AD095FBF1F001FB10553035D7
S31508006B2002F8015B013405460028F2D106F003029B
S31508006B30012A57D1002F55D0099A12B916F00C0F11
S31508006B4000D0013F302245E009906DE74FF0060975
S31508006B507FE7A94600247CE70022DDE90C01384BD3
S31508006B6054F0ECFF0028B4D1B8F1000F02D018F0A9
S31508006B70010FAED008F10108ABE70A210EAB23449A
S31508006B80202C0ED0B8FBF1F001FB1082B8F1090FEA
S31508006B9002F1300209F1FF3904F1010403F8012B6F
S31508006BA011D83021A1440EAA202CAFD0A14504F15A
S31508006BB001030AD11C4609F158030DEB03092E23DC
S31508006BC009F8203CA2E78046DAE7A1541C46EBE721
S31508006BD01A550134A74205D9202CF9D1CDE90276F8
S31508006BE00194C1E6202CF9D0099A3AB12D2104F175
S31508006BF058026A4402F8201C0134EFE7710704D5ED
S31508006C0004F158022B216A44F4E73207E6D504F169
S31508006C10580220216A44EDE70000000065CDCD4109
S31508006C200000000065CDCDC19B2708089F270808EE
S31508006C30FFFFEF7F9227080897270808A827080864
S31508006C400000E03F00000000F0B5934C9FB022889A
S31508006C50A3780021ADF80C2013A82C228DF80E304D
S31508006C606DF0F5FF4FF00233159340F20B130AADA2
S31508006C700434ADF874300FCC0FC50FCC0FC523689C
S31508006C80864A2B60864B874D06930023CDE907334A
S31508006C9009934FF0FF33284683492B6028F08CFE72
S31508006CA00446002853D12868431C06D140F2A44163
S31508006CB07E4B7F4A7F4806F0A1FE03A928F0BAFE5C
S31508006CC00446002843D128685FF0A7FA7A4E7B4F1E
S31508006CD0307028685FF0A3FA387028685FF0A1FA68
S31508006CE0774B78491870286828F06AFF0446002808
S31508006CF02DD13378744E4BB974482DF019F930609C
S31508006D00D0B940F2DC41724B694AD3E771482DF09D
S31508006D100FF930600028EFD0C189286820F08AF979
S31508006D203368214658682DF03DF9044678B9674816
S31508006D302DF0FEF8306090B1C189286820F07AF904
S31508006D403368042158682DF02DF9044638B12346D6
S31508006D5022210220604A60F07BF81FB0F0BD0FF0D8
S31508006D6063FF5E4BCDE9040104AAA3F1080112F8FA
S31508006D70010B03F8010D9942F9D13B78002B46D156
S31508006D80574928685FF000FA04460028DFD15549BC
S31508006D9028685FF0E3F904460028D8D152492868E4
S31508006DA01FF0F0FF04460028D1D139A3D3E9002308
S31508006DB0CDE9002328685FF0E9F904460028C6D122
S31508006DC04A4A4B4928685FF0A2FE04460028BED10D
S31508006DD0484A494928685FF09EFE04460028B6D10D
S31508006DE00121286828F044FE04460028AFD1A023D4
S31508006DF0424A06A8D380424A13600FF0E9FF414B86
S31508006E00186088B940F225513F4B294A52E71C229F
S31508006E10002116A86DF01BFF286813A929F0A6F80B
S31508006E2004460028ACD092E722460121082010F03B
S31508006E3029F9364B186020B94FF4A561344B1C4A22
S31508006E4038E722460121082010F01CF9314B18605A
S31508006E5020B940F22B51304B154A2BE72F4A3049BF
S31508006E6030482EF095FE2F4849F0F2FA00212E48B8
S31508006E700AAA10F061F82D4B186000287FF46DAF50
S31508006E8040F237512A4B0A4A14E700BFAFF3008095
S31508006E90C88D01C103400000A8AB0908913C03084E
S31508006EA0C3A00908349E002048260120D8A0090856
S31508006EB0A9AA0908929E0908D7140120D614012008
S31508006EC0D514012007001100F08D0020CB83060899
S31508006ED0FFA00908B58306088AA10908E01401205D
S31508006EE0A6AB0908A4AB0908389E0020D6270120BE
S31508006EF000190020D82701202C8E00208826012082
S31508006F00A09E0020B49E002017A10908B09E00206C
S31508006F1033A10908AC9E002050A1090870A10908F0
S31508006F204D410308549E0020B5520308B89E002020
S31508006F3079A10908000000002DE9F34705465A4CD7
S31508006F4022211020594A5FF083FF14222946204641
S31508006F506DF024FFA27B564BDFF8A0A11A70637C64
S31508006F6000228AF800300023CDE90023DFF890815B
S31508006F7000224FF40073D8F800005FF007F90646C0
S31508006F8020B10126304602B0BDE8F087494B4A4F8A
S31508006F901B787BB949482CF0CBFF04463C60FCB90A
S31508006FA0474A222102205FF053FF0122454B212642
S31508006FB01A70E7E7444B454C1A88454BD8F8000049
S31508006FC053F82210434A8B6821603B601FF0C4FEC9
S31508006FD02268414B946824221B8802FB0344DDE7A0
S31508006FE03E4B1C60394BD3F80090B9F1000F07D01F
S31508006FF000232420D9F80C108B4208D100251AE06A
S3150800700040F2ED71364B374A374806F0F7FCD9F8A7
S31508007010085000FB0355EA695278120912F00E0F60
S315080070202BD0052A29D8314B0021EA89B3F900006B
S315080070303D602CF0EFFF1AA3D3E90023CDE9002326
S31508007040D8F800005FF0A2F8D9F80820AA4207D0BD
S31508007050274B3A600421D289B3F900002CF0DAFFF5
S31508007060244BE2893C601A80234B1B783BB92DF0F0
S31508007070D9FF01202DF064FC84E70133BCE79AF8B8
S3150800708000301B0913F00E0FF1D101220721D8F8A1
S3150800709000005FF00AFE0028E9D072E7AFF300802F
S315080070A0C88D01C103420000F48D00205FA50908C0
S315080070B0CC140120D0140120F08D00208D40030847
S315080070C07BA50908CE14012090A70020E48D002096
S315080070D0CC2001209D3C03088EA70020EC8D0020C3
S315080070E0B7A5090867A90908929E0908DA270120A1
S315080070F0DC270120D0270120D6140120CB1401203B
S31508007100349E0020000000002DE9F84390F8E8615D
S31508007110054644683EB902202721414A5FF098FE99
S315080071203046BDE8F88394F90130002B1ADA731E4D
S315080071305BB2637000EB431393F825302370A068A5
S3150800714054F032FA32A3D3E900238046894694F9EB
S31508007150017054F011FDF8B1002F1DDD013F002329
S31508007160677024E09E42227805DD00EB431393F80E
S3150800717025309342E3D0002305F1250163705801B9
S31508007180085C904208BF637001339E42F7D8731EAD
S31508007190637000232371D2E740461FA3D3E9002377
S315080071A0494654F0E9FCF0B12379E3B1013B237178
S315080071B094F9013005F5F57005EB431393F825307E
S315080071C0237085F8EA31052395F8022285F8EC3113
S315080071D085F8F02100230E2285F8EB3185F8F22197
S315080071E085F8F1319DE740460BA3D3E900234946CC
S315080071F054F0A4FC0028DBD023790133DBB2092B39
S315080072002371D5D9013EBE42D2DD0137A7E700BFBB
S31508007210666666666666E63F9A9999999999B93F48
S31508007220226D0A08000000002DE9F8432DED028BB7
S3150800723087680546384616460C4654F0B5F928A31D
S31508007240D3E900238046894654F096FC88BB26A3DA
S31508007250D3E900234046494654F070FC60BBF7EE7C
S31508007260007A07EE107A87EE878A6B7F607F0122A5
S31508007270834224D0002149F085FD01220446314687
S31508007280687F49F07FFD044404F2D5702860D8B1C0
S3150800729007EE900AF8EE677A9FED0D7A67EE887A20
S315080072A087EE270ABDEC028B10EE103AEB60BDE8BC
S315080072B0F8839FED088AD8E79FED078AD5E7314618
S315080072C0184649F05FFDE1E79FED040AEAE700BFCB
S315080072D000007A44E4388E3F00401C460000000057
S315080072E0CDCCCCCCCCCCEC3F9A9999999999B93F0D
S315080072F02DE9F74F064690F8E8010D469146A0B3EA
S315080073007468A3690133A361A37D06EB43131A7F4F
S3150800731002441A77D4E90732C3EB520207EE902AE1
S315080073204000B8EE677A07EE900AF8EEE76AF4EEE0
S31508007330C76AF1EE10FA0BD507EE903A37EE667A81
S31508007340F8EE677A77EE877AFCEEE77AC4ED077A85
S315080073504FF0000BD9450BD842F21073A2699A4236
S3150800736082BF0023C4E90633236203B0BDE8F08F69
S31508007370B5F802A02F79BAF1000F2ED0384654F08E
S3150800738001F9CDE90001504654F0FCF802460B46D7
S31508007390DDE9000154F08AFA02460B4600204C4902
S315080073A053F0A2FF54F03AFC07EE100A96F803329F
S315080073B0AAEB0700034486F8033294F8243033B363
S315080073C094F825305B4522D1BAF1000F08D1C4F8EC
S315080073D020A00BF1010B0635BCE7B7EE007AE5E70E
S315080073E0E3690133E3612A78002AF2D0002398463C
S315080073F096F8E8C106F108019C450FD8B8F1000FC8
S3150800740014D127210220334A5FF022FDE1E72A78CA
S31508007410002ADED0BAF1000FDBD0E7E791F81DE0CD
S315080074200133964508BF88462031E5E7002288F8EB
S315080074301420B8F81020D8F8043017440133BAB22B
S31508007440C8F80430A8F810701AB198F81D2086F804
S315080074501422F7EE007A012B77EEC77A8CBFB3EECB
S31508007460097A9FED1D7AB8F8122088BF67EE877AE9
S315080074700244A8F81220D8F808208CBF9FED177A86
S3150800748067EE877A06EE102ADFED156AE6EE077ACA
S3150800749087EEA67A17EE103A17EE100AC8F80830E3
S315080074A054F082F808A3D3E9002354F047FB18B137
S315080074B0FF2388F815308CE798F91530013388D101
S315080074C00423F6E7AFF30080666666666666EE3FF7
S315080074D00000F03F426D0A0800004842000096424C
S315080074E00000C842000000002DE9F04F2DED028B88
S315080074F0054600274FF0200A4FF0080B0B460820D8
S315080075004D4A87B0884627215FF0A2FC95F8E831F6
S3150800751027210820494A5FF09BFC6C6805F108069C
S31508007520E37D23716371637595F8E891B9450DDCC0
S315080075303FA7D7E900674FF00008AA46C346C145EA
S3150800754046D807B0BDEC028BBDE8F08FE17D424618
S315080075501AFB01B130462944FFF766FE96F81D90DE
S315080075600495F06854F020F8CDE90201B06854F0AB
S315080075701BF84B46CDE90001314A272108205FF068
S3150800758067FC2379D6ED037A05EB431292ED057A6B
S31508007590F4EEC77AF1EE10FA02DB327F22710EE0C2
S315080075A017B995F82420F9E7637905EB431393EDAA
S315080075B0057AF4EEC77AF1EE10FA04DB337F6371CD
S315080075C001372036B0E7012FFAD195F84430F6E7AF
S315080075D0E37D434515D09AED048A18EE100A53F058
S315080075E0E3FF32463B4654F0BDFA10B9BBF1000F33
S315080075F00CD19AF8243022799A4202D062799A42BA
S3150800760011D108F101080AF1200A98E7637D05EB14
S315080076104313D3ED047AB4EEE78AF1EE10FAE8DA0A
S315080076204FF0010BEDE76375FAE700BFAFF3008093
S31508007630666666666666EE3F5A6D0A087C6D0A08D7
S315080076408B6D0A08000000002DE9F047D0F8048089
S3150800765000EB411393F8245098F817300446AB42D0
S315080076602DD098F81530AB4229D000EB411ADAF83C
S3150800767010004FEA411953F097FF13A3D3E90023EB
S3150800768006460F4654F064FA10B99AF91D00A0B1DF
S3150800769098F80430AB4212D098F80530AB420ED0B9
S315080076A009A3D3E900233046394654F065FA18B1E0
S315080076B04C44637F013B63770120BDE8F0870020D7
S315080076C0FBE700BFAFF30080666666666666EE3F58
S315080076D02DE9F34704460E46456827210820804AC7
S315080076E05FF0B6FB20463146FFF7FEFE28466CF0F3
S315080076F0A1FA002800F0BA8020466CF0AEFA061E01
S31508007700C0F2B48094F8E8319E4280F2AF8004EB70
S315080077104617334627210820724A5FF099FB27212E
S31508007720082097F82530704A5FF092FB012295F8F9
S3150800773004C085F8242004EB4C13386A196A884279
S3150800774097F8250002D8397F322977D9012284F89B
S31508007750EC21002284F8EA0184F8EB21A97D29703E
S3150800776093F8251084F8F01193F8263084F8F1215F
S3150800777084F8F231697D85F801C004EB411393F86A
S315080077802500012684F8F60193F8263084F8F831A6
S31508007790002384F8F731A97085F82520A04605F15D
S315080077A0FF3904F1120A19F8013F5F1C002E00F098
S315080077B0898004EB4313186953F0F6FE02460B461C
S315080077C0CDE9002342A3D3E9002354F0D5F940B903
S315080077D041A3D3E90023DDE9000154F0AFF90028FD
S315080077E070D004EB4717BB79042B8EBF02230133F5
S315080077F0C3F3460388F8EC3108F10608C245D2D12E
S31508007800EA7D04F5F57004EB421393F8253084F805
S31508007810FC31002384F8FD31EA7085F8243094F8A9
S31508007820F22194F8EC31134494F8F821C3F11303C8
S315080078309B1A84F8FE3102B0BDE8F08793F82570EC
S31508007840697D84F8EA7193F8263084F8EC310023D0
S3150800785084F8EB3185F800C084F8F13184F8F0013A
S3150800786084F8F22104EB41136E7088E700262A7922
S3150800787004EB421393F8251084F8EA1193F826309E
S3150800788084F8EB6184F8EC312A706A7904EB4213C8
S3150800789093F8251084F8F01193F8263084F8F161EE
S315080078A084F8F2316A706A7D04EB421393F8251066
S315080078B084F8F61193F8263084F8F76184F8F831DD
S315080078C0AA706BE704EB4717BB7993E7AFF3008021
S315080078D0666666666666EE3F9A9999999999B93F7A
S315080078E0AF6D0A08BD6D0A08CD6D0A0800000000D4
S315080078F02DE9F8432DED028B87680546384616466E
S315080079000C4653F051FE2EA3D3E900238046894640
S3150800791054F032F900283DD12BA3D3E90023404681
S31508007920494654F00BF9C0BBF7EE007A07EE107A19
S31508007930AB7F87EE878A07EE903AB8EEE77AB4EE21
S31508007940C87AF1EE10FA01D5B8EE678A6B7F607FC8
S315080079500122834224D0002149F014FA0122044668
S315080079603146687F49F00EFA044404F2D57028605F
S31508007970D8B107EE900AF8EE677A9FED0D7A67EEB2
S31508007980887A87EE270ABDEC028B10EE103AEB6078
S31508007990BDE8F8839FED078AD8E79FED078AD5E704
S315080079A03146184649F0EEF9E1E79FED040AEAE7A1
S315080079B000007A44E4388E3F00401C460000000070
S315080079C0CDCCCCCCCCCCEC3F9A9999999999B93F26
S315080079D02DE9F04F2DED028B90F8E83105460E465D
S315080079E0934689B0002B00F0238127210820964A68
S315080079F05FF02EFA00226C68A1690131A16195F841
S31508007A00E80190423DD8D4E907230A277943642739
S31508007A10B1FBF7F1C2EB53030B4407EE903A430070
S31508007A2006EE903AF8EE677AF8EEE66AF4EEE76A5A
S31508007A30F1EE10FA0BD507EE102A77EEE67AB8EED5
S31508007A40477A77EE277AFCEEE77AC4ED077A0027BD
S31508007A50B846BB451DD8B8F1010F00F0E680B8F16D
S31508007A60130F40F2B9800023A3612721082095F857
S31508007A700332764A09B0BDEC028BBDE8F04F5FF0E1
S31508007A80E7B9A37D013205EB43131F7F01371F7743
S31508007A90B7E7B6F8029096F804A0B9F1000F41D0FE
S31508007AA0504653F06FFDCDE90601484653F06AFD8E
S31508007AB002460B46DDE9060153F0F8FE02460B4680
S31508007AC00020634953F010FC54F0A8F808EE100A99
S31508007AD0337818EE100A0693049553F065FD069B55
S31508007AE0CDE902015B4A27210820CDE9009A5FF01B
S31508007AF0AFF97288337995F80312D31A0B4485F8CF
S31508007B00033294F82430C3B194F82530BB4214D11B
S31508007B105AB92262272108204F4A5FF099F901379E
S31508007B20063696E7B7EE008AD2E7E36927210133DE
S31508007B3008204A4AE3615FF08BF9B6F802A0BAF169
S31508007B40000FECD00023E25D05EB4211C8680B7705
S31508007B500130C86096F804C00B8B4FEA421963449B
S31508007B609BB20B831BB191F8253085F81432F7EEDA
S31508007B70007A05EB0902538B01285344A3EB0C0347
S31508007B8077EEC87A53830DD9B2EE0E7AD2ED046A2F
S31508007B9027EE877ADFED327AA6EEA77ADFED316A2D
S31508007BA0C7EE267AA944C9ED047A17EE900A53F06F
S31508007BB0FBFC23A3D3E9002353F0C0FF30B1FF2316
S31508007BC089F81D30C2441FFA8AF8A8E799F91D30CA
S31508007BD00133F7D10423F3E7B8F1020FD4ED0B7A9A
S31508007BE0B1EE047A15D977EE877AB3EE047AF4EE15
S31508007BF0477AF1EE10FA77FE277A42F21073A269F5
S31508007C00C4ED0B7A9A4282BF0023C4E90633236285
S31508007C102BE7F2EE046A77EEE67AF4EE477AF1EEAF
S31508007C2010FA48BFF0EE477AE7E7DFED0F7AE4E7A8
S31508007C3009B0BDEC028BBDE8F08F00BFAFF3008042
S31508007C40666666666666EE3F126E0A08786E0A080B
S31508007C500000F03F286E0A08596E0A08686E0A087E
S31508007C600000AA420000C842000000000000000010
S31508007C702DE9F84F2DED028B0546884600274FF073
S31508007C8020094FF0080B446800F10806E37D2371CC
S31508007C906371637595F8E8A1BA450CDC0FF2D00953
S31508007CA0D9E9008900262F46B346B24532D8BDEC3D
S31508007CB0028BBDE8F88FE17D424619FB01B13046DB
S31508007CC02944FFF715FE2379D6ED037A05EB43120F
S31508007CD092ED057AF4EEC77AF1EE10FA02DB327FFE
S31508007CE022710EE017B995F82420F9E7637905EBB8
S31508007CF0431393ED057AF4EEC77AF1EE10FA04DB36
S31508007D00337F637101372036C4E7012FFAD195F81E
S31508007D104430F6E7E37DB34215D097ED048A18EEB2
S31508007D20100A53F041FC42464B4653F01BFF10B96C
S31508007D30BBF1000F0AD197F8243022799A4202D073
S31508007D4062799A420FD101362037AEE7637D05EB9B
S31508007D504313D3ED047AB4EEE78AF1EE10FAEADAC1
S31508007D604FF0010BEFE76375FAE700BFAFF300804A
S31508007D70666666666666EE3F2DE9F047456890F8E2
S31508007D80E821AB690446B3EB420F2ED900EB411349
S31508007D9093F82480EB7D43452AD06B7D434527D055
S31508007DA000EB411ADAF810004FEA411953F0FCFBD0
S31508007DB011A3D3E9002306460F4653F0C9FE10B9AE
S31508007DC09AF91D0090B12B79434511D06B7943453B
S31508007DD00ED009A3D3E900233046394653F0CCFE2A
S31508007DE018B14C44637F013B63770120BDE8F087F7
S31508007DF00020FBE7AFF30080666666666666EE3FC0
S31508007E000348044B834202D0034B03B1184770471B
S31508007E101C3401201C34012000000000064B0749D1
S31508007E20C91A891048BF0131491003D0044B0BB158
S31508007E3001481847704700BF1C3401201C34012034
S31508007E400000000010B5064C237843B9FFF7D8FFA9
S31508007E50044B13B10448AFF300800123237010BD0F
S31508007E60A0A700200000000024860A0808B5054BD4
S31508007E701BB105490548AFF30080BDE80840FFF788
S31508007E80CDBF00BF00000000E022002024860A08BB
S31508007E90A3F5803A704700BF174B002B08BF134B5A
S31508007EA09D46FFF7F5FF00218B460F461348144AF7
S31508007EB0121A6CF0CCFE0E4B002B00D098470D4BD7
S31508007EC0002B00D098470020002104000D000D4823
S31508007ED0002802D00C48AFF3008054F057FD20006C
S31508007EE0290058F091FD54F0D7F900BF00000800AA
S31508007EF000000000000000000814002008140020FC
S31508007F00D81D0120000000000000000008B504F09C
S31508007F10D9FD0022084BC3E90001084BC3E900015B
S31508007F20074B08491A8000220023C1E900230649A5
S31508007F30C1E9002308BD00BF881400208014002072
S31508007F407EA7002078140020701400202DE9F04F39
S31508007F509BB000AF00233149314A04460D4692468C
S31508007F6018460133DBB2082B01F8010B02F8010BA6
S31508007F70F7D107F10B005FF01FF918B181B2294854
S31508007F801EF000FC6A46FB7A07F10B00A2EBC3035E
S31508007F909D4669466E465FF024F918B181B22248BB
S31508007FA01EF0F0FB4FF00008FA7A5FFA88FB5A4594
S31508007FB008D820462B686C3723606B686360BD461B
S31508007FC0BDE8F08F06EBCB094FEACB0307F10C01AE
S31508007FD048467B605FF01EF9F96A49B91349484675
S31508007FE05FF018F956F83B102960D9F80410696053
S31508007FF0F96A01290ED148460D495FF00BF97B68ED
S315080080003344994656F83B30CAF80030D9F804305C
S31508008010CAF8043008F10108C6E700BF59B00020C5
S3150800802051B000204878070881780708B4B90020BD
S315080080305BB9002013B56846FFF788FF084C094A64
S315080080402146D379084892791EF0B0FB2146074AA3
S315080080500748D379927902B0BDE810401EF0A6BB56
S31508008060B578070859B0002040B9002051B0002063
S3150800807038B900202DE9F043A7B02E4C21AE204692
S315080080805FF057F954F089FF2B49024630461EF037
S315080080908DFBFFF7CFFF294B2088D3E9001201316A
S315080080A042F10002C3E90012254B264D5F89264B93
S315080080B01E93264BD3E90A89CDE91C89D3E9088999
S315080080C0CDE91A89D3E90689CDE91889D3E904895E
S315080080D0CDE91689D3E90289CDE91489A378CDE9D2
S315080080E00F07CDE91173CDE90C12194B0E900A96BC
S315080080F093F844204FF48061099293F84520284666
S315080081000892B3F840200792DA8F06929B8F114A9D
S315080081100593114B0493114B0393114B0293114B87
S315080081200193114B0093114B1EF054FB284627B0C0
S31508008130BDE8F0830DBA0020C0B509086814002010
S31508008140EC23002069B40020D4B8002008140020CD
S31508008150B4B90020CC78070840B9002011BA00202D
S315080081606BB80020267A070848B9002019B0002005
S315080081702DE9F04FF9B0239054F00FFFDFF89892ED
S3150800818002468E4925A81EF011FBFFF753FF484605
S315080081905EF0C3FF8A485FF0CCF88A4C3EA90420FB
S315080081A05EF071FF01205BA95EF06DFFD4E9003235
S315080081B0013342F10002C4E9003299F80030DFF8D1
S315080081C05CA2052B2AAD2FAE34AF40F0A58004F093
S315080081D079FC7D4ADFF848B2D2E90032B0EB0308F1
S315080081E061EB02094946404604F046FC73490246DB
S315080081F028461EF0DBFA754930461EF0D7FADAE94A
S31508008200000118EB000049EB010104F035FC6B494D
S31508008210024638461EF0CAFADBE9000104F02CFCD7
S315080082206649024639A81EF0C1FADAE90001DBE917
S31508008230003218EB000049EB010110EB030A41EB91
S31508008240020B5AEA0B0340F0A4806148614B1B6895
S315080082502193614B1B682093499B1F93459B1E9353
S315080082609DF8B4311D935C9B1C93639B1B935D9B8C
S315080082701A93669B1993524B9B78189339ABCDE9A1
S31508008280167353F091F9CDE91401544B1B881393D7
S31508008290534B1B881095CDE91163524D686853F00E
S315080082A061F964230646E8680F46B0FBF3F053F01D
S315080082B059F902460B463046394653F0F7FACDE9E6
S315080082C00E01D4E90023CDE90C2325AB0B93464BCD
S315080082D04FF4806193F8442044480A9293F8452065
S315080082E00992B3F840200892DA8F07929B8F404A8A
S315080082F00693404B0593404B0493404B0393404BE6
S315080083000293404B0193404B0093239B1EF062FA65
S31508008310364879B0BDE8F08F04F0D4FB3B4AD2E981
S315080083200032B0EB030861EB020B284699F80020EF
S3150800833037491EF03BFA5946404604F09DFB1F4953
S31508008340024630461EF032FADAE9000104F094FBE0
S31508008350DFF8CC900246194938461EF027FAD9E9C3
S31508008360000118EB00004BEB010104F085FB1349F3
S31508008370024639A81EF01AFADAE90001D9E90032EC
S3150800838010EB030A41EB02031AEB080A4BEB030B4B
S3150800839057E753F02BF900221E4B53F05DF9804640
S315080083A089465046594653F021F902460B4640463F
S315080083B0494653F07BFA53F031FC47E7C0B5090844
S315080083C00DBA002068140020881400202B7A0708AC
S315080083D00000C84244230020402300207CA7002038
S315080083E07EA7002048230020B4B9002069B40020E5
S315080083F0427A070840B9002011BA00206BB800205D
S31508008400267A070848B9002019B0002080140020F1
S315080084102E7A07080000594069B800207814002011
S315080084207014002037B5604901205EF0B4FD05469A
S315080084305E495D4808F092FF5D4C002D00F09C8077
S315080084404FF480615B4A20681EF0C4F954F0A5FD1C
S3150800845023680246584900205DF0D0FD54F09DFD82
S315080084602268014654481EF08DF94FF48061534A3C
S31508008470ABB220681EF0AEF9002021685DF0BEFDA3
S3150800848020681EF07FF94FF480614D4B4D4A2068F5
S315080084901EF0A0F954F081FD2368024646490020E3
S315080084A05DF0ACFD54F079FD2268014642481EF0A5
S315080084B069F943486CF07FFC434A0146404855F049
S315080084C06CFC4249404808F049FF40F2D543009306
S315080084D04FF480613D4B3E4A20681EF07BF954F00C
S315080084E05CFD23680246344900205DF087FD54F0A0
S315080084F054FD2268014630481EF044F94FF4806165
S31508008500344B354A20681EF065F954F046FD236859
S315080085100246294900205DF071FD54F03EFD2268AF
S31508008520014625481EF02EF92A486CF044FC2B4AD1
S315080085300146284855F031FC2949284808F00EFF1D
S3150800854041F2356300934FF48061254B254A206834
S315080085501EF040F954F021FD236802461649002012
S315080085605DF04CFD54F019FD2268014612481EF0D4
S3150800857009F9284603B030BD4FF480610B4B1A4AFF
S3150800858020681EF027F954F008FD236802460A49B8
S3150800859028465DF033FD54F000FD22680146064882
S315080085A01EF0F0F86FE700BF41B0002019B00020B8
S315080085B0A0240020FC1E0808DC7C0708E47C0708C9
S315080085C0447D0708567D07082C230020C9AF0020E4
S315080085D0717D0708987D0708AA7D07080C230020E7
S315080085E0A1AF0020C67D0708217D0708F8B5FFF76B
S315080085F019FF03220221002028F0A2F9514A411C42
S315080086000346514C106023D14FF480614F4A2068CD
S315080086101EF0E0F854F0C1FC236802464C490020DD
S315080086205DF0ECFC54F0B9FC2268014648481EF09F
S31508008630A9F8484A4FF4806120681EF0CBF82168F3
S3150800864000205DF0DBFC20681EF09CF80120F8BDD8
S315080086504FF48061404A20681EF0BCF854F09DFC37
S31508008660236802463A4900205DF0C8FC54F095FCA0
S31508008670002501462268394E35481EF083F840F237
S31508008680D54035605EF0F1FB0322B0800221284612
S3150800869028F056F9324E421C0346306016D14FF484
S315080086A080612A4A20681EF095F854F076FC236803
S315080086B00246274928465DF0A1FC54F06EFC226864
S315080086C0014623481EF05EF8264AB3E74FF4806158
S315080086D0254A20681EF07EF854F05FFC236802469F
S315080086E01B4928465DF08AFC54F057FC1F4F01468B
S315080086F0226817481E4C1EF045F841F23560256081
S315080087005EF0B3FB33683E46A08046F8043B0FCCC8
S315080087100FC694E80F0086E80F0041F20303FB84B6
S315080087203223BB6242F22A3312484FF48061BB857A
S31508008730B86355F07BFD7D63F88587F82450284695
S315080087403D6484E7FC220020A0240020FC1E0808C3
S31508008750DC7C0708ED7D0708237E07082023002018
S31508008760F8220020537E07088A7E07085C2001202D
S3150800877000230020BA7E070873B53C4D4FF480618C
S31508008780E86355F053FD288605F1240055F042F9B3
S31508008790064655F028F90446E8B9354D009640F2E4
S315080087A039534FF48061334A28681EF013F854F0A1
S315080087B0F4FB2B680246304920465DF01FFC54F056
S315080087C0ECFB2A6801462C481DF0DCFF40F23B55BD
S315080087D0284602B070BD05F1240155F01DF90028A0
S315080087E01CDA234D40F23E534FF48061234A286831
S315080087F01DF0F0FF54F0D1FB1F4902462B680020FC
S315080088005DF0FCFB54F0C9FB2A6801461A481DF0C6
S31508008810B9FF0025204655F0F2F8D9E72023019341
S31508008820174B3246009321460023286828F0F8F8AB
S315080088300130EED12B680E4E00934FF4806140F262
S315080088404753104A30681DF0C5FF54F0A6FB33683D
S315080088500246094900205DF0D1FB54F09EFB3268C0
S31508008860014605481DF08EFF3125D3E75C2001201F
S31508008870A0240020CD7E0708DC7C07080D7F0708AA
S3150800888000230020477F07082DE9F04385B00546F9
S315080088901C469DF830609DF83470002A00F08B80E5
S315080088A0002974D054F079FB01466E481DF06AFF22
S315080088B028461DF067FF002C40F095800124002E05
S315080088C03BD02B464FF48061674A68481DF082FF0B
S315080088D020230193664BDFF8C491009386B20023E8
S315080088E032466249D9F8000028F09AF801307ED15C
S315080088F040F2D54302935F4B03960193D9F80030B3
S31508008900DFF8808100934FF4806140F26E535A4A33
S31508008910D8F800001DF05EFF54F03FFB57490246A9
S31508008920D8F8003000205DF069FB54F036FBD8F823
S315080089300020014651481DF025FF27B32B464FF46A
S315080089408061494A4E481DF045FF83B2B3F5806FF2
S3150800895050D94FF480614B4D019100934A4A40F239
S31508008960775328681DF036FF54F017FB4349024633
S315080089702B6800205DF042FB54F00FFB2A68014685
S315080089803E481DF0FFFE204605B0BDE8F0831DF009
S31508008990F9FE002C92D00124DFF8E8802A464FF42D
S315080089A08061D8F800001DF015FFD8F800100020E7
S315080089B05DF024FB15E0002B81D0B1B11446DFF839
S315080089C0C4802A464FF48061D8F800001DF002FFE3
S315080089D054F0E3FAD8F800300246284900205DF042
S315080089E00DFB01346BE70124E9E70C46D4E70134B3
S315080089F0E4B2A2E72248FFF7BFFE064610B90134E3
S31508008A00E4B2C0E71F4D4FF48061204A28681DF084
S31508008A10E1FE54F0C2FA2B680246184900205DF0C0
S31508008A20EDFA54F0BAFA2A68014614481DF0AAFE6F
S31508008A3041F235630293164BB6B20193154B039672
S31508008A401B68154A00934FF4806140F27B532868EF
S31508008A501DF0C0FE296800205DF0D0FA28681DF0D8
S31508008A6091FE90E7757F0708C0B50908A1AB0020FD
S31508008A7020230020C9AF00207B7F0708DC7C07087D
S31508008A80A1A70020A0240020D97F0708FC1E0808FB
S31508008A90A1AF0020F822002045800708FC2200200C
S31508008AA02DE9F04F9BB003F06FFFC24B40211868C9
S31508008AB055F00EFBC04C0546002800F0C78283B26D
S31508008AC04FF48061BD4A20681DF084FE54F065FAB3
S31508008AD0024600202368BA495DF090FA54F05DFA20
S31508008AE022680146B6481DF04DFE02F0FBFF7823CA
S31508008AF0B44D2B8105F00EF8B3486CF05CF9D0B193
S31508008B00EB880133EB8002F0ABFF4FF48061AE4B8C
S31508008B10AE4A20681DF05EFE54F03FFAA8490246A8
S31508008B20236800205DF06AFA54F037FA2268014695
S31508008B30A3481DF027FE4FF47A706EF022F9A44878
S31508008B401DF020FEA34AA449A4481DF02FFEA44BFD
S31508008B50A44EA54F0293A54B64213046A44A01931F
S31508008B6000979E4B1DF036FE4FF48061CDE90076E6
S31508008B709A4BA04A20681DF02DFE54F00EFA236881
S31508008B8002468F4900205DF039FA54F006FA9A4FEA
S31508008B90014622688A481DF0F5FD5021974B984AF0
S31508008BA0984800971DF016FE0DA809F043F8119B8A
S31508008BB050211B69944ACDE9007392488F4B1DF0EA
S31508008BC009FE33464FF48061904A20681DF002FE84
S31508008BD054F0E3F923680246794900205DF00EFA5D
S31508008BE054F0DBF92268014675481DF0CBFD4FF4B9
S31508008BF08061844B854A20681DF0ECFD54F0CDF960
S31508008C00236802466E4900205DF0F8F954F0C5F96C
S31508008C10226801466A481DF0B5FD4FF480617C4B19
S31508008C207C4A20681DF0D6FD54F0B7F92368024641
S31508008C30634900205DF0E2F954F0AFF92268014675
S31508008C405F481DF09FFD0120266808F01BFC4FF4C5
S31508008C5080610346704A30461DF0BCFD54F09DF90C
S31508008C6023680246564900205DF0C8F954F095F984
S31508008C702268014652481DF085FD02234FF48061A3
S31508008C80664A20681DF0A6FD54F087F92368024657
S31508008C904B4900205DF0B2F954F07FF9226801468D
S31508008CA047481DF06FFD0121032003F025FC012232
S31508008CB003211A2003F048FC01220421102003F0A6
S31508008CC043FC01222220114603F03EFC0122042126
S31508008CD00B2003F039FC01222520114603F034FC51
S31508008CE001221D20114603F02FFC0122022100203B
S31508008CF003F02AFC01220221282003F025FC484B18
S31508008D004FF48061344A47481DF064FD4FF4806192
S31508008D10454A20681DF05EFD54F03FF92368024677
S31508008D20274900205DF06AF954F037F922680146B0
S31508008D3023481DF027FD4FF480613C4A20681DF04A
S31508008D4049FD54F02AF9236802461D4900205DF0C2
S31508008D5055F954F022F92268014619481DF012FD0A
S31508008D604FF48061324B334A20681DF033FD54F0CE
S31508008D7014F923680246124900205DF03FF954F0C1
S31508008D800CF9226801460E481DF0FCFC4FF4806180
S31508008D90294B2A4A20681DF01DFD54F0FEF8236869
S31508008DA00246074900205DF029F954F0F6F82268D2
S31508008DB0014645E0FC200120A0240020AF800708DA
S31508008DC0DC7C0708EC2300203AE60020108107081F
S31508008DD0FC1E0808267A0708C0B5090850B90020FD
S31508008DE038810708D4B80020548107083D81070850
S31508008DF02C8107085D8107088881070867810708AD
S31508008E007381070884B8002091810708407D070808
S31508008E10BB810708CB810708D7810708E8810708BF
S31508008E20C41A080869B00020FE81070815820708D9
S31508008E302F8207083F8207085782070867820708B4
S31508008E408D481DF09FFC4FF480618C4A20681DF008
S31508008E50C1FC54F0A2F823680246874900205DF059
S31508008E60CDF854F09AF8864E0146226882481DF0DD
S31508008E7089FC30465EF076F9304608F0F7FB814902
S31508008E80024681481DF092FCF379B2797F49804801
S31508008E901DF08CFC4FF480617B4B7E4A20681DF0E8
S31508008EA099FC54F07AF823680246734900205DF06D
S31508008EB0A5F854F072F8226801466F481DF062FC66
S31508008EC04FF48061724B744A20681DF083FC54F09D
S31508008ED064F823680246684900205DF08FF854F06C
S31508008EE05CF82268014664481DF04CFC6B496C48E6
S31508008EF01DF05CFC4FF48061694B6A4A20681DF0DE
S31508008F0069FC54F04AF8236802465B4900205DF084
S31508008F1075F854F042F82268014657481DF032FCAD
S31508008F202B7B53B96049942006F0C2FD95205E4913
S31508008F3006F0BEFD012002F0AFF95C498B2006F071
S31508008F40B7FD02F00FFC6B7BE3B12E7B002E40F0E1
S31508008F508A8001205EF030FA4FF480616B7B544AB8
S31508008F6020681DF037FC54F018F843490246236878
S31508008F7000205DF043F854F010F8226801463E4898
S31508008F801DF000FC4FF480612B894A4A20681DF0C9
S31508008F9021FC54F002F823680246374900205DF0A8
S31508008FA02DF853F0FAFF2268014633481DF0EAFB14
S31508008FB068895EF056FA4FF480616B893E4A2068EC
S31508008FC01DF008FC53F0E9FF236802462A490020F1
S31508008FD05DF014F853F0E1FF2268014626481DF0BB
S31508008FE0D1FB03F015FB03F097FD03F06BFD334B44
S31508008FF0DFF8DC80C3E9000105F002F9DFF8D49058
S3150800900003F060FD07462E480E465EF086F82C4BA8
S315080090101B78052B60D03C2200233846314652F097
S31508009020ABFF1A430BD153F0B8FF014640461DF07B
S31508009030A9FB234B49461A7822481DF0A3FB03F0E7
S315080090403DFE4FF47A706DF09CFED9E74FF48061CF
S315080090501D4A20681DF0BEFB53F09FFF2368024699
S315080090600549284638E54FF48061184A2068009675
S315080090701DF0B0FB77E700BFDC7C07087F82070896
S3150800908061B00020C0B5090811BA0020B5780708F4
S3150800909048B9002098820708A7820708B6820708F9
S315080090A06BB80020CE820708EDB30008AD93000820
S315080090B0DE8207081E8307083F83070890140020EE
S315080090C069B8002058830708E7800708EC82070874
S315080090D0757F0708BB81070803F0F4FCCDE9060194
S315080090E00121032003F008FA01222220114603F089
S315080090F02BFA01220B20114603F026FA012225201D
S31508009100114603F021FA01221D20114603F01CFA2C
S3150800911001220221002003F017FA01220221282049
S3150800912003F012FAFFF762FA4523844A8449854810
S315080091301DF028FB09A901205DF02DFF82481DF0CE
S3150800914021FB09A808F07CF9012601467F481DF095
S315080091502DFB41F233627E4B7C497E481DF012FBA3
S315080091607D481DF00FFB41F23362794B77497B4806
S315080091701DF008FB0A217A481DF004FB41F2336210
S31508009180784B6E4978481DF0FDFA78481DF0FAFAD2
S3150800919041F23362734B694975481DF0F3FA754914
S315080091A06A4800F0C3FB7448FEF764FF334632464C
S315080091B03146CDE90066FFF767FB70486BF0FBFDAB
S315080091C050B102206DF0DDFD334632463146CDE919
S315080091D000666A48FFF758FB0126694813F0AEFC9B
S315080091E0684B02201E704FF000096DF0CAFDDFF8CB
S315080091F0B8A1DFF8A0B103F065FC069BC71A079B68
S3150800920061EB0308604B1B78052B2ED103F042FB5C
S3150800921003F054FD012305933846002341462A8965
S3150800922052F0AAFE1A4324D09AF8003033BB002322
S31508009230384641462A8952F09FFE013A1A4308BF2A
S315080092400126052200233846414652F095FE53EA88
S3150800925002016CD14B4F3B7823B1494813F06EFCA1
S3150800926087F8009053F019FFC5E703F027FD0023A0
S31508009270D1E71EB99AF80060002EE2D04348444A66
S315080092804021444B006854F0D9FE414A002840D199
S31508009290D2ED007AB2EE047AF8EE677AC7EE877AEC
S315080092A017EE900A52F080F9DBED007A9FED3A7AD4
S315080092B0F8EEE77AC7EE877ACDE9020117EE900A4B
S315080092C052F072F9354ACDE900014FF48061206801
S315080092D01DF080FA53F061FE2368024630490020EB
S315080092E05CF08CFE53F059FE226801462C481DF0AE
S315080092F049FA2148FEF73CFF059BCDF804900093F8
S3150800930001231A461946FFF7BFFA00268AF8009085
S315080093108DE74FF0FF33C2F80090CBF800304FF4DA
S31508009320806183B21F4A20681DF054FAD2E7013AD9
S315080093301A4302BF0122134B1A7093E78583070865
S3150800934091830708A4830708E683070819B0002055
S3150800935000840708098407084C84070883840708DB
S31508009360BA840708EB840708FB84070849850708B9
S3150800937084850708F1AF0020C41A08083AE60020D9
S315080093804823002058B9002069B80020FC20012095
S31508009390442300204023002000007A44BA850708A9
S315080093A0DC7C0708E185070859B900202DE9FF4745
S315080093B08268CA4DD2B2052A2A7000F2FB81C84ECD
S315080093C033889A4200F0F681C64C00924FF48061C9
S315080093D0C54A20681DF0FEF953F0DFFD23680246F2
S315080093E0C24900205CF00AFE53F0D7FDC04F014683
S315080093F02268BE481DF0C6F995F800803B784345BB
S3150800940008F1FF3388BF87F80080042B35D803F0AE
S3150800941059FBDFF8ECC22B780CEBC808C8E9000149
S31508009420581E5CF833200CEBC00E5CF830000CEBD1
S31508009430C301121ADEF804C04968AE4861EB0C0194
S3150800944000EBC30C40F83320CCF80410CDE900211A
S315080094504FF48061A84A20681DF0BCF953F09DFDC1
S31508009460A2490246236800205CF0C8FD53F095FD2A
S31508009470226801469D481DF085F92B78052B40F09A
S31508009480A2809E499E4ADFF8A492D2E90A3C0A883D
S31508009490C9E9003C013292B20A80397803299FBF94
S315080094A098480188013101800521012A3970206810
S315080094B0954F40F08281CDE9003C4FF48061934A94
S315080094C01DF088F953F069FD236802468749002094
S315080094D05CF094FD53F061FD2268014683481DF057
S315080094E051F900231A46DFF85082C7E90032404690
S315080094F06BF061FC864B87B295F80090188053F0A4
S315080095004CFDC7F580614B46824A009008EB070080
S315080095101DF060F9276895F8008053F03EFD434634
S315080095204FF480617B4A009038461DF053F953F09A
S3150800953034FD236802466D4900205CF05FFD53F058
S315080095402CFD2268014669481DF01CF902A8FEF7A1
S31508009550FDFC714F029B71493B60039B70487B6021
S31508009560FB79BA791DF022F96E4B1B684BB16E4830
S31508009570FEF780FD01231A461946CDE90033FFF7A9
S3150800958083F90121032002F0B7FF012222201146A8
S3150800959002F0DAFF01220B20114602F0D5FF012264
S315080095A02520114602F0D0FF01221D20114602F0A7
S315080095B0CBFF01220221002002F0C6FF0122022170
S315080095C0282002F0C1FF3388052B40F0F1804C4F6C
S315080095D04FF00009BA46B84603F074FAEAE8020101
S315080095E0287809F101094845F6DA4FF0000CDFF84A
S315080095F004E13B46BA68D9680CF1010CD3E900933B
S31508009600B2EB090261EB03034EF8082F604507F138
S315080096100807CEF80430ECDA08EBC00258F8303008
S315080096205268DFF81881414FC8E90032D7E90001CE
S315080096301B1A62EB0102CDE900324FF480613C4A05
S3150800964020681DF0C7F853F0A8FC2368024627498E
S3150800965000205CF0D3FC53F0A0FC226801462348A6
S315080096601DF090F8D8E90032DFF8D4C0DFF8C880DA
S31508009670DCE900011B1842EB0102D7E900105B1A6E
S3150800968062EB00024046CCE900326BF094FB204BBB
S3150800969087B295F80090188053F07FFCC7F5806173
S315080096A04B46244A009008EB07001DF093F82768FC
S315080096B095F8008053F071FC43464FF480611D4ACB
S315080096C0009038461DF086F853F067FC236802467A
S315080096D0064900205CF092FC34E000BF69B800201F
S315080096E078A70020A024002012860708DC7C07083B
S315080096F05AB9002008140020278607087EA70020EC
S31508009700381400207CA70020701400205086070813
S315080097107AA700208D86070859B00020B578070873
S3150800972040B90020FC220020C41A0808881400202A
S3150800973098860708B586070869B0002080140020B7
S315080097407814002053F029FC226801240146304889
S315080097501DF018F82F4B214603201C7002F0CCFE92
S31508009760224603211A2002F0EFFE22460421102089
S3150800977002F0EAFE22462146222002F0E5FE2246B3
S3150800978004210B2002F0E0FE22462146252002F0A5
S31508009790DBFE224621461D2002F0D6FE2246022185
S315080097A0002002F0D1FE22460221282002F0CCFE3B
S315080097B02B78338004B0BDE8F087DFF86080D8E9FD
S315080097C000125B1A6CEB0202CDE900324FF480619D
S315080097D0114A1CF0FFFF53F0E0FB236802460C49D0
S315080097E000205CF00BFC53F0D8FB226801460848C1
S315080097F01CF0C8FFD7E90001D9E900321B1842EB73
S315080098000102D8E900105B1A62EB00026BE600BFA2
S31508009810DC7C07086AB800207186070880140020D7
S3150800982084B010B58CB00EAC84E80F009DF87F307C
S31508009830154C0B939DF87C304FF48061AE3B0A9330
S315080098409DF87D302046AE3B0993BDF876300F4A29
S315080098500893BDF8743007931B9B06931A9B0593D0
S31508009860199B0493189B0393179B0293169B0193CA
S315080098709DF894300093269B1CF0ACFF20460CB054
S31508009880BDE8104004B0704769B40020C0860708D8
S315080098902DE9F041AEB006460DF15B005DF08CFC9B
S315080098A018B181B21C481CF06DFF9DF85B00B042F0
S315080098B003D81A482EB0BDE8F081C00056F0B7FFAD
S315080098C004460028F5D001460DF15B005DF089FCE1
S315080098D018B181B212481CF055FF04EBC607DFF831
S315080098E0488017AD294638465DF094FCFB79BA796D
S315080098F00C4940461CF05AFF204656F0B7FF1BA9F4
S3150800990049226846CDE913686BF048FA95E80F00D6
S31508009910FFF786FFCEE700BF48780708C41A08088D
S3150800992081780708B578070839BA002070B50D465A
S3150800993004461D4E30461CF025FF1C481CF022FF2D
S3150800994041F2356229461A481CF01CFF19481CF0DA
S3150800995019FF214618481CF015FF18481CF012FF7D
S31508009960214617481CF00EFF05F07EFC15481CF032
S3150800997009FF15481CF006FF14481CF003FF14489D
S315080099801CF000FF13481CF0FDFE13481CF0FAFEFD
S3150800999012481CF0F7FE12481CF0F4FE3046BDE8EB
S315080099A070401CF0EFBE00BFFC1E08089887070829
S315080099B0CC870708ED870708FE8707083E8807084B
S315080099C052880708AA8807080089070850890708DF
S315080099D0A9890708078A0708438A07089D8A070886
S315080099E0F88A070870B598B01C4B2A22002105464C
S315080099F00DA80C936BF02BF907A85DF0B4FC0CAC22
S31508009A0060B9022003A9BDF81C605DF0C4FAF0B184
S31508009A102E212046124A1CF0DDFE0AE017284FF0D8
S31508009A202E0120460CBF0F4A0F4A1CF0D3FE4FF6F4
S31508009A30FF7633460D4A4FF4FA6100940C481CF041
S31508009A40C9FE29460A4853F093FA18B070BD2E236A
S31508009A50224603A926F04CFFEBE700BF4E2F410034
S31508009A604B8B0708368B0708418B0708548B07086A
S31508009A703EBA002070B58EB005460CA85DF072FBA4
S31508009A800CA807F0F3FD04460DF12E030DF12D0287
S31508009A900BA90DF12B005DF01CFCBDF82E30134E02
S31508009AA008939DF82D30124A07939DF82C304FF4F1
S31508009AB0FA6106939DF82B30304605930D4B0994B1
S31508009AC004930D4B03930D4B02930D4B01930D4BD2
S31508009AD000930D4B1CF07EFE204654F0ECF9294607
S31508009AE0304653F045FA0EB070BD00BF3EBA0020AE
S31508009AF07E8B070884B80020D4B800206BB80020F5
S31508009B005481070850B9002048B900202DE9FF41C3
S31508009B100027DFF8BC8006464021D8F80000CDE9CA
S31508009B20027754F0D5FA234C054670B383B24FF446
S31508009B308061214A20681CF04DFE53F02EFA024639
S31508009B40384623681D495CF059FA53F026FA22680C
S31508009B5001461A481CF016FE02AB4021D8F8000050
S31508009B6003AA54F06BFA0346E0B9039B4FF4FA6173
S31508009B700093134A029B13481CF02CFE31461148E9
S31508009B8053F0F6F904B0BDE8F0814FF480610E4A4F
S31508009B9020681CF01FFE53F000FA236802460749A6
S31508009BA02846D0E74FF4FA61084A06481CF012FE28
S31508009BB0E4E700BFA0240020AF800708DC7C070884
S31508009BC0288C07083EBA0020E78007085C8C07083F
S31508009BD0FC2001202DE9F04FADF5177D0024242245
S31508009BE02146804618A817940DF184096BF02FF8C2
S31508009BF02422214622A8C9F800406BF028F824221E
S31508009C0021462CA82B946BF022F82146242236A84C
S31508009C1035946BF01CF80DF136000E948DF836402D
S31508009C205DF0CAFA0146F0B190481CF0ABFD8DF81C
S31508009C3036409DF83630202B1A4628BF20228DF84C
S31508009C4037206BB156A90DF137005DF0CAFA064602
S31508009C5078B1014686481CF095FD00238DF837300B
S31508009C604FF0FF3415E09DF8361082481CF08AFD47
S31508009C70DFE79DF8371080481CF084FD4FF0FF346D
S31508009C80DFF82CA2DFF82CB29DF83730F5B2AB42DC
S31508009C9005D84FF00046FF25B3462F464FE0592218
S31508009CA000213FA86AF0D3FF56AB03EBC507384639
S31508009CB03FA95DF0AFFA024628B129466F481CF065
S31508009CC061FD0136E0E729460B906D481CF05AFD08
S31508009CD00B9A1546504617F8011B01351CF052FD24
S31508009CE0082DF7D19DF94231584600939DF8402139
S31508009CF0BDF838319DF841111CF044FD9DF84171BD
S31508009D009DF84031FF2F0BD1FF2B1D4640F08E806A
S31508009D104FF6FF72BDF83831934218BF1C46D0E79C
S31508009D20FF2B1D46A7F1AE0B40F082804FF6FF725F
S31508009D30BDF838314FF00046934218BF1C460EA8AE
S31508009D405DF0F7FA014600287CD19DF83AA04D4807
S31508009D5051461CF017FDBBF1004F79D110214A4A34
S31508009D600FA81CF037FDB6F1004F78D11021464AEE
S31508009D7013A81CF02FFDBAF1FF3F08BF4FF0000AE9
S31508009D8002F0A0FE02F078FE2821024617A81CF071
S31508009D9021FD02F097FE3D4A2BAED2E90032C01AE9
S31508009DA061EB020102F068FE2821024648461CF0D3
S31508009DB011FD374B0DF1D40BD3E9000102F05CFE1F
S31508009DC02821024630461CF005FD324B24EAE4748D
S31508009DD0D3E9000102F050FE2821024658461CF03D
S31508009DE0F9FC13AB05930FABCDE903532A4B4FF49C
S31508009DF0FA61CDE90093CDE9086BCDE9064A274A11
S31508009E002748029717AB1CF0E5FCB0F5FA6F05D3A7
S31508009E104FF4FA61234A22481CF0DCFC41462048EC
S31508009E2053F0A6F80DF5177DBDE8F08F4FF0004BFF
S31508009E304FF6FF72A3F1AE06BDF83831934218BF4C
S31508009E401C467CE718481CF09DFC4FF0FF3A82E759
S31508009E505B461021154A0FA81CF0BCFC83E7334665
S31508009E601021124A13A81CF0B5FC84E7828C070857
S31508009E70CE8C0708B48C0708FB8C07082C8D0708BE
S31508009E80658D0708A78D0708DB7809088814002060
S31508009E90781400207014002040B90020F08D0708BF
S31508009EA03EBA0020E18E0708BB8D0708EB8D070830
S31508009EB022D409087C8D070838B501220446074BC9
S31508009EC0074D1A704FF4FA612846064A1CF082FCC0
S31508009ED021462846BDE8384053F04AB859B900200B
S31508009EE03EBA0020FA8E070810B504460B486AF0F9
S31508009EF062FF60B14FF4FA61084B094A09481CF041
S31508009F0069FC2146BDE81040064853F031B84FF4C5
S31508009F10FA61054A03481CF05DFCF2E73AE60020C0
S31508009F20C0B509083EBA0020158F070838B504469B
S31508009F30064D4FF4FA612846054B064A1CF04AFCC2
S31508009F4021462846BDE8384053F012B83EBA0020EC
S31508009F5048B90020C0B5090838B50446064D4FF47F
S31508009F60FA612846054B064A1CF034FC2146284669
S31508009F70BDE8384052F0FCBF3EBA002050B9002078
S31508009F80C0B5090838B50446064D4FF4FA612846A7
S31508009F90054B064A1CF01EFC21462846BDE83840FB
S31508009FA052F0E6BF3EBA002054810708C0B509083A
S31508009FB038B50446064D4FF4FA612846054B064A5D
S31508009FC01CF008FC21462846BDE8384052F0D0BFB0
S31508009FD03EBA00206BB80020C0B5090870B58AB033
S31508009FE004462822002168466AF031FEA389002B20
S31508009FF03CD0204653F034FD0546A0B36A461D49B9
S3150800A00052F070FA0646284653F0F9FC5EB36846E5
S3150800A01019496AF0B1FE68B95CF0DEFF41F2883191
S3150800A020872004F0E1F85DF08CF853F028F800205A
S3150800A0300AB070BD684611496AF09EFE38B95CF0F0
S3150800A040CBFF41F28831872004F0CEF8EDE76B4666
S3150800A0500B4A4FF4FA610B481CF0BCFB2146094831
S3150800A06052F086FFE4E76B46074AF2E7074B084AD1
S3150800A070EFE700BF2C8F0708318F07083B8F0708CB
S3150800A080458F07083EBA00205A8F0708D4B8002023
S3150800A090C0B5090838B50446064D4FF4FA61284696
S3150800A0A0054B064A1CF096FB21462846BDE8384073
S3150800A0B052F05EBF3EBA002084B80020C0B5090839
S3150800A0C038B5044602F0FEFC02F0D6FC064D0346FF
S3150800A0D04FF4FA612846054A1CF07CFB21462846BF
S3150800A0E0BDE8384052F044BF3EBA0020C0B5090862
S3150800A0F038B50446074DFDF79DFF4FF4FA6128462B
S3150800A100054B064A1CF066FB21462846BDE8384042
S3150800A11052F02EBF3EBA002040B90020C0B509084B
S3150800A12013B50023019383890446B3B10F498069A7
S3150800A13001AA52F0D7F980B19DF80400FFF7A8FBF1
S3150800A14003460B4A4FF4FA610A481CF043FB2146C2
S3150800A150084852F00DFF02B010BD0DF103005DF086
S3150800A1602BF89DF80330044AECE700BFF6FD090812
S3150800A170C0B509083EBA0020718F070830B58BB004
S3150800A1800446114B114DD3E90A01CDE90801D3E97B
S3150800A1900801CDE90601D3E90601CDE90401D3E9B1
S3150800A1A00401CDE902014FF4FA61D3E902232846F6
S3150800A1B0CDE90023064A1CF00DFB214628460BB0C4
S3150800A1C0BDE8304052F0D4BE081400203EBA002044
S3150800A1D0848F070838B50446064D4FF4FA612846B9
S3150800A1E0054B064A1CF0F6FA21462846BDE83840D3
S3150800A1F052F0BEBE3EBA002069B00020C0B50908BC
S3150800A200F7B500230193838904460F4F73B153F0C2
S3150800A21027FC054650B10D4901AA52F063F90646D6
S3150800A220284653F0ECFB0EB1019B3B813B89084A5B
S3150800A2304FF4FA6107481CF0CDFA2146054852F05A
S3150800A24097FE03B0F0BD00BFEC230020F6FD090819
S3150800A250E4360A083EBA0020F7B500230127CDE9FF
S3150800A26000331F4E838905463760BBB153F0F8FBB0
S3150800A270044680B16B461B4901AA52F033F90228FD
S3150800A2801CD19DF80010184B3A469DF80400197029
S3150800A29002F05AF93060204653F0B1FB3368E3B94F
S3150800A2A0114B124A1B784FF4FA6111481CF092FAC6
S3150800A2B029460F4852F05CFE03B0F0BD0D496A46C8
S3150800A2C0204652F00FF901280146E4D19DF8000016
S3150800A2D0054B187002F010F9DCE7074AE3E700BF00
S3150800A2E0E4230020309D070860280120E4360A0888
S3150800A2F03EBA0020F6FD09089F8F070870B58CB096
S3150800A30000210646282202A801916AF0A0FCB3891A
S3150800A3105BB3304653F0A4FB054678B3184901AB46
S3150800A32002AA52F0DFF8022815D1019902A801F015
S3150800A3302FFC0446284653F062FBBCB9019B114A20
S3150800A3404FF4FA6110481CF045FA31460E4852F0AF
S3150800A3500FFE0CB070BD28460C4902AA52F0C2F88E
S3150800A360012806D0284653F04AFB0F242346084AFC
S3150800A370E6E701A902A801F007FDDAE71924F5E7DF
S3150800A380BE8F0708E4360A083EBA00202C8F070855
S3150800A390C68F070838B583890546C3B153F060FBF5
S3150800A3A0044640B102464FF47A710C4802F02AF886
S3150800A3B0204653F024FB4FF4FA61094A09481CF079
S3150800A3C009FA2946BDE83840064852F0D1BD4FF48F
S3150800A3D07A71054A014802F015F8ECE7447D07084A
S3150800A3E0D48F07083EBA00209A1A080838B50446DA
S3150800A3F0074D02F07BF84FF4FA612846054A1CF02F
S3150800A400E9F921462846BDE8384052F0B1BD00BFFB
S3150800A4103EBA0020DC8F070838B5044603F014F866
S3150800A420064D02464FF4FA6128461CF0D3F9214638
S3150800A4302846BDE8384052F09BBD00BF3EBA002012
S3150800A44038B5044602F04EFE064D02464FF4FA6150
S3150800A45028461CF0BFF921462846BDE8384052F088
S3150800A46087BD00BF3EBA002038B5044602F056FE46
S3150800A470064D02464FF4FA6128461CF0ABF9214610
S3150800A4802846BDE8384052F073BD00BF3EBA0020EA
S3150800A49008B582890AB9002008BD054980696AF0AD
S3150800A4A0FAFB0028F7D1FDF731FD0120F4E700BFDC
S3150800A4B0E48F070837B504460A4B0B4D1B884FF443
S3150800A4C0FA610093094B0A4A1B8828461CF082F950
S3150800A4D02046FFF7DDFF2146284603B0BDE8304099
S3150800A4E052F046BD7CA700203EBA00207EA7002079
S3150800A4F0EA8F070838B5044602F0E4FA0C4A0D4D0F
S3150800A500D2E90032C01A61EB020102F0B5FA4FF443
S3150800A510FA610346084A28461CF05CF92046FFF70C
S3150800A520B7FF21462846BDE8384052F021BD00BF96
S3150800A530881400203EBA0020C0B5090870B5044644
S3150800A54002F0C0FA0F4E104AD6E90056D2E9003298
S3150800A5505B1B62EB0602181842EB010102F08CFA4B
S3150800A5600A4D03464FF4FA612846094A1CF032F9A7
S3150800A5702046FFF78DFF21462846BDE8704052F079
S3150800A580F7BC00BF88140020781400203EBA0020CB
S3150800A590C0B5090838B50B4B0446D3E9000102F0EB
S3150800A5A06BFA094D03464FF4FA612846074A1CF030
S3150800A5B011F92046FFF76CFF21462846BDE83840CA
S3150800A5C052F0D6BC701400203EBA0020C0B5090867
S3150800A5D02DE9F743064602F075FADFF89890DFF89A
S3150800A5E09880D9E90032D8E900545B1B62EB040273
S3150800A5F0181842EB010150F0F9FF00221A4B51F0EE
S3150800A6002BF804460D4602F05DFAD9E90032DFF868
S3150800A6106CE0164FDEE900CE13EB0C0342EB0E029C
S3150800A620D8E900CEB3EB0C0362EB0E02181842EB26
S3150800A630010150F0DBFF0B4602462946204651F041
S3150800A64035F90B4ACDE900014FF4FA6138461CF09A
S3150800A650C1F83046FFF71CFF3146384603B0BDE85F
S3150800A660F04352F085BC00BF000059403EBA0020B6
S3150800A670F28F070878140020881400207014002030
S3150800A6802DE9F04FA7B0834602F01CFA414D424C23
S3150800A690D5E90032D4E900679B1B62EB070218185C
S3150800A6A042EB010102F0E8F90DF148093B4F024679
S3150800A6B0282148461CF08EF8D7E9000102F0DCF99B
S3150800A6C00DF1700A0246282150461CF083F802F064
S3150800A6D0F9F9D5E900322668DFF8D8809B1B666849
S3150800A6E062EB0602181842EB010150F07FFF0022C8
S3150800A6F02B4B50F0B1FFCDE9100102F0E3F9D5E993
S3150800A7000032D7E900575B1942EB0702D4E9005437
S3150800A7105B1B62EB0402181842EB010150F066FF5E
S3150800A72002460B46DDE9100151F0C0F851F076FA01
S3150800A73050F03AFFCDE90C9ACDE90E01194B1B886A
S3150800A7400B93194B1B880A93184BD3E90A01CDE9D9
S3150800A7500801D3E90801CDE90601D3E90601CDE9E7
S3150800A7600401D3E90401CDE902014FF4FA61D3E902
S3150800A77002234046CDE900230D4A1CF02BF8584623
S3150800A780FFF786FE5946404652F0F2FB27B0BDE871
S3150800A790F08F00BF78140020881400207014002061
S3150800A7A0000059407CA700207EA70020081400203E
S3150800A7B0F88F07083EBA002084B013B504AC84E8C5
S3150800A7C00F00084C03460192009120464FF4FA61A7
S3150800A7D0054A1BF0FFFF204602B0BDE8104004B052
S3150800A7E0704700BF3EBA0020B690070884B010B57F
S3150800A7F090B012AC84E80F009DF89030164C0F9379
S3150800A800219B02920E93209B01910D931F9B4FF45F
S3150800A810FA610C931E9B20460B931D9B0F4A0A93C5
S3150800A8201C9B09931B9B08931A9B0793199B0693DA
S3150800A830189B0593169B0493159B0393BDF84A3002
S3150800A8400093BDF848301BF0C5FF204610B0BDE8A0
S3150800A850104004B0704700BF3EBA002000910708B8
S3150800A86084B010B586B008AC84E80F000493BDF92F
S3150800A87026300B4C0293BDF8243003920193BDF8A1
S3150800A88022304FF4FA6100932046BDF92030054A7C
S3150800A8901BF0A0FF204606B0BDE8104004B0704784
S3150800A8A03EBA0020BE92070884B010B59CB01EAC14
S3150800A8B084E80F00BDF8DE30214C1A93BDF8DC3071
S3150800A8C01993BDF8DA301893BDF8D8301793359B2D
S3150800A8D01693349B1593339B1493329B1393319B96
S3150800A8E01293309B11932F9B10932E9B0F932D9BA6
S3150800A8F00E932C9B0D932B9B01920C932A9B0091F4
S3150800A9000B93299B4FF4FA610A93289B0D4A0993E6
S3150800A910279B0893269B0793259B0693249B0593C1
S3150800A920239B0493229B0393219B02930346204671
S3150800A9301BF050FF20461CB0BDE8104004B070471D
S3150800A9403EBA0020A793070810B58A8904460B4625
S3150800A9500AB9002010BD054998696AF09CF90028D3
S3150800A960F7D120465CF016FC0120F3E7E48F0708D0
S3150800A97030B59BB0124C0546214600205CF083FB9F
S3150800A980104B04F110011860642268466AF006FA52
S3150800A99094E80F00FFF710FF0B4C03460B4A4FF4E1
S3150800A9A0FA6120461BF016FF29460020FFF7CCFF68
S3150800A9B0294620461BB0BDE8304052F0D9BA00BF40
S3150800A9C070230020E42300203EBA0020C0B5090801
S3150800A9D030B59BB0124C0546214601205CF053FB6E
S3150800A9E0104B04F110011860642268466AF0D6F923
S3150800A9F094E80F00FFF7FAFE0B4C03460B4A4FF498
S3150800AA00FA6120461BF0E6FE29460120FFF79CFF67
S3150800AA10294620461BB0BDE8304052F0A9BA00BF0F
S3150800AA2070230020E42300203EBA0020C0B50908A0
S3150800AA3030B59BB0124C0546214602205CF023FB3C
S3150800AA40104B04F110011860642268466AF0A6F9F2
S3150800AA5094E80F00FFF704FF0B4C03460B4A4FF42C
S3150800AA60FA6120461BF0B6FE29460220FFF76CFF66
S3150800AA70294620461BB0BDE8304052F079BA00BFDF
S3150800AA8070230020E42300203EBA0020C0B5090840
S3150800AA9073B5124E0546314603205CF0F4FA104BA6
S3150800AAA0104C186033684FF4FA61009373682046B7
S3150800AAB00D4A1BF08FFE23460C4A4FF4FA612046D6
S3150800AAC01BF088FE29460320FFF73EFF294620464D
S3150800AAD002B0BDE8704052F04BBA00BF70230020A8
S3150800AAE0E42300203EBA002061930708C0B5090890
S3150800AAF030B59BB0124C0546214604205CF0C3FADB
S3150800AB00104B04F110011860642268466AF046F991
S3150800AB1094E80F00FFF7C8FE0B4C03460B4A4FF4A8
S3150800AB20FA6120461BF056FE29460420FFF70CFF63
S3150800AB30294620461BB0BDE8304052F019BA00BF7E
S3150800AB4070230020E42300203EBA0020C0B509087F
S3150800AB5070B5104E0546314605205CF094FA0E4C49
S3150800AB600E4B4FF4FA6118600D4A336820461BF005
S3150800AB7031FE23464FF4FA6120460A4A1BF02AFEA4
S3150800AB8029460520FFF7E0FE29462046BDE8704025
S3150800AB9052F0EEB9702300203EBA0020E4230020CC
S3150800ABA0E1960708C0B509082DE9F04389B00127E1
S3150800ABB01422002103A86AF04AF8974B974D984C3F
S3150800ABC00093984B68460195029404938DF80C708F
S3150800ABD004F0EAFA30B140F25641934B934A94484E
S3150800ABE002F00CFF934B6846CDE90035924B029470
S3150800ABF004938DF80C7004F0D7FA20B140F25E4148
S3150800AC00894B8A4AEBE78D4BDFF8B89200938C4B59
S3150800AC106846CDE9019404938DF80C7004F0C4FAE3
S3150800AC2020B140F26641804B804AD8E7854B68469A
S3150800AC30CDE90039844B029404938DF80C7004F026
S3150800AC40B3FA20B140F26E41774B784AC7E77F4B9B
S3150800AC50684600937E4B8DF80C70CDE901347D4B28
S3150800AC60049304F0A1FA20B140F276416E4B6F4A84
S3150800AC70B5E7794B794E0093794B6846CDE901647F
S3150800AC8004938DF80C7004F08FFA20B140F27E41DF
S3150800AC90654B664AA3E7734B6846CDE90036724BA7
S3150800ACA0029404938DF80C7004F07EFA20B140F2F9
S3150800ACB086415D4B5D4A92E76C4B6846CDE90036A6
S3150800ACC06B4B029404938DF80C7004F06DFA20B166
S3150800ACD040F28E41544B554A81E7664B6846CDE9AA
S3150800ACE00035654B029404938DF80C7004F05CFAF9
S3150800ACF020B140F296414C4B4C4A70E75F4B684690
S3150800AD00CDE900355E4B8DF80C7002935D4B0493CC
S3150800AD1004F04AFA20B140F29E41434B434A5EE7AB
S3150800AD200127594B6846CDE90036584B02940493DF
S3150800AD308DF80C7004F038FA20B140F2A6413A4B6F
S3150800AD403A4A4CE7524BDFF880810093514B6846EC
S3150800AD50CDE9018404938DF80C7004F025FA20B12E
S3150800AD6040F2AE41304B314A39E74B4B6846CDE9A4
S3150800AD7000394A4B029404938DF80C7004F014FAC7
S3150800AD8020B140F2B641284B284A28E7444B68468A
S3150800AD90CDE90035434B029404938DF80C7004F00A
S3150800ADA003FA20B140F2BE411F4B204A17E73E4B3B
S3150800ADB06846CDE900383D4B029404938DF80C7033
S3150800ADC004F0F2F920B140F2C741174B174A06E7DB
S3150800ADD0374B68460093374B8DF80C70CDE9013434
S3150800ADE0354B049304F0E0F920B140F2CF410E4B05
S3150800ADF00E4AF4E6314B6846CDE90038304B0294EA
S3150800AE0004938DF80C7004F0CFF900285ED040F258
S3150800AE10D741054B054AE2E6049707081A9707083B
S3150800AE201F970708E599000824970708B09A0708A6
S3150800AE306497070872970708759A00087C970708A9
S3150800AE402D9F00088D970708599F000898970708AF
S3150800AE50A4970708859F0008A8970708066C0A089C
S3150800AE60B19F0008BA970708DD9F0008CC97070826
S3150800AE7095A00008DA970708D59B0008E697070803
S3150800AE80F59707080D9B0008FC970708B99E000868
S3150800AE9009980708C1A000081E980708F1A000082D
S3150800AEA02D98070821A100083E980708F5A4000870
S3150800AEB050980708709807087DA100087698070833
S3150800AEC095A500088997070819980708984BDFF889
S3150800AED020930093974B6846CDE9019404938DF827
S3150800AEE00C7004F061F920B140F2DF41924B934AAD
S3150800AEF075E6934B6846CDE90038924B0294049365
S3150800AF008DF80C7004F050F920B140F2E7418A4BF5
S3150800AF108A4A64E68C4B684600938C4B8DF80C7015
S3150800AF20CDE901348A4B049304F03EF920B140F28E
S3150800AF30EF41814B814A52E60127864B6846CDE9A7
S3150800AF400036854B029404938DF80C7004F02CF9A6
S3150800AF5020B140F20251784B784A40E67F4B68466A
S3150800AF60CDE900357E4B029404938DF80C7004F0FD
S3150800AF701BF920B140F20D516F4B704A2FE6794B01
S3150800AF806846CDE90035784B8DF80C700293774BFF
S3150800AF90049304F009F920B140F21651664B674A4A
S3150800AFA01DE6734B6846CDE90035724B8DF80C707B
S3150800AFB00293714B049304F0F7F820B140F21E5146
S3150800AFC05D4B5E4A0BE66D4B6846CDE900356C4B2A
S3150800AFD08DF80C7002936B4B049304F0E5F820B1DE
S3150800AFE040F22651544B554AF9E5674B6846CDE978
S3150800AFF00035664B8DF80C700293654B049304F08C
S3150800B000D3F820B140F22E514B4B4C4AE7E5614B41
S3150800B0106846CDE90035604B8DF80C7002935F4B9E
S3150800B020049304F0C1F820B140F23651424B434A2A
S3150800B030D5E55B4B6846CDE900355A4B8DF80C7063
S3150800B0400293594B049304F0AFF820B140F23E51F5
S3150800B050394B3A4AC3E5554B554C0093554B684610
S3150800B0600193554B029404938DF80C7004F09CF8E8
S3150800B07020B140F24751304B304AB0E54F4B684655
S3150800B08000934F4B8DF80C70CDE901344D4B04936A
S3150800B09004F08AF820B140F24F51274B274A9EE523
S3150800B0A002940124484B6846CDE90039474B8DF890
S3150800B0B00C40049304F078F820B140F257511E4B27
S3150800B0C01E4A8CE5424B6846CDE90036414B8DF861
S3150800B0D00C400293404B049304F066F820B14FF4F9
S3150800B0E0AC61154B154A7AE53C4B3D4DCDE900362A
S3150800B0F03C4B6846029504938DF80C4004F054F8CE
S3150800B10020B14FF4AD610C4B0C4A68E5364B6846E6
S3150800B110CDE90036354B029504938DF80C4004F0C2
S3150800B12043F8002866D04FF4AE61034B034A56E550
S3150800B13099980708B5A4000824970708B09A07083D
S3150800B140B99807083DA50008D9980708F69807088A
S3150800B150D1A50008FC980708D5A100080599070895
S3150800B16081A60008199907080CA7090871A90008FB
S3150800B1702F99070841990708D1A900084599070892
S3150800B1805799070831AA00085C9907086E990708B5
S3150800B19091AA0008749907083D420A08F1AA00080E
S3150800B1A08E9907086FE0090851AB0008AB990708A4
S3150800B1B0BF990708E5A3070801A20008C899070868
S3150800B1C0F9C8090859A20008DE990708FDA200086F
S3150800B1D0F2990708029A0708E99E00080B9A0708D9
S3150800B1E01B9A070895A30008209A0708EDA30008EC
S3150800B1F0B59807081E4B1F4DCDE900361E4B68460D
S3150800B200029504938DF80C4003F0CEFF20B140F26E
S3150800B2107B511A4B1A4AE2E41A4B6846CDE90036C6
S3150800B220194B029504938DF80C4003F0BDFF20B12D
S3150800B23040F28351114B124AD1E4144B6846CDE9CA
S3150800B2400036134B029504938DF80C4003F0ACFFBF
S3150800B25020B140F28B51094B094AC0E4322225211C
S3150800B2600C481BF08FFA252009B0BDE8F08300BF13
S3150800B2702F9A0708459A070819A40008249707086B
S3150800B280B09A0708539A070841A40008659A070860
S3150800B29069A40008799A0708F0B589B00746182204
S3150800B2A0002102A869F0D3FC454D002F59D00BF0B8
S3150800B2B0A7FC0026431F5842424C584100020390FF
S3150800B2C02068079608B115F0DFF94FF4A0530493E8
S3150800B2D04FF48853ADF808303B4B202205933B4981
S3150800B2E0384B02A8266058F090F90646E0B10346A6
S3150800B2F04FF48061364A28681BF06CFA51F04DFE0F
S3150800B3002B680246334900205AF078FE51F045FE74
S3150800B3102A6801462F481BF035FA012402A859F07D
S3150800B32071F9204609B0F0BD20685CF088F804463B
S3150800B330002833D033464FF48061274A28681BF02B
S3150800B34049FA51F02AFE2B680246224900205AF093
S3150800B35055FE51F022FE2A6801461E481BF012FAD5
S3150800B360DCE738465CF03BF80446F8B928681B4B1E
S3150800B3704FF480611A4A1BF02DFA51F00EFE2B6825
S3150800B3800246144900205AF039FE51F006FE2A6892
S3150800B390014610481BF0F6F90024BFE701205CF0CF
S3150800B3A01EF8044610B928680E4BE1E700943B46A0
S3150800B3B04FF480610C4A28681BF00CFAC1E700BFFD
S3150800B3C0A0240020E823002005008003612801202E
S3150800B3D0C89A0708DC7C0708F19A0708F9B0090833
S3150800B3E0609B0708E3B009082B9B0708F0B58DB0EA
S3150800B3F083780446942B1AD0952B5AD0604C4FF478
S3150800B4008061604A20681BF0E5F951F0C6FD2368A3
S3150800B41002465D4900205AF0F1FD51F0BEFD014695
S3150800B420226859480DB0BDE8F0401BF0ABB9544D41
S3150800B430043402AE3146204605F090FF33464FF4F9
S3150800B4408061524A28681BF0C5F951F0A6FD2B68A1
S3150800B45002464D4900205AF0D1FD51F09EFD2A685A
S3150800B460014649481BF08EF920465BF0CBFFB8B978
S3150800B47033464FF48061464A28681BF0ABF951F011
S3150800B4808CFD414902462B6800205AF0B7FD51F061
S3150800B49084FD01462A683C481BF074F90DB0F0BDDE
S3150800B4A0009603464FF480613A4A28681BF092F9E1
S3150800B4B0E5E702AD2946043005F050FF6669012E1E
S3150800B4C035D0022E3CD0002EE8D1334F2C4C2846DE
S3150800B4D0324A396800F096FF2B464FF48061304AAD
S3150800B4E020681BF077F951F058FD23680246264973
S3150800B4F030465AF083FD51F050FD22680146224835
S3150800B5001BF040F900954FF480613B68254A206896
S3150800B5101BF060F951F041FD1B49024623680020E3
S3150800B5205AF06CFD51F039FD22680146B3E7144C18
S3150800B5302B464FF480611C4A20681BF04BF9E9E75B
S3150800B5400F4C00F0D3FF2B464FF48061174A206852
S3150800B5501BF040F951F021FD236802460A490020F4
